{
	"contracts/5_Arrays.sol": {
		"ECommerce": {
			"abi": [
				{
					"inputs": [],
					"name": "example",
					"outputs": [],
					"stateMutability": "nonpayable",
					"type": "function"
				},
				{
					"inputs": [],
					"name": "getOrders",
					"outputs": [
						{
							"internalType": "string[]",
							"name": "",
							"type": "string[]"
						}
					],
					"stateMutability": "view",
					"type": "function"
				},
				{
					"inputs": [
						{
							"internalType": "string",
							"name": "orderID",
							"type": "string"
						}
					],
					"name": "newOrder",
					"outputs": [],
					"stateMutability": "nonpayable",
					"type": "function"
				}
			],
			"devdoc": {
				"kind": "dev",
				"methods": {},
				"version": 1
			},
			"evm": {
				"assembly": "    /* \"contracts/5_Arrays.sol\":62:1030  contract ECommerce{... */\n  mstore(0x40, 0x80)\n    /* \"contracts/5_Arrays.sol\":133:169  int16[] numbers = [int16(1),2,3,4,5] */\n  mload(0x40)\n  dup1\n  0xa0\n  add\n  0x40\n  mstore\n  dup1\n    /* \"contracts/5_Arrays.sol\":158:159  1 */\n  0x01\n    /* \"contracts/5_Arrays.sol\":133:169  int16[] numbers = [int16(1),2,3,4,5] */\n  dup1\n  signextend\n  0x01\n  signextend\n  dup2\n  mstore\n  0x20\n  add\n    /* \"contracts/5_Arrays.sol\":161:162  2 */\n  0x02\n    /* \"contracts/5_Arrays.sol\":133:169  int16[] numbers = [int16(1),2,3,4,5] */\n  0x01\n  signextend\n  dup2\n  mstore\n  0x20\n  add\n    /* \"contracts/5_Arrays.sol\":163:164  3 */\n  0x03\n    /* \"contracts/5_Arrays.sol\":133:169  int16[] numbers = [int16(1),2,3,4,5] */\n  0x01\n  signextend\n  dup2\n  mstore\n  0x20\n  add\n    /* \"contracts/5_Arrays.sol\":165:166  4 */\n  0x04\n    /* \"contracts/5_Arrays.sol\":133:169  int16[] numbers = [int16(1),2,3,4,5] */\n  0x01\n  signextend\n  dup2\n  mstore\n  0x20\n  add\n    /* \"contracts/5_Arrays.sol\":167:168  5 */\n  0x05\n    /* \"contracts/5_Arrays.sol\":133:169  int16[] numbers = [int16(1),2,3,4,5] */\n  0x01\n  signextend\n  dup2\n  mstore\n  pop\n  0x01\n  swap1\n  0x05\n  tag_1\n  swap3\n  swap2\n  swap1\n  tag_2\n  jump\t// in\ntag_1:\n  pop\n    /* \"contracts/5_Arrays.sol\":62:1030  contract ECommerce{... */\n  callvalue\n  dup1\n  iszero\n  tag_3\n  jumpi\n  0x00\n  dup1\n  revert\ntag_3:\n  pop\n  jump(tag_4)\ntag_2:\n  dup3\n  dup1\n  sload\n  dup3\n  dup3\n  sstore\n  swap1\n  0x00\n  mstore\n  keccak256(0x00, 0x20)\n  swap1\n  0x0f\n  add\n  0x10\n  swap1\n  div\n  dup2\n  add\n  swap3\n  dup3\n  iszero\n  tag_5\n  jumpi\n  swap2\n  0x20\n  mul\n  dup3\n  add\n  0x00\ntag_6:\n  dup4\n  dup3\n  gt\n  iszero\n  tag_7\n  jumpi\n  dup4\n  mload\n  dup4\n  dup3\n  0x0100\n  exp\n  dup2\n  sload\n  dup2\n  0xffff\n  mul\n  not\n  and\n  swap1\n  dup4\n  0x01\n  signextend\n  0xffff\n  and\n  mul\n  or\n  swap1\n  sstore\n  pop\n  swap3\n  0x20\n  add\n  swap3\n  0x02\n  add\n  0x20\n  dup2\n  0x01\n  add\n  div\n  swap3\n  dup4\n  add\n  swap3\n  0x01\n  sub\n  mul\n  jump(tag_6)\ntag_7:\n  dup1\n  iszero\n  tag_8\n  jumpi\n  dup3\n  dup2\n  0x0100\n  exp\n  dup2\n  sload\n  swap1\n  0xffff\n  mul\n  not\n  and\n  swap1\n  sstore\n  0x02\n  add\n  0x20\n  dup2\n  0x01\n  add\n  div\n  swap3\n  dup4\n  add\n  swap3\n  0x01\n  sub\n  mul\n  jump(tag_7)\ntag_8:\n  pop\ntag_5:\n  pop\n  swap1\n  pop\n  tag_9\n  swap2\n  swap1\n  tag_10\n  jump\t// in\ntag_9:\n  pop\n  swap1\n  jump\t// out\ntag_10:\ntag_11:\n  dup1\n  dup3\n  gt\n  iszero\n  tag_12\n  jumpi\n  0x00\n  dup2\n  0x00\n  swap1\n  sstore\n  pop\n  0x01\n  add\n  jump(tag_11)\ntag_12:\n  pop\n  swap1\n  jump\t// out\ntag_4:\n  dataSize(sub_0)\n  dup1\n  dataOffset(sub_0)\n  0x00\n  codecopy\n  0x00\n  return\nstop\n\nsub_0: assembly {\n        /* \"contracts/5_Arrays.sol\":62:1030  contract ECommerce{... */\n      mstore(0x40, 0x80)\n      callvalue\n      dup1\n      iszero\n      tag_1\n      jumpi\n      0x00\n      dup1\n      revert\n    tag_1:\n      pop\n      jumpi(tag_2, lt(calldatasize, 0x04))\n      shr(0xe0, calldataload(0x00))\n      dup1\n      0x081ff9aa\n      eq\n      tag_3\n      jumpi\n      dup1\n      0x2e2dc43e\n      eq\n      tag_4\n      jumpi\n      dup1\n      0x54353f2f\n      eq\n      tag_5\n      jumpi\n    tag_2:\n      0x00\n      dup1\n      revert\n        /* \"contracts/5_Arrays.sol\":934:1021  function newOrder(string memory orderID) public {... */\n    tag_3:\n      tag_6\n      0x04\n      dup1\n      calldatasize\n      sub\n      dup2\n      add\n      swap1\n      tag_7\n      swap2\n      swap1\n      tag_8\n      jump\t// in\n    tag_7:\n      tag_9\n      jump\t// in\n    tag_6:\n      stop\n        /* \"contracts/5_Arrays.sol\":836:926  function getOrders() public view returns (string[] memory){... */\n    tag_4:\n      tag_10\n      tag_11\n      jump\t// in\n    tag_10:\n      mload(0x40)\n      tag_12\n      swap2\n      swap1\n      tag_13\n      jump\t// in\n    tag_12:\n      mload(0x40)\n      dup1\n      swap2\n      sub\n      swap1\n      return\n        /* \"contracts/5_Arrays.sol\":232:828  function example() public {... */\n    tag_5:\n      tag_14\n      tag_15\n      jump\t// in\n    tag_14:\n      stop\n        /* \"contracts/5_Arrays.sol\":934:1021  function newOrder(string memory orderID) public {... */\n    tag_9:\n        /* \"contracts/5_Arrays.sol\":993:999  orders */\n      0x00\n        /* \"contracts/5_Arrays.sol\":1005:1012  orderID */\n      dup2\n        /* \"contracts/5_Arrays.sol\":993:1013  orders.push(orderID) */\n      swap1\n      dup1\n      0x01\n      dup2\n      sload\n      add\n      dup1\n      dup3\n      sstore\n      dup1\n      swap2\n      pop\n      pop\n      0x01\n      swap1\n      sub\n      swap1\n      0x00\n      mstore\n      keccak256(0x00, 0x20)\n      add\n      0x00\n      swap1\n      swap2\n      swap1\n      swap2\n      swap1\n      swap2\n      pop\n      swap1\n      dup2\n      tag_18\n      swap2\n      swap1\n      tag_19\n      jump\t// in\n    tag_18:\n      pop\n        /* \"contracts/5_Arrays.sol\":934:1021  function newOrder(string memory orderID) public {... */\n      pop\n      jump\t// out\n        /* \"contracts/5_Arrays.sol\":836:926  function getOrders() public view returns (string[] memory){... */\n    tag_11:\n        /* \"contracts/5_Arrays.sol\":878:893  string[] memory */\n      0x60\n        /* \"contracts/5_Arrays.sol\":912:918  orders */\n      0x00\n        /* \"contracts/5_Arrays.sol\":905:918  return orders */\n      dup1\n      sload\n      dup1\n      0x20\n      mul\n      0x20\n      add\n      mload(0x40)\n      swap1\n      dup2\n      add\n      0x40\n      mstore\n      dup1\n      swap3\n      swap2\n      swap1\n      dup2\n      dup2\n      mstore\n      0x20\n      add\n      0x00\n      swap1\n    tag_21:\n      dup3\n      dup3\n      lt\n      iszero\n      tag_22\n      jumpi\n      dup4\n      dup3\n      swap1\n      0x00\n      mstore\n      keccak256(0x00, 0x20)\n      add\n      dup1\n      sload\n      tag_24\n      swap1\n      tag_25\n      jump\t// in\n    tag_24:\n      dup1\n      0x1f\n      add\n      0x20\n      dup1\n      swap2\n      div\n      mul\n      0x20\n      add\n      mload(0x40)\n      swap1\n      dup2\n      add\n      0x40\n      mstore\n      dup1\n      swap3\n      swap2\n      swap1\n      dup2\n      dup2\n      mstore\n      0x20\n      add\n      dup3\n      dup1\n      sload\n      tag_26\n      swap1\n      tag_25\n      jump\t// in\n    tag_26:\n      dup1\n      iszero\n      tag_27\n      jumpi\n      dup1\n      0x1f\n      lt\n      tag_28\n      jumpi\n      0x0100\n      dup1\n      dup4\n      sload\n      div\n      mul\n      dup4\n      mstore\n      swap2\n      0x20\n      add\n      swap2\n      jump(tag_27)\n    tag_28:\n      dup3\n      add\n      swap2\n      swap1\n      0x00\n      mstore\n      keccak256(0x00, 0x20)\n      swap1\n    tag_29:\n      dup2\n      sload\n      dup2\n      mstore\n      swap1\n      0x01\n      add\n      swap1\n      0x20\n      add\n      dup1\n      dup4\n      gt\n      tag_29\n      jumpi\n      dup3\n      swap1\n      sub\n      0x1f\n      and\n      dup3\n      add\n      swap2\n    tag_27:\n      pop\n      pop\n      pop\n      pop\n      pop\n      dup2\n      mstore\n      0x20\n      add\n      swap1\n      0x01\n      add\n      swap1\n      jump(tag_21)\n    tag_22:\n      pop\n      pop\n      pop\n      pop\n      swap1\n      pop\n        /* \"contracts/5_Arrays.sol\":836:926  function getOrders() public view returns (string[] memory){... */\n      swap1\n      jump\t// out\n        /* \"contracts/5_Arrays.sol\":232:828  function example() public {... */\n    tag_15:\n        /* \"contracts/5_Arrays.sol\":309:316  numbers */\n      0x01\n        /* \"contracts/5_Arrays.sol\":322:324  10 */\n      0x0a\n        /* \"contracts/5_Arrays.sol\":309:325  numbers.push(10) */\n      swap1\n      dup1\n      0x01\n      dup2\n      sload\n      add\n      dup1\n      dup3\n      sstore\n      dup1\n      swap2\n      pop\n      pop\n      0x01\n      swap1\n      sub\n      swap1\n      0x00\n      mstore\n      keccak256(0x00, 0x20)\n      swap1\n      0x10\n      swap2\n      dup3\n      dup3\n      div\n      add\n      swap2\n      swap1\n      mod\n      0x02\n      mul\n      swap1\n      swap2\n      swap1\n      swap2\n      swap1\n      swap2\n      0x0100\n      exp\n      dup2\n      sload\n      dup2\n      0xffff\n      mul\n      not\n      and\n      swap1\n      dup4\n      0x01\n      signextend\n      0xffff\n      and\n      mul\n      or\n      swap1\n      sstore\n      pop\n        /* \"contracts/5_Arrays.sol\":405:406  6 */\n      0x06\n        /* \"contracts/5_Arrays.sol\":392:399  numbers */\n      0x01\n        /* \"contracts/5_Arrays.sol\":400:401  5 */\n      0x05\n        /* \"contracts/5_Arrays.sol\":392:402  numbers[5] */\n      dup2\n      sload\n      dup2\n      lt\n      tag_32\n      jumpi\n      tag_33\n      tag_34\n      jump\t// in\n    tag_33:\n    tag_32:\n      swap1\n      0x00\n      mstore\n      keccak256(0x00, 0x20)\n      swap1\n      0x10\n      swap2\n      dup3\n      dup3\n      div\n      add\n      swap2\n      swap1\n      mod\n      0x02\n      mul\n        /* \"contracts/5_Arrays.sol\":392:406  numbers[5] = 6 */\n      0x0100\n      exp\n      dup2\n      sload\n      dup2\n      0xffff\n      mul\n      not\n      and\n      swap1\n      dup4\n      0x01\n      signextend\n      0xffff\n      and\n      mul\n      or\n      swap1\n      sstore\n      pop\n        /* \"contracts/5_Arrays.sol\":503:510  numbers */\n      0x01\n        /* \"contracts/5_Arrays.sol\":511:512  3 */\n      0x03\n        /* \"contracts/5_Arrays.sol\":503:513  numbers[3] */\n      dup2\n      sload\n      dup2\n      lt\n      tag_36\n      jumpi\n      tag_37\n      tag_34\n      jump\t// in\n    tag_37:\n    tag_36:\n      swap1\n      0x00\n      mstore\n      keccak256(0x00, 0x20)\n      swap1\n      0x10\n      swap2\n      dup3\n      dup3\n      div\n      add\n      swap2\n      swap1\n      mod\n      0x02\n      mul\n        /* \"contracts/5_Arrays.sol\":496:513  delete numbers[3] */\n      0x0100\n      exp\n      dup2\n      sload\n      swap1\n      0xffff\n      mul\n      not\n      and\n      swap1\n      sstore\n        /* \"contracts/5_Arrays.sol\":542:549  numbers */\n      0x01\n        /* \"contracts/5_Arrays.sol\":542:555  numbers.pop() */\n      dup1\n      sload\n      dup1\n      tag_39\n      jumpi\n      tag_40\n      tag_41\n      jump\t// in\n    tag_40:\n    tag_39:\n      0x01\n      swap1\n      sub\n      dup2\n      dup2\n      swap1\n      0x00\n      mstore\n      keccak256(0x00, 0x20)\n      swap1\n      0x10\n      swap2\n      dup3\n      dup3\n      div\n      add\n      swap2\n      swap1\n      mod\n      0x02\n      mul\n      0x0100\n      exp\n      dup2\n      sload\n      swap1\n      0xffff\n      mul\n      not\n      and\n      swap1\n      sstore\n      swap1\n      sstore\n        /* \"contracts/5_Arrays.sol\":654:671  uint[] memory arr */\n      0x00\n        /* \"contracts/5_Arrays.sol\":685:686  5 */\n      0x05\n        /* \"contracts/5_Arrays.sol\":674:687  new uint[](5) */\n      0xffffffffffffffff\n      dup2\n      gt\n      iszero\n      tag_43\n      jumpi\n      tag_44\n      tag_45\n      jump\t// in\n    tag_44:\n    tag_43:\n      mload(0x40)\n      swap1\n      dup1\n      dup3\n      mstore\n      dup1\n      0x20\n      mul\n      0x20\n      add\n      dup3\n      add\n      0x40\n      mstore\n      dup1\n      iszero\n      tag_46\n      jumpi\n      dup2\n      0x20\n      add\n      0x20\n      dup3\n      mul\n      dup1\n      calldatasize\n      dup4\n      calldatacopy\n      dup1\n      dup3\n      add\n      swap2\n      pop\n      pop\n      swap1\n      pop\n    tag_46:\n      pop\n        /* \"contracts/5_Arrays.sol\":654:687  uint[] memory arr = new uint[](5) */\n      swap1\n      pop\n        /* \"contracts/5_Arrays.sol\":742:749  uint8 i */\n      0x00\n        /* \"contracts/5_Arrays.sol\":737:819  for (uint8 i=0; i<arr.length; i++) ... */\n    tag_47:\n        /* \"contracts/5_Arrays.sol\":755:758  arr */\n      dup2\n        /* \"contracts/5_Arrays.sol\":755:765  arr.length */\n      mload\n        /* \"contracts/5_Arrays.sol\":753:754  i */\n      dup2\n        /* \"contracts/5_Arrays.sol\":753:765  i<arr.length */\n      0xff\n      and\n      lt\n        /* \"contracts/5_Arrays.sol\":737:819  for (uint8 i=0; i<arr.length; i++) ... */\n      iszero\n      tag_48\n      jumpi\n        /* \"contracts/5_Arrays.sol\":806:807  i */\n      dup1\n        /* \"contracts/5_Arrays.sol\":797:807  arr[i] = i */\n      0xff\n      and\n        /* \"contracts/5_Arrays.sol\":797:800  arr */\n      dup3\n        /* \"contracts/5_Arrays.sol\":801:802  i */\n      dup3\n        /* \"contracts/5_Arrays.sol\":797:803  arr[i] */\n      0xff\n      and\n      dup2\n      mload\n      dup2\n      lt\n      tag_50\n      jumpi\n      tag_51\n      tag_34\n      jump\t// in\n    tag_51:\n    tag_50:\n      0x20\n      mul\n      0x20\n      add\n      add\n        /* \"contracts/5_Arrays.sol\":797:807  arr[i] = i */\n      dup2\n      dup2\n      mstore\n      pop\n      pop\n        /* \"contracts/5_Arrays.sol\":767:770  i++ */\n      dup1\n      dup1\n      tag_52\n      swap1\n      tag_53\n      jump\t// in\n    tag_52:\n      swap2\n      pop\n      pop\n        /* \"contracts/5_Arrays.sol\":737:819  for (uint8 i=0; i<arr.length; i++) ... */\n      jump(tag_47)\n    tag_48:\n      pop\n        /* \"contracts/5_Arrays.sol\":258:828  {... */\n      pop\n        /* \"contracts/5_Arrays.sol\":232:828  function example() public {... */\n      jump\t// out\n        /* \"#utility.yul\":7:82   */\n    tag_54:\n        /* \"#utility.yul\":40:46   */\n      0x00\n        /* \"#utility.yul\":73:75   */\n      0x40\n        /* \"#utility.yul\":67:76   */\n      mload\n        /* \"#utility.yul\":57:76   */\n      swap1\n      pop\n        /* \"#utility.yul\":7:82   */\n      swap1\n      jump\t// out\n        /* \"#utility.yul\":88:205   */\n    tag_55:\n        /* \"#utility.yul\":197:198   */\n      0x00\n        /* \"#utility.yul\":194:195   */\n      dup1\n        /* \"#utility.yul\":187:199   */\n      revert\n        /* \"#utility.yul\":211:328   */\n    tag_56:\n        /* \"#utility.yul\":320:321   */\n      0x00\n        /* \"#utility.yul\":317:318   */\n      dup1\n        /* \"#utility.yul\":310:322   */\n      revert\n        /* \"#utility.yul\":334:451   */\n    tag_57:\n        /* \"#utility.yul\":443:444   */\n      0x00\n        /* \"#utility.yul\":440:441   */\n      dup1\n        /* \"#utility.yul\":433:445   */\n      revert\n        /* \"#utility.yul\":457:574   */\n    tag_58:\n        /* \"#utility.yul\":566:567   */\n      0x00\n        /* \"#utility.yul\":563:564   */\n      dup1\n        /* \"#utility.yul\":556:568   */\n      revert\n        /* \"#utility.yul\":580:682   */\n    tag_59:\n        /* \"#utility.yul\":621:627   */\n      0x00\n        /* \"#utility.yul\":672:674   */\n      0x1f\n        /* \"#utility.yul\":668:675   */\n      not\n        /* \"#utility.yul\":663:665   */\n      0x1f\n        /* \"#utility.yul\":656:661   */\n      dup4\n        /* \"#utility.yul\":652:666   */\n      add\n        /* \"#utility.yul\":648:676   */\n      and\n        /* \"#utility.yul\":638:676   */\n      swap1\n      pop\n        /* \"#utility.yul\":580:682   */\n      swap2\n      swap1\n      pop\n      jump\t// out\n        /* \"#utility.yul\":688:868   */\n    tag_45:\n        /* \"#utility.yul\":736:813   */\n      0x4e487b7100000000000000000000000000000000000000000000000000000000\n        /* \"#utility.yul\":733:734   */\n      0x00\n        /* \"#utility.yul\":726:814   */\n      mstore\n        /* \"#utility.yul\":833:837   */\n      0x41\n        /* \"#utility.yul\":830:831   */\n      0x04\n        /* \"#utility.yul\":823:838   */\n      mstore\n        /* \"#utility.yul\":857:861   */\n      0x24\n        /* \"#utility.yul\":854:855   */\n      0x00\n        /* \"#utility.yul\":847:862   */\n      revert\n        /* \"#utility.yul\":874:1155   */\n    tag_60:\n        /* \"#utility.yul\":957:984   */\n      tag_104\n        /* \"#utility.yul\":979:983   */\n      dup3\n        /* \"#utility.yul\":957:984   */\n      tag_59\n      jump\t// in\n    tag_104:\n        /* \"#utility.yul\":949:955   */\n      dup2\n        /* \"#utility.yul\":945:985   */\n      add\n        /* \"#utility.yul\":1087:1093   */\n      dup2\n        /* \"#utility.yul\":1075:1085   */\n      dup2\n        /* \"#utility.yul\":1072:1094   */\n      lt\n        /* \"#utility.yul\":1051:1069   */\n      0xffffffffffffffff\n        /* \"#utility.yul\":1039:1049   */\n      dup3\n        /* \"#utility.yul\":1036:1070   */\n      gt\n        /* \"#utility.yul\":1033:1095   */\n      or\n        /* \"#utility.yul\":1030:1118   */\n      iszero\n      tag_105\n      jumpi\n        /* \"#utility.yul\":1098:1116   */\n      tag_106\n      tag_45\n      jump\t// in\n    tag_106:\n        /* \"#utility.yul\":1030:1118   */\n    tag_105:\n        /* \"#utility.yul\":1138:1148   */\n      dup1\n        /* \"#utility.yul\":1134:1136   */\n      0x40\n        /* \"#utility.yul\":1127:1149   */\n      mstore\n        /* \"#utility.yul\":917:1155   */\n      pop\n        /* \"#utility.yul\":874:1155   */\n      pop\n      pop\n      jump\t// out\n        /* \"#utility.yul\":1161:1290   */\n    tag_61:\n        /* \"#utility.yul\":1195:1201   */\n      0x00\n        /* \"#utility.yul\":1222:1242   */\n      tag_108\n      tag_54\n      jump\t// in\n    tag_108:\n        /* \"#utility.yul\":1212:1242   */\n      swap1\n      pop\n        /* \"#utility.yul\":1251:1284   */\n      tag_109\n        /* \"#utility.yul\":1279:1283   */\n      dup3\n        /* \"#utility.yul\":1271:1277   */\n      dup3\n        /* \"#utility.yul\":1251:1284   */\n      tag_60\n      jump\t// in\n    tag_109:\n        /* \"#utility.yul\":1161:1290   */\n      swap2\n      swap1\n      pop\n      jump\t// out\n        /* \"#utility.yul\":1296:1604   */\n    tag_62:\n        /* \"#utility.yul\":1358:1362   */\n      0x00\n        /* \"#utility.yul\":1448:1466   */\n      0xffffffffffffffff\n        /* \"#utility.yul\":1440:1446   */\n      dup3\n        /* \"#utility.yul\":1437:1467   */\n      gt\n        /* \"#utility.yul\":1434:1490   */\n      iszero\n      tag_111\n      jumpi\n        /* \"#utility.yul\":1470:1488   */\n      tag_112\n      tag_45\n      jump\t// in\n    tag_112:\n        /* \"#utility.yul\":1434:1490   */\n    tag_111:\n        /* \"#utility.yul\":1508:1537   */\n      tag_113\n        /* \"#utility.yul\":1530:1536   */\n      dup3\n        /* \"#utility.yul\":1508:1537   */\n      tag_59\n      jump\t// in\n    tag_113:\n        /* \"#utility.yul\":1500:1537   */\n      swap1\n      pop\n        /* \"#utility.yul\":1592:1596   */\n      0x20\n        /* \"#utility.yul\":1586:1590   */\n      dup2\n        /* \"#utility.yul\":1582:1597   */\n      add\n        /* \"#utility.yul\":1574:1597   */\n      swap1\n      pop\n        /* \"#utility.yul\":1296:1604   */\n      swap2\n      swap1\n      pop\n      jump\t// out\n        /* \"#utility.yul\":1610:1756   */\n    tag_63:\n        /* \"#utility.yul\":1707:1713   */\n      dup3\n        /* \"#utility.yul\":1702:1705   */\n      dup2\n        /* \"#utility.yul\":1697:1700   */\n      dup4\n        /* \"#utility.yul\":1684:1714   */\n      calldatacopy\n        /* \"#utility.yul\":1748:1749   */\n      0x00\n        /* \"#utility.yul\":1739:1745   */\n      dup4\n        /* \"#utility.yul\":1734:1737   */\n      dup4\n        /* \"#utility.yul\":1730:1746   */\n      add\n        /* \"#utility.yul\":1723:1750   */\n      mstore\n        /* \"#utility.yul\":1610:1756   */\n      pop\n      pop\n      pop\n      jump\t// out\n        /* \"#utility.yul\":1762:2187   */\n    tag_64:\n        /* \"#utility.yul\":1840:1845   */\n      0x00\n        /* \"#utility.yul\":1865:1931   */\n      tag_116\n        /* \"#utility.yul\":1881:1930   */\n      tag_117\n        /* \"#utility.yul\":1923:1929   */\n      dup5\n        /* \"#utility.yul\":1881:1930   */\n      tag_62\n      jump\t// in\n    tag_117:\n        /* \"#utility.yul\":1865:1931   */\n      tag_61\n      jump\t// in\n    tag_116:\n        /* \"#utility.yul\":1856:1931   */\n      swap1\n      pop\n        /* \"#utility.yul\":1954:1960   */\n      dup3\n        /* \"#utility.yul\":1947:1952   */\n      dup2\n        /* \"#utility.yul\":1940:1961   */\n      mstore\n        /* \"#utility.yul\":1992:1996   */\n      0x20\n        /* \"#utility.yul\":1985:1990   */\n      dup2\n        /* \"#utility.yul\":1981:1997   */\n      add\n        /* \"#utility.yul\":2030:2033   */\n      dup5\n        /* \"#utility.yul\":2021:2027   */\n      dup5\n        /* \"#utility.yul\":2016:2019   */\n      dup5\n        /* \"#utility.yul\":2012:2028   */\n      add\n        /* \"#utility.yul\":2009:2034   */\n      gt\n        /* \"#utility.yul\":2006:2118   */\n      iszero\n      tag_118\n      jumpi\n        /* \"#utility.yul\":2037:2116   */\n      tag_119\n      tag_58\n      jump\t// in\n    tag_119:\n        /* \"#utility.yul\":2006:2118   */\n    tag_118:\n        /* \"#utility.yul\":2127:2181   */\n      tag_120\n        /* \"#utility.yul\":2174:2180   */\n      dup5\n        /* \"#utility.yul\":2169:2172   */\n      dup3\n        /* \"#utility.yul\":2164:2167   */\n      dup6\n        /* \"#utility.yul\":2127:2181   */\n      tag_63\n      jump\t// in\n    tag_120:\n        /* \"#utility.yul\":1846:2187   */\n      pop\n        /* \"#utility.yul\":1762:2187   */\n      swap4\n      swap3\n      pop\n      pop\n      pop\n      jump\t// out\n        /* \"#utility.yul\":2207:2547   */\n    tag_65:\n        /* \"#utility.yul\":2263:2268   */\n      0x00\n        /* \"#utility.yul\":2312:2315   */\n      dup3\n        /* \"#utility.yul\":2305:2309   */\n      0x1f\n        /* \"#utility.yul\":2297:2303   */\n      dup4\n        /* \"#utility.yul\":2293:2310   */\n      add\n        /* \"#utility.yul\":2289:2316   */\n      slt\n        /* \"#utility.yul\":2279:2401   */\n      tag_122\n      jumpi\n        /* \"#utility.yul\":2320:2399   */\n      tag_123\n      tag_57\n      jump\t// in\n    tag_123:\n        /* \"#utility.yul\":2279:2401   */\n    tag_122:\n        /* \"#utility.yul\":2437:2443   */\n      dup2\n        /* \"#utility.yul\":2424:2444   */\n      calldataload\n        /* \"#utility.yul\":2462:2541   */\n      tag_124\n        /* \"#utility.yul\":2537:2540   */\n      dup5\n        /* \"#utility.yul\":2529:2535   */\n      dup3\n        /* \"#utility.yul\":2522:2526   */\n      0x20\n        /* \"#utility.yul\":2514:2520   */\n      dup7\n        /* \"#utility.yul\":2510:2527   */\n      add\n        /* \"#utility.yul\":2462:2541   */\n      tag_64\n      jump\t// in\n    tag_124:\n        /* \"#utility.yul\":2453:2541   */\n      swap2\n      pop\n        /* \"#utility.yul\":2269:2547   */\n      pop\n        /* \"#utility.yul\":2207:2547   */\n      swap3\n      swap2\n      pop\n      pop\n      jump\t// out\n        /* \"#utility.yul\":2553:3062   */\n    tag_8:\n        /* \"#utility.yul\":2622:2628   */\n      0x00\n        /* \"#utility.yul\":2671:2673   */\n      0x20\n        /* \"#utility.yul\":2659:2668   */\n      dup3\n        /* \"#utility.yul\":2650:2657   */\n      dup5\n        /* \"#utility.yul\":2646:2669   */\n      sub\n        /* \"#utility.yul\":2642:2674   */\n      slt\n        /* \"#utility.yul\":2639:2758   */\n      iszero\n      tag_126\n      jumpi\n        /* \"#utility.yul\":2677:2756   */\n      tag_127\n      tag_55\n      jump\t// in\n    tag_127:\n        /* \"#utility.yul\":2639:2758   */\n    tag_126:\n        /* \"#utility.yul\":2825:2826   */\n      0x00\n        /* \"#utility.yul\":2814:2823   */\n      dup3\n        /* \"#utility.yul\":2810:2827   */\n      add\n        /* \"#utility.yul\":2797:2828   */\n      calldataload\n        /* \"#utility.yul\":2855:2873   */\n      0xffffffffffffffff\n        /* \"#utility.yul\":2847:2853   */\n      dup2\n        /* \"#utility.yul\":2844:2874   */\n      gt\n        /* \"#utility.yul\":2841:2958   */\n      iszero\n      tag_128\n      jumpi\n        /* \"#utility.yul\":2877:2956   */\n      tag_129\n      tag_56\n      jump\t// in\n    tag_129:\n        /* \"#utility.yul\":2841:2958   */\n    tag_128:\n        /* \"#utility.yul\":2982:3045   */\n      tag_130\n        /* \"#utility.yul\":3037:3044   */\n      dup5\n        /* \"#utility.yul\":3028:3034   */\n      dup3\n        /* \"#utility.yul\":3017:3026   */\n      dup6\n        /* \"#utility.yul\":3013:3035   */\n      add\n        /* \"#utility.yul\":2982:3045   */\n      tag_65\n      jump\t// in\n    tag_130:\n        /* \"#utility.yul\":2972:3045   */\n      swap2\n      pop\n        /* \"#utility.yul\":2768:3055   */\n      pop\n        /* \"#utility.yul\":2553:3062   */\n      swap3\n      swap2\n      pop\n      pop\n      jump\t// out\n        /* \"#utility.yul\":3068:3192   */\n    tag_66:\n        /* \"#utility.yul\":3145:3151   */\n      0x00\n        /* \"#utility.yul\":3179:3184   */\n      dup2\n        /* \"#utility.yul\":3173:3185   */\n      mload\n        /* \"#utility.yul\":3163:3185   */\n      swap1\n      pop\n        /* \"#utility.yul\":3068:3192   */\n      swap2\n      swap1\n      pop\n      jump\t// out\n        /* \"#utility.yul\":3198:3392   */\n    tag_67:\n        /* \"#utility.yul\":3307:3318   */\n      0x00\n        /* \"#utility.yul\":3341:3347   */\n      dup3\n        /* \"#utility.yul\":3336:3339   */\n      dup3\n        /* \"#utility.yul\":3329:3348   */\n      mstore\n        /* \"#utility.yul\":3381:3385   */\n      0x20\n        /* \"#utility.yul\":3376:3379   */\n      dup3\n        /* \"#utility.yul\":3372:3386   */\n      add\n        /* \"#utility.yul\":3357:3386   */\n      swap1\n      pop\n        /* \"#utility.yul\":3198:3392   */\n      swap3\n      swap2\n      pop\n      pop\n      jump\t// out\n        /* \"#utility.yul\":3398:3540   */\n    tag_68:\n        /* \"#utility.yul\":3475:3479   */\n      0x00\n        /* \"#utility.yul\":3498:3501   */\n      dup2\n        /* \"#utility.yul\":3490:3501   */\n      swap1\n      pop\n        /* \"#utility.yul\":3528:3532   */\n      0x20\n        /* \"#utility.yul\":3523:3526   */\n      dup3\n        /* \"#utility.yul\":3519:3533   */\n      add\n        /* \"#utility.yul\":3511:3533   */\n      swap1\n      pop\n        /* \"#utility.yul\":3398:3540   */\n      swap2\n      swap1\n      pop\n      jump\t// out\n        /* \"#utility.yul\":3546:3645   */\n    tag_69:\n        /* \"#utility.yul\":3598:3604   */\n      0x00\n        /* \"#utility.yul\":3632:3637   */\n      dup2\n        /* \"#utility.yul\":3626:3638   */\n      mload\n        /* \"#utility.yul\":3616:3638   */\n      swap1\n      pop\n        /* \"#utility.yul\":3546:3645   */\n      swap2\n      swap1\n      pop\n      jump\t// out\n        /* \"#utility.yul\":3651:3810   */\n    tag_70:\n        /* \"#utility.yul\":3725:3736   */\n      0x00\n        /* \"#utility.yul\":3759:3765   */\n      dup3\n        /* \"#utility.yul\":3754:3757   */\n      dup3\n        /* \"#utility.yul\":3747:3766   */\n      mstore\n        /* \"#utility.yul\":3799:3803   */\n      0x20\n        /* \"#utility.yul\":3794:3797   */\n      dup3\n        /* \"#utility.yul\":3790:3804   */\n      add\n        /* \"#utility.yul\":3775:3804   */\n      swap1\n      pop\n        /* \"#utility.yul\":3651:3810   */\n      swap3\n      swap2\n      pop\n      pop\n      jump\t// out\n        /* \"#utility.yul\":3816:4062   */\n    tag_71:\n        /* \"#utility.yul\":3897:3898   */\n      0x00\n        /* \"#utility.yul\":3907:4020   */\n    tag_137:\n        /* \"#utility.yul\":3921:3927   */\n      dup4\n        /* \"#utility.yul\":3918:3919   */\n      dup2\n        /* \"#utility.yul\":3915:3928   */\n      lt\n        /* \"#utility.yul\":3907:4020   */\n      iszero\n      tag_139\n      jumpi\n        /* \"#utility.yul\":4006:4007   */\n      dup1\n        /* \"#utility.yul\":4001:4004   */\n      dup3\n        /* \"#utility.yul\":3997:4008   */\n      add\n        /* \"#utility.yul\":3991:4009   */\n      mload\n        /* \"#utility.yul\":3987:3988   */\n      dup2\n        /* \"#utility.yul\":3982:3985   */\n      dup5\n        /* \"#utility.yul\":3978:3989   */\n      add\n        /* \"#utility.yul\":3971:4010   */\n      mstore\n        /* \"#utility.yul\":3943:3945   */\n      0x20\n        /* \"#utility.yul\":3940:3941   */\n      dup2\n        /* \"#utility.yul\":3936:3946   */\n      add\n        /* \"#utility.yul\":3931:3946   */\n      swap1\n      pop\n        /* \"#utility.yul\":3907:4020   */\n      jump(tag_137)\n    tag_139:\n        /* \"#utility.yul\":4054:4055   */\n      0x00\n        /* \"#utility.yul\":4045:4051   */\n      dup5\n        /* \"#utility.yul\":4040:4043   */\n      dup5\n        /* \"#utility.yul\":4036:4052   */\n      add\n        /* \"#utility.yul\":4029:4056   */\n      mstore\n        /* \"#utility.yul\":3878:4062   */\n      pop\n        /* \"#utility.yul\":3816:4062   */\n      pop\n      pop\n      pop\n      jump\t// out\n        /* \"#utility.yul\":4068:4425   */\n    tag_72:\n        /* \"#utility.yul\":4146:4149   */\n      0x00\n        /* \"#utility.yul\":4174:4213   */\n      tag_141\n        /* \"#utility.yul\":4207:4212   */\n      dup3\n        /* \"#utility.yul\":4174:4213   */\n      tag_69\n      jump\t// in\n    tag_141:\n        /* \"#utility.yul\":4229:4290   */\n      tag_142\n        /* \"#utility.yul\":4283:4289   */\n      dup2\n        /* \"#utility.yul\":4278:4281   */\n      dup6\n        /* \"#utility.yul\":4229:4290   */\n      tag_70\n      jump\t// in\n    tag_142:\n        /* \"#utility.yul\":4222:4290   */\n      swap4\n      pop\n        /* \"#utility.yul\":4299:4364   */\n      tag_143\n        /* \"#utility.yul\":4357:4363   */\n      dup2\n        /* \"#utility.yul\":4352:4355   */\n      dup6\n        /* \"#utility.yul\":4345:4349   */\n      0x20\n        /* \"#utility.yul\":4338:4343   */\n      dup7\n        /* \"#utility.yul\":4334:4350   */\n      add\n        /* \"#utility.yul\":4299:4364   */\n      tag_71\n      jump\t// in\n    tag_143:\n        /* \"#utility.yul\":4389:4418   */\n      tag_144\n        /* \"#utility.yul\":4411:4417   */\n      dup2\n        /* \"#utility.yul\":4389:4418   */\n      tag_59\n      jump\t// in\n    tag_144:\n        /* \"#utility.yul\":4384:4387   */\n      dup5\n        /* \"#utility.yul\":4380:4419   */\n      add\n        /* \"#utility.yul\":4373:4419   */\n      swap2\n      pop\n        /* \"#utility.yul\":4150:4425   */\n      pop\n        /* \"#utility.yul\":4068:4425   */\n      swap3\n      swap2\n      pop\n      pop\n      jump\t// out\n        /* \"#utility.yul\":4431:4627   */\n    tag_73:\n        /* \"#utility.yul\":4520:4530   */\n      0x00\n        /* \"#utility.yul\":4555:4621   */\n      tag_146\n        /* \"#utility.yul\":4617:4620   */\n      dup4\n        /* \"#utility.yul\":4609:4615   */\n      dup4\n        /* \"#utility.yul\":4555:4621   */\n      tag_72\n      jump\t// in\n    tag_146:\n        /* \"#utility.yul\":4541:4621   */\n      swap1\n      pop\n        /* \"#utility.yul\":4431:4627   */\n      swap3\n      swap2\n      pop\n      pop\n      jump\t// out\n        /* \"#utility.yul\":4633:4756   */\n    tag_74:\n        /* \"#utility.yul\":4713:4717   */\n      0x00\n        /* \"#utility.yul\":4745:4749   */\n      0x20\n        /* \"#utility.yul\":4740:4743   */\n      dup3\n        /* \"#utility.yul\":4736:4750   */\n      add\n        /* \"#utility.yul\":4728:4750   */\n      swap1\n      pop\n        /* \"#utility.yul\":4633:4756   */\n      swap2\n      swap1\n      pop\n      jump\t// out\n        /* \"#utility.yul\":4790:5781   */\n    tag_75:\n        /* \"#utility.yul\":4929:4932   */\n      0x00\n        /* \"#utility.yul\":4958:5022   */\n      tag_149\n        /* \"#utility.yul\":5016:5021   */\n      dup3\n        /* \"#utility.yul\":4958:5022   */\n      tag_66\n      jump\t// in\n    tag_149:\n        /* \"#utility.yul\":5038:5134   */\n      tag_150\n        /* \"#utility.yul\":5127:5133   */\n      dup2\n        /* \"#utility.yul\":5122:5125   */\n      dup6\n        /* \"#utility.yul\":5038:5134   */\n      tag_67\n      jump\t// in\n    tag_150:\n        /* \"#utility.yul\":5031:5134   */\n      swap4\n      pop\n        /* \"#utility.yul\":5160:5163   */\n      dup4\n        /* \"#utility.yul\":5205:5209   */\n      0x20\n        /* \"#utility.yul\":5197:5203   */\n      dup3\n        /* \"#utility.yul\":5193:5210   */\n      mul\n        /* \"#utility.yul\":5188:5191   */\n      dup6\n        /* \"#utility.yul\":5184:5211   */\n      add\n        /* \"#utility.yul\":5235:5301   */\n      tag_151\n        /* \"#utility.yul\":5295:5300   */\n      dup6\n        /* \"#utility.yul\":5235:5301   */\n      tag_68\n      jump\t// in\n    tag_151:\n        /* \"#utility.yul\":5324:5331   */\n      dup1\n        /* \"#utility.yul\":5355:5356   */\n      0x00\n        /* \"#utility.yul\":5340:5736   */\n    tag_152:\n        /* \"#utility.yul\":5365:5371   */\n      dup6\n        /* \"#utility.yul\":5362:5363   */\n      dup2\n        /* \"#utility.yul\":5359:5372   */\n      lt\n        /* \"#utility.yul\":5340:5736   */\n      iszero\n      tag_154\n      jumpi\n        /* \"#utility.yul\":5436:5445   */\n      dup5\n        /* \"#utility.yul\":5430:5434   */\n      dup5\n        /* \"#utility.yul\":5426:5446   */\n      sub\n        /* \"#utility.yul\":5421:5424   */\n      dup10\n        /* \"#utility.yul\":5414:5447   */\n      mstore\n        /* \"#utility.yul\":5487:5493   */\n      dup2\n        /* \"#utility.yul\":5481:5494   */\n      mload\n        /* \"#utility.yul\":5515:5599   */\n      tag_155\n        /* \"#utility.yul\":5594:5598   */\n      dup6\n        /* \"#utility.yul\":5579:5592   */\n      dup3\n        /* \"#utility.yul\":5515:5599   */\n      tag_73\n      jump\t// in\n    tag_155:\n        /* \"#utility.yul\":5507:5599   */\n      swap5\n      pop\n        /* \"#utility.yul\":5622:5692   */\n      tag_156\n        /* \"#utility.yul\":5685:5691   */\n      dup4\n        /* \"#utility.yul\":5622:5692   */\n      tag_74\n      jump\t// in\n    tag_156:\n        /* \"#utility.yul\":5612:5692   */\n      swap3\n      pop\n        /* \"#utility.yul\":5721:5725   */\n      0x20\n        /* \"#utility.yul\":5716:5719   */\n      dup11\n        /* \"#utility.yul\":5712:5726   */\n      add\n        /* \"#utility.yul\":5705:5726   */\n      swap10\n      pop\n        /* \"#utility.yul\":5400:5736   */\n      pop\n        /* \"#utility.yul\":5387:5388   */\n      0x01\n        /* \"#utility.yul\":5384:5385   */\n      dup2\n        /* \"#utility.yul\":5380:5389   */\n      add\n        /* \"#utility.yul\":5375:5389   */\n      swap1\n      pop\n        /* \"#utility.yul\":5340:5736   */\n      jump(tag_152)\n    tag_154:\n        /* \"#utility.yul\":5344:5358   */\n      pop\n        /* \"#utility.yul\":5752:5756   */\n      dup3\n        /* \"#utility.yul\":5745:5756   */\n      swap8\n      pop\n        /* \"#utility.yul\":5772:5775   */\n      dup8\n        /* \"#utility.yul\":5765:5775   */\n      swap6\n      pop\n        /* \"#utility.yul\":4934:5781   */\n      pop\n      pop\n      pop\n      pop\n      pop\n        /* \"#utility.yul\":4790:5781   */\n      swap3\n      swap2\n      pop\n      pop\n      jump\t// out\n        /* \"#utility.yul\":5787:6200   */\n    tag_13:\n        /* \"#utility.yul\":5950:5954   */\n      0x00\n        /* \"#utility.yul\":5988:5990   */\n      0x20\n        /* \"#utility.yul\":5977:5986   */\n      dup3\n        /* \"#utility.yul\":5973:5991   */\n      add\n        /* \"#utility.yul\":5965:5991   */\n      swap1\n      pop\n        /* \"#utility.yul\":6037:6046   */\n      dup2\n        /* \"#utility.yul\":6031:6035   */\n      dup2\n        /* \"#utility.yul\":6027:6047   */\n      sub\n        /* \"#utility.yul\":6023:6024   */\n      0x00\n        /* \"#utility.yul\":6012:6021   */\n      dup4\n        /* \"#utility.yul\":6008:6025   */\n      add\n        /* \"#utility.yul\":6001:6048   */\n      mstore\n        /* \"#utility.yul\":6065:6193   */\n      tag_158\n        /* \"#utility.yul\":6188:6192   */\n      dup2\n        /* \"#utility.yul\":6179:6185   */\n      dup5\n        /* \"#utility.yul\":6065:6193   */\n      tag_75\n      jump\t// in\n    tag_158:\n        /* \"#utility.yul\":6057:6193   */\n      swap1\n      pop\n        /* \"#utility.yul\":5787:6200   */\n      swap3\n      swap2\n      pop\n      pop\n      jump\t// out\n        /* \"#utility.yul\":6206:6386   */\n    tag_76:\n        /* \"#utility.yul\":6254:6331   */\n      0x4e487b7100000000000000000000000000000000000000000000000000000000\n        /* \"#utility.yul\":6251:6252   */\n      0x00\n        /* \"#utility.yul\":6244:6332   */\n      mstore\n        /* \"#utility.yul\":6351:6355   */\n      0x22\n        /* \"#utility.yul\":6348:6349   */\n      0x04\n        /* \"#utility.yul\":6341:6356   */\n      mstore\n        /* \"#utility.yul\":6375:6379   */\n      0x24\n        /* \"#utility.yul\":6372:6373   */\n      0x00\n        /* \"#utility.yul\":6365:6380   */\n      revert\n        /* \"#utility.yul\":6392:6712   */\n    tag_25:\n        /* \"#utility.yul\":6436:6442   */\n      0x00\n        /* \"#utility.yul\":6473:6474   */\n      0x02\n        /* \"#utility.yul\":6467:6471   */\n      dup3\n        /* \"#utility.yul\":6463:6475   */\n      div\n        /* \"#utility.yul\":6453:6475   */\n      swap1\n      pop\n        /* \"#utility.yul\":6520:6521   */\n      0x01\n        /* \"#utility.yul\":6514:6518   */\n      dup3\n        /* \"#utility.yul\":6510:6522   */\n      and\n        /* \"#utility.yul\":6541:6559   */\n      dup1\n        /* \"#utility.yul\":6531:6612   */\n      tag_161\n      jumpi\n        /* \"#utility.yul\":6597:6601   */\n      0x7f\n        /* \"#utility.yul\":6589:6595   */\n      dup3\n        /* \"#utility.yul\":6585:6602   */\n      and\n        /* \"#utility.yul\":6575:6602   */\n      swap2\n      pop\n        /* \"#utility.yul\":6531:6612   */\n    tag_161:\n        /* \"#utility.yul\":6659:6661   */\n      0x20\n        /* \"#utility.yul\":6651:6657   */\n      dup3\n        /* \"#utility.yul\":6648:6662   */\n      lt\n        /* \"#utility.yul\":6628:6646   */\n      dup2\n        /* \"#utility.yul\":6625:6663   */\n      sub\n        /* \"#utility.yul\":6622:6706   */\n      tag_162\n      jumpi\n        /* \"#utility.yul\":6678:6696   */\n      tag_163\n      tag_76\n      jump\t// in\n    tag_163:\n        /* \"#utility.yul\":6622:6706   */\n    tag_162:\n        /* \"#utility.yul\":6443:6712   */\n      pop\n        /* \"#utility.yul\":6392:6712   */\n      swap2\n      swap1\n      pop\n      jump\t// out\n        /* \"#utility.yul\":6718:6859   */\n    tag_77:\n        /* \"#utility.yul\":6767:6771   */\n      0x00\n        /* \"#utility.yul\":6790:6793   */\n      dup2\n        /* \"#utility.yul\":6782:6793   */\n      swap1\n      pop\n        /* \"#utility.yul\":6813:6816   */\n      dup2\n        /* \"#utility.yul\":6810:6811   */\n      0x00\n        /* \"#utility.yul\":6803:6817   */\n      mstore\n        /* \"#utility.yul\":6847:6851   */\n      0x20\n        /* \"#utility.yul\":6844:6845   */\n      0x00\n        /* \"#utility.yul\":6834:6852   */\n      keccak256\n        /* \"#utility.yul\":6826:6852   */\n      swap1\n      pop\n        /* \"#utility.yul\":6718:6859   */\n      swap2\n      swap1\n      pop\n      jump\t// out\n        /* \"#utility.yul\":6865:6958   */\n    tag_78:\n        /* \"#utility.yul\":6902:6908   */\n      0x00\n        /* \"#utility.yul\":6949:6951   */\n      0x20\n        /* \"#utility.yul\":6944:6946   */\n      0x1f\n        /* \"#utility.yul\":6937:6942   */\n      dup4\n        /* \"#utility.yul\":6933:6947   */\n      add\n        /* \"#utility.yul\":6929:6952   */\n      div\n        /* \"#utility.yul\":6919:6952   */\n      swap1\n      pop\n        /* \"#utility.yul\":6865:6958   */\n      swap2\n      swap1\n      pop\n      jump\t// out\n        /* \"#utility.yul\":6964:7071   */\n    tag_79:\n        /* \"#utility.yul\":7008:7016   */\n      0x00\n        /* \"#utility.yul\":7058:7063   */\n      dup3\n        /* \"#utility.yul\":7052:7056   */\n      dup3\n        /* \"#utility.yul\":7048:7064   */\n      shl\n        /* \"#utility.yul\":7027:7064   */\n      swap1\n      pop\n        /* \"#utility.yul\":6964:7071   */\n      swap3\n      swap2\n      pop\n      pop\n      jump\t// out\n        /* \"#utility.yul\":7077:7470   */\n    tag_80:\n        /* \"#utility.yul\":7146:7152   */\n      0x00\n        /* \"#utility.yul\":7196:7197   */\n      0x08\n        /* \"#utility.yul\":7184:7194   */\n      dup4\n        /* \"#utility.yul\":7180:7198   */\n      mul\n        /* \"#utility.yul\":7219:7316   */\n      tag_168\n        /* \"#utility.yul\":7249:7315   */\n      0xffffffffffffffffffffffffffffffffffffffffffffffffffffffffffffffff\n        /* \"#utility.yul\":7238:7247   */\n      dup3\n        /* \"#utility.yul\":7219:7316   */\n      tag_79\n      jump\t// in\n    tag_168:\n        /* \"#utility.yul\":7337:7376   */\n      tag_169\n        /* \"#utility.yul\":7367:7375   */\n      dup7\n        /* \"#utility.yul\":7356:7365   */\n      dup4\n        /* \"#utility.yul\":7337:7376   */\n      tag_79\n      jump\t// in\n    tag_169:\n        /* \"#utility.yul\":7325:7376   */\n      swap6\n      pop\n        /* \"#utility.yul\":7409:7413   */\n      dup1\n        /* \"#utility.yul\":7405:7414   */\n      not\n        /* \"#utility.yul\":7398:7403   */\n      dup5\n        /* \"#utility.yul\":7394:7415   */\n      and\n        /* \"#utility.yul\":7385:7415   */\n      swap4\n      pop\n        /* \"#utility.yul\":7458:7462   */\n      dup1\n        /* \"#utility.yul\":7448:7456   */\n      dup7\n        /* \"#utility.yul\":7444:7463   */\n      and\n        /* \"#utility.yul\":7437:7442   */\n      dup5\n        /* \"#utility.yul\":7434:7464   */\n      or\n        /* \"#utility.yul\":7424:7464   */\n      swap3\n      pop\n        /* \"#utility.yul\":7153:7470   */\n      pop\n      pop\n        /* \"#utility.yul\":7077:7470   */\n      swap4\n      swap3\n      pop\n      pop\n      pop\n      jump\t// out\n        /* \"#utility.yul\":7476:7553   */\n    tag_81:\n        /* \"#utility.yul\":7513:7520   */\n      0x00\n        /* \"#utility.yul\":7542:7547   */\n      dup2\n        /* \"#utility.yul\":7531:7547   */\n      swap1\n      pop\n        /* \"#utility.yul\":7476:7553   */\n      swap2\n      swap1\n      pop\n      jump\t// out\n        /* \"#utility.yul\":7559:7619   */\n    tag_82:\n        /* \"#utility.yul\":7587:7590   */\n      0x00\n        /* \"#utility.yul\":7608:7613   */\n      dup2\n        /* \"#utility.yul\":7601:7613   */\n      swap1\n      pop\n        /* \"#utility.yul\":7559:7619   */\n      swap2\n      swap1\n      pop\n      jump\t// out\n        /* \"#utility.yul\":7625:7767   */\n    tag_83:\n        /* \"#utility.yul\":7675:7684   */\n      0x00\n        /* \"#utility.yul\":7708:7761   */\n      tag_173\n        /* \"#utility.yul\":7726:7760   */\n      tag_174\n        /* \"#utility.yul\":7735:7759   */\n      tag_175\n        /* \"#utility.yul\":7753:7758   */\n      dup5\n        /* \"#utility.yul\":7735:7759   */\n      tag_81\n      jump\t// in\n    tag_175:\n        /* \"#utility.yul\":7726:7760   */\n      tag_82\n      jump\t// in\n    tag_174:\n        /* \"#utility.yul\":7708:7761   */\n      tag_81\n      jump\t// in\n    tag_173:\n        /* \"#utility.yul\":7695:7761   */\n      swap1\n      pop\n        /* \"#utility.yul\":7625:7767   */\n      swap2\n      swap1\n      pop\n      jump\t// out\n        /* \"#utility.yul\":7773:7848   */\n    tag_84:\n        /* \"#utility.yul\":7816:7819   */\n      0x00\n        /* \"#utility.yul\":7837:7842   */\n      dup2\n        /* \"#utility.yul\":7830:7842   */\n      swap1\n      pop\n        /* \"#utility.yul\":7773:7848   */\n      swap2\n      swap1\n      pop\n      jump\t// out\n        /* \"#utility.yul\":7854:8123   */\n    tag_85:\n        /* \"#utility.yul\":7964:8003   */\n      tag_178\n        /* \"#utility.yul\":7995:8002   */\n      dup4\n        /* \"#utility.yul\":7964:8003   */\n      tag_83\n      jump\t// in\n    tag_178:\n        /* \"#utility.yul\":8025:8116   */\n      tag_179\n        /* \"#utility.yul\":8074:8115   */\n      tag_180\n        /* \"#utility.yul\":8098:8114   */\n      dup3\n        /* \"#utility.yul\":8074:8115   */\n      tag_84\n      jump\t// in\n    tag_180:\n        /* \"#utility.yul\":8066:8072   */\n      dup5\n        /* \"#utility.yul\":8059:8063   */\n      dup5\n        /* \"#utility.yul\":8053:8064   */\n      sload\n        /* \"#utility.yul\":8025:8116   */\n      tag_80\n      jump\t// in\n    tag_179:\n        /* \"#utility.yul\":8019:8023   */\n      dup3\n        /* \"#utility.yul\":8012:8117   */\n      sstore\n        /* \"#utility.yul\":7930:8123   */\n      pop\n        /* \"#utility.yul\":7854:8123   */\n      pop\n      pop\n      pop\n      jump\t// out\n        /* \"#utility.yul\":8129:8202   */\n    tag_86:\n        /* \"#utility.yul\":8174:8177   */\n      0x00\n        /* \"#utility.yul\":8129:8202   */\n      swap1\n      jump\t// out\n        /* \"#utility.yul\":8208:8397   */\n    tag_87:\n        /* \"#utility.yul\":8285:8317   */\n      tag_183\n      tag_86\n      jump\t// in\n    tag_183:\n        /* \"#utility.yul\":8326:8391   */\n      tag_184\n        /* \"#utility.yul\":8384:8390   */\n      dup2\n        /* \"#utility.yul\":8376:8382   */\n      dup5\n        /* \"#utility.yul\":8370:8374   */\n      dup5\n        /* \"#utility.yul\":8326:8391   */\n      tag_85\n      jump\t// in\n    tag_184:\n        /* \"#utility.yul\":8261:8397   */\n      pop\n        /* \"#utility.yul\":8208:8397   */\n      pop\n      pop\n      jump\t// out\n        /* \"#utility.yul\":8403:8589   */\n    tag_88:\n        /* \"#utility.yul\":8463:8583   */\n    tag_186:\n        /* \"#utility.yul\":8480:8483   */\n      dup2\n        /* \"#utility.yul\":8473:8478   */\n      dup2\n        /* \"#utility.yul\":8470:8484   */\n      lt\n        /* \"#utility.yul\":8463:8583   */\n      iszero\n      tag_188\n      jumpi\n        /* \"#utility.yul\":8534:8573   */\n      tag_189\n        /* \"#utility.yul\":8571:8572   */\n      0x00\n        /* \"#utility.yul\":8564:8569   */\n      dup3\n        /* \"#utility.yul\":8534:8573   */\n      tag_87\n      jump\t// in\n    tag_189:\n        /* \"#utility.yul\":8507:8508   */\n      0x01\n        /* \"#utility.yul\":8500:8505   */\n      dup2\n        /* \"#utility.yul\":8496:8509   */\n      add\n        /* \"#utility.yul\":8487:8509   */\n      swap1\n      pop\n        /* \"#utility.yul\":8463:8583   */\n      jump(tag_186)\n    tag_188:\n        /* \"#utility.yul\":8403:8589   */\n      pop\n      pop\n      jump\t// out\n        /* \"#utility.yul\":8595:9138   */\n    tag_89:\n        /* \"#utility.yul\":8696:8698   */\n      0x1f\n        /* \"#utility.yul\":8691:8694   */\n      dup3\n        /* \"#utility.yul\":8688:8699   */\n      gt\n        /* \"#utility.yul\":8685:9131   */\n      iszero\n      tag_191\n      jumpi\n        /* \"#utility.yul\":8730:8768   */\n      tag_192\n        /* \"#utility.yul\":8762:8767   */\n      dup2\n        /* \"#utility.yul\":8730:8768   */\n      tag_77\n      jump\t// in\n    tag_192:\n        /* \"#utility.yul\":8814:8843   */\n      tag_193\n        /* \"#utility.yul\":8832:8842   */\n      dup5\n        /* \"#utility.yul\":8814:8843   */\n      tag_78\n      jump\t// in\n    tag_193:\n        /* \"#utility.yul\":8804:8812   */\n      dup2\n        /* \"#utility.yul\":8800:8844   */\n      add\n        /* \"#utility.yul\":8997:8999   */\n      0x20\n        /* \"#utility.yul\":8985:8995   */\n      dup6\n        /* \"#utility.yul\":8982:9000   */\n      lt\n        /* \"#utility.yul\":8979:9028   */\n      iszero\n      tag_194\n      jumpi\n        /* \"#utility.yul\":9018:9026   */\n      dup2\n        /* \"#utility.yul\":9003:9026   */\n      swap1\n      pop\n        /* \"#utility.yul\":8979:9028   */\n    tag_194:\n        /* \"#utility.yul\":9041:9121   */\n      tag_195\n        /* \"#utility.yul\":9097:9119   */\n      tag_196\n        /* \"#utility.yul\":9115:9118   */\n      dup6\n        /* \"#utility.yul\":9097:9119   */\n      tag_78\n      jump\t// in\n    tag_196:\n        /* \"#utility.yul\":9087:9095   */\n      dup4\n        /* \"#utility.yul\":9083:9120   */\n      add\n        /* \"#utility.yul\":9070:9081   */\n      dup3\n        /* \"#utility.yul\":9041:9121   */\n      tag_88\n      jump\t// in\n    tag_195:\n        /* \"#utility.yul\":8700:9131   */\n      pop\n      pop\n        /* \"#utility.yul\":8685:9131   */\n    tag_191:\n        /* \"#utility.yul\":8595:9138   */\n      pop\n      pop\n      pop\n      jump\t// out\n        /* \"#utility.yul\":9144:9261   */\n    tag_90:\n        /* \"#utility.yul\":9198:9206   */\n      0x00\n        /* \"#utility.yul\":9248:9253   */\n      dup3\n        /* \"#utility.yul\":9242:9246   */\n      dup3\n        /* \"#utility.yul\":9238:9254   */\n      shr\n        /* \"#utility.yul\":9217:9254   */\n      swap1\n      pop\n        /* \"#utility.yul\":9144:9261   */\n      swap3\n      swap2\n      pop\n      pop\n      jump\t// out\n        /* \"#utility.yul\":9267:9436   */\n    tag_91:\n        /* \"#utility.yul\":9311:9317   */\n      0x00\n        /* \"#utility.yul\":9344:9395   */\n      tag_199\n        /* \"#utility.yul\":9392:9393   */\n      0x00\n        /* \"#utility.yul\":9388:9394   */\n      not\n        /* \"#utility.yul\":9380:9385   */\n      dup5\n        /* \"#utility.yul\":9377:9378   */\n      0x08\n        /* \"#utility.yul\":9373:9386   */\n      mul\n        /* \"#utility.yul\":9344:9395   */\n      tag_90\n      jump\t// in\n    tag_199:\n        /* \"#utility.yul\":9340:9396   */\n      not\n        /* \"#utility.yul\":9425:9429   */\n      dup1\n        /* \"#utility.yul\":9419:9423   */\n      dup4\n        /* \"#utility.yul\":9415:9430   */\n      and\n        /* \"#utility.yul\":9405:9430   */\n      swap2\n      pop\n        /* \"#utility.yul\":9318:9436   */\n      pop\n        /* \"#utility.yul\":9267:9436   */\n      swap3\n      swap2\n      pop\n      pop\n      jump\t// out\n        /* \"#utility.yul\":9441:9736   */\n    tag_92:\n        /* \"#utility.yul\":9517:9521   */\n      0x00\n        /* \"#utility.yul\":9663:9692   */\n      tag_201\n        /* \"#utility.yul\":9688:9691   */\n      dup4\n        /* \"#utility.yul\":9682:9686   */\n      dup4\n        /* \"#utility.yul\":9663:9692   */\n      tag_91\n      jump\t// in\n    tag_201:\n        /* \"#utility.yul\":9655:9692   */\n      swap2\n      pop\n        /* \"#utility.yul\":9725:9728   */\n      dup3\n        /* \"#utility.yul\":9722:9723   */\n      0x02\n        /* \"#utility.yul\":9718:9729   */\n      mul\n        /* \"#utility.yul\":9712:9716   */\n      dup3\n        /* \"#utility.yul\":9709:9730   */\n      or\n        /* \"#utility.yul\":9701:9730   */\n      swap1\n      pop\n        /* \"#utility.yul\":9441:9736   */\n      swap3\n      swap2\n      pop\n      pop\n      jump\t// out\n        /* \"#utility.yul\":9741:11136   */\n    tag_19:\n        /* \"#utility.yul\":9858:9895   */\n      tag_203\n        /* \"#utility.yul\":9891:9894   */\n      dup3\n        /* \"#utility.yul\":9858:9895   */\n      tag_69\n      jump\t// in\n    tag_203:\n        /* \"#utility.yul\":9960:9978   */\n      0xffffffffffffffff\n        /* \"#utility.yul\":9952:9958   */\n      dup2\n        /* \"#utility.yul\":9949:9979   */\n      gt\n        /* \"#utility.yul\":9946:10002   */\n      iszero\n      tag_204\n      jumpi\n        /* \"#utility.yul\":9982:10000   */\n      tag_205\n      tag_45\n      jump\t// in\n    tag_205:\n        /* \"#utility.yul\":9946:10002   */\n    tag_204:\n        /* \"#utility.yul\":10026:10064   */\n      tag_206\n        /* \"#utility.yul\":10058:10062   */\n      dup3\n        /* \"#utility.yul\":10052:10063   */\n      sload\n        /* \"#utility.yul\":10026:10064   */\n      tag_25\n      jump\t// in\n    tag_206:\n        /* \"#utility.yul\":10111:10178   */\n      tag_207\n        /* \"#utility.yul\":10171:10177   */\n      dup3\n        /* \"#utility.yul\":10163:10169   */\n      dup3\n        /* \"#utility.yul\":10157:10161   */\n      dup6\n        /* \"#utility.yul\":10111:10178   */\n      tag_89\n      jump\t// in\n    tag_207:\n        /* \"#utility.yul\":10205:10206   */\n      0x00\n        /* \"#utility.yul\":10229:10233   */\n      0x20\n        /* \"#utility.yul\":10216:10233   */\n      swap1\n      pop\n        /* \"#utility.yul\":10261:10263   */\n      0x1f\n        /* \"#utility.yul\":10253:10259   */\n      dup4\n        /* \"#utility.yul\":10250:10264   */\n      gt\n        /* \"#utility.yul\":10278:10279   */\n      0x01\n        /* \"#utility.yul\":10273:10891   */\n      dup2\n      eq\n      tag_209\n      jumpi\n        /* \"#utility.yul\":10935:10936   */\n      0x00\n        /* \"#utility.yul\":10952:10958   */\n      dup5\n        /* \"#utility.yul\":10949:11026   */\n      iszero\n      tag_210\n      jumpi\n        /* \"#utility.yul\":11001:11010   */\n      dup3\n        /* \"#utility.yul\":10996:10999   */\n      dup8\n        /* \"#utility.yul\":10992:11011   */\n      add\n        /* \"#utility.yul\":10986:11012   */\n      mload\n        /* \"#utility.yul\":10977:11012   */\n      swap1\n      pop\n        /* \"#utility.yul\":10949:11026   */\n    tag_210:\n        /* \"#utility.yul\":11052:11119   */\n      tag_211\n        /* \"#utility.yul\":11112:11118   */\n      dup6\n        /* \"#utility.yul\":11105:11110   */\n      dup3\n        /* \"#utility.yul\":11052:11119   */\n      tag_92\n      jump\t// in\n    tag_211:\n        /* \"#utility.yul\":11046:11050   */\n      dup7\n        /* \"#utility.yul\":11039:11120   */\n      sstore\n        /* \"#utility.yul\":10908:11130   */\n      pop\n        /* \"#utility.yul\":10243:11130   */\n      jump(tag_208)\n        /* \"#utility.yul\":10273:10891   */\n    tag_209:\n        /* \"#utility.yul\":10325:10329   */\n      0x1f\n        /* \"#utility.yul\":10321:10330   */\n      not\n        /* \"#utility.yul\":10313:10319   */\n      dup5\n        /* \"#utility.yul\":10309:10331   */\n      and\n        /* \"#utility.yul\":10359:10396   */\n      tag_212\n        /* \"#utility.yul\":10391:10395   */\n      dup7\n        /* \"#utility.yul\":10359:10396   */\n      tag_77\n      jump\t// in\n    tag_212:\n        /* \"#utility.yul\":10418:10419   */\n      0x00\n        /* \"#utility.yul\":10432:10640   */\n    tag_213:\n        /* \"#utility.yul\":10446:10453   */\n      dup3\n        /* \"#utility.yul\":10443:10444   */\n      dup2\n        /* \"#utility.yul\":10440:10454   */\n      lt\n        /* \"#utility.yul\":10432:10640   */\n      iszero\n      tag_215\n      jumpi\n        /* \"#utility.yul\":10525:10534   */\n      dup5\n        /* \"#utility.yul\":10520:10523   */\n      dup10\n        /* \"#utility.yul\":10516:10535   */\n      add\n        /* \"#utility.yul\":10510:10536   */\n      mload\n        /* \"#utility.yul\":10502:10508   */\n      dup3\n        /* \"#utility.yul\":10495:10537   */\n      sstore\n        /* \"#utility.yul\":10576:10577   */\n      0x01\n        /* \"#utility.yul\":10568:10574   */\n      dup3\n        /* \"#utility.yul\":10564:10578   */\n      add\n        /* \"#utility.yul\":10554:10578   */\n      swap2\n      pop\n        /* \"#utility.yul\":10623:10625   */\n      0x20\n        /* \"#utility.yul\":10612:10621   */\n      dup6\n        /* \"#utility.yul\":10608:10626   */\n      add\n        /* \"#utility.yul\":10595:10626   */\n      swap5\n      pop\n        /* \"#utility.yul\":10469:10473   */\n      0x20\n        /* \"#utility.yul\":10466:10467   */\n      dup2\n        /* \"#utility.yul\":10462:10474   */\n      add\n        /* \"#utility.yul\":10457:10474   */\n      swap1\n      pop\n        /* \"#utility.yul\":10432:10640   */\n      jump(tag_213)\n    tag_215:\n        /* \"#utility.yul\":10668:10674   */\n      dup7\n        /* \"#utility.yul\":10659:10666   */\n      dup4\n        /* \"#utility.yul\":10656:10675   */\n      lt\n        /* \"#utility.yul\":10653:10832   */\n      iszero\n      tag_216\n      jumpi\n        /* \"#utility.yul\":10726:10735   */\n      dup5\n        /* \"#utility.yul\":10721:10724   */\n      dup10\n        /* \"#utility.yul\":10717:10736   */\n      add\n        /* \"#utility.yul\":10711:10737   */\n      mload\n        /* \"#utility.yul\":10769:10817   */\n      tag_217\n        /* \"#utility.yul\":10811:10815   */\n      0x1f\n        /* \"#utility.yul\":10803:10809   */\n      dup10\n        /* \"#utility.yul\":10799:10816   */\n      and\n        /* \"#utility.yul\":10788:10797   */\n      dup3\n        /* \"#utility.yul\":10769:10817   */\n      tag_91\n      jump\t// in\n    tag_217:\n        /* \"#utility.yul\":10761:10767   */\n      dup4\n        /* \"#utility.yul\":10754:10818   */\n      sstore\n        /* \"#utility.yul\":10676:10832   */\n      pop\n        /* \"#utility.yul\":10653:10832   */\n    tag_216:\n        /* \"#utility.yul\":10878:10879   */\n      0x01\n        /* \"#utility.yul\":10874:10875   */\n      0x02\n        /* \"#utility.yul\":10866:10872   */\n      dup9\n        /* \"#utility.yul\":10862:10876   */\n      mul\n        /* \"#utility.yul\":10858:10880   */\n      add\n        /* \"#utility.yul\":10852:10856   */\n      dup9\n        /* \"#utility.yul\":10845:10881   */\n      sstore\n        /* \"#utility.yul\":10280:10891   */\n      pop\n      pop\n      pop\n        /* \"#utility.yul\":10243:11130   */\n    tag_208:\n      pop\n        /* \"#utility.yul\":9833:11136   */\n      pop\n      pop\n      pop\n        /* \"#utility.yul\":9741:11136   */\n      pop\n      pop\n      jump\t// out\n        /* \"#utility.yul\":11142:11322   */\n    tag_34:\n        /* \"#utility.yul\":11190:11267   */\n      0x4e487b7100000000000000000000000000000000000000000000000000000000\n        /* \"#utility.yul\":11187:11188   */\n      0x00\n        /* \"#utility.yul\":11180:11268   */\n      mstore\n        /* \"#utility.yul\":11287:11291   */\n      0x32\n        /* \"#utility.yul\":11284:11285   */\n      0x04\n        /* \"#utility.yul\":11277:11292   */\n      mstore\n        /* \"#utility.yul\":11311:11315   */\n      0x24\n        /* \"#utility.yul\":11308:11309   */\n      0x00\n        /* \"#utility.yul\":11301:11316   */\n      revert\n        /* \"#utility.yul\":11328:11508   */\n    tag_41:\n        /* \"#utility.yul\":11376:11453   */\n      0x4e487b7100000000000000000000000000000000000000000000000000000000\n        /* \"#utility.yul\":11373:11374   */\n      0x00\n        /* \"#utility.yul\":11366:11454   */\n      mstore\n        /* \"#utility.yul\":11473:11477   */\n      0x31\n        /* \"#utility.yul\":11470:11471   */\n      0x04\n        /* \"#utility.yul\":11463:11478   */\n      mstore\n        /* \"#utility.yul\":11497:11501   */\n      0x24\n        /* \"#utility.yul\":11494:11495   */\n      0x00\n        /* \"#utility.yul\":11487:11502   */\n      revert\n        /* \"#utility.yul\":11514:11694   */\n    tag_93:\n        /* \"#utility.yul\":11562:11639   */\n      0x4e487b7100000000000000000000000000000000000000000000000000000000\n        /* \"#utility.yul\":11559:11560   */\n      0x00\n        /* \"#utility.yul\":11552:11640   */\n      mstore\n        /* \"#utility.yul\":11659:11663   */\n      0x11\n        /* \"#utility.yul\":11656:11657   */\n      0x04\n        /* \"#utility.yul\":11649:11664   */\n      mstore\n        /* \"#utility.yul\":11683:11687   */\n      0x24\n        /* \"#utility.yul\":11680:11681   */\n      0x00\n        /* \"#utility.yul\":11673:11688   */\n      revert\n        /* \"#utility.yul\":11700:11786   */\n    tag_94:\n        /* \"#utility.yul\":11735:11742   */\n      0x00\n        /* \"#utility.yul\":11775:11779   */\n      0xff\n        /* \"#utility.yul\":11768:11773   */\n      dup3\n        /* \"#utility.yul\":11764:11780   */\n      and\n        /* \"#utility.yul\":11753:11780   */\n      swap1\n      pop\n        /* \"#utility.yul\":11700:11786   */\n      swap2\n      swap1\n      pop\n      jump\t// out\n        /* \"#utility.yul\":11792:11959   */\n    tag_53:\n        /* \"#utility.yul\":11829:11832   */\n      0x00\n        /* \"#utility.yul\":11852:11874   */\n      tag_223\n        /* \"#utility.yul\":11868:11873   */\n      dup3\n        /* \"#utility.yul\":11852:11874   */\n      tag_94\n      jump\t// in\n    tag_223:\n        /* \"#utility.yul\":11843:11874   */\n      swap2\n      pop\n        /* \"#utility.yul\":11896:11900   */\n      0xff\n        /* \"#utility.yul\":11889:11894   */\n      dup3\n        /* \"#utility.yul\":11886:11901   */\n      sub\n        /* \"#utility.yul\":11883:11924   */\n      tag_224\n      jumpi\n        /* \"#utility.yul\":11904:11922   */\n      tag_225\n      tag_93\n      jump\t// in\n    tag_225:\n        /* \"#utility.yul\":11883:11924   */\n    tag_224:\n        /* \"#utility.yul\":11951:11952   */\n      0x01\n        /* \"#utility.yul\":11944:11949   */\n      dup3\n        /* \"#utility.yul\":11940:11953   */\n      add\n        /* \"#utility.yul\":11933:11953   */\n      swap1\n      pop\n        /* \"#utility.yul\":11792:11959   */\n      swap2\n      swap1\n      pop\n      jump\t// out\n\n    auxdata: 0xa264697066735822122022a448162e4b9a4b5284d11cbdd9e40b584b845e97b225b20b167de4167c240f64736f6c63430008120033\n}\n",
				"bytecode": {
					"linkReferences": {},
					"object": "60806040526040518060a001604052806001800b60010b8152602001600260010b8152602001600360010b8152602001600460010b8152602001600560010b8152506001906005610051929190610064565b5034801561005e57600080fd5b5061012e565b82805482825590600052602060002090600f016010900481019282156101005791602002820160005b838211156100d057835183826101000a81548161ffff021916908360010b61ffff160217905550926020019260020160208160010104928301926001030261008d565b80156100fe5782816101000a81549061ffff02191690556002016020816001010492830192600103026100d0565b505b50905061010d9190610111565b5090565b5b8082111561012a576000816000905550600101610112565b5090565b610a2e8061013d6000396000f3fe608060405234801561001057600080fd5b50600436106100415760003560e01c8063081ff9aa146100465780632e2dc43e1461006257806354353f2f14610080575b600080fd5b610060600480360381019061005b91906104a1565b61008a565b005b61006a6100c2565b604051610077919061062b565b60405180910390f35b61008861019b565b005b6000819080600181540180825580915050600190039060005260206000200160009091909190915090816100be9190610863565b5050565b60606000805480602002602001604051908101604052809291908181526020016000905b828210156101925783829060005260206000200180546101059061067c565b80601f01602080910402602001604051908101604052809291908181526020018280546101319061067c565b801561017e5780601f106101535761010080835404028352916020019161017e565b820191906000526020600020905b81548152906001019060200180831161016157829003601f168201915b5050505050815260200190600101906100e6565b50505050905090565b6001600a90806001815401808255809150506001900390600052602060002090601091828204019190066002029091909190916101000a81548161ffff021916908360010b61ffff16021790555060066001600581548110610200576101ff610935565b5b90600052602060002090601091828204019190066002026101000a81548161ffff021916908360010b61ffff160217905550600160038154811061024757610246610935565b5b90600052602060002090601091828204019190066002026101000a81549061ffff0219169055600180548061027f5761027e610964565b5b60019003818190600052602060002090601091828204019190066002026101000a81549061ffff021916905590556000600567ffffffffffffffff8111156102ca576102c9610376565b5b6040519080825280602002602001820160405280156102f85781602001602082028036833780820191505090505b50905060005b81518160ff161015610343578060ff16828260ff168151811061032457610323610935565b5b602002602001018181525050808061033b906109cf565b9150506102fe565b5050565b6000604051905090565b600080fd5b600080fd5b600080fd5b600080fd5b6000601f19601f8301169050919050565b7f4e487b7100000000000000000000000000000000000000000000000000000000600052604160045260246000fd5b6103ae82610365565b810181811067ffffffffffffffff821117156103cd576103cc610376565b5b80604052505050565b60006103e0610347565b90506103ec82826103a5565b919050565b600067ffffffffffffffff82111561040c5761040b610376565b5b61041582610365565b9050602081019050919050565b82818337600083830152505050565b600061044461043f846103f1565b6103d6565b9050828152602081018484840111156104605761045f610360565b5b61046b848285610422565b509392505050565b600082601f8301126104885761048761035b565b5b8135610498848260208601610431565b91505092915050565b6000602082840312156104b7576104b6610351565b5b600082013567ffffffffffffffff8111156104d5576104d4610356565b5b6104e184828501610473565b91505092915050565b600081519050919050565b600082825260208201905092915050565b6000819050602082019050919050565b600081519050919050565b600082825260208201905092915050565b60005b83811015610550578082015181840152602081019050610535565b60008484015250505050565b600061056782610516565b6105718185610521565b9350610581818560208601610532565b61058a81610365565b840191505092915050565b60006105a1838361055c565b905092915050565b6000602082019050919050565b60006105c1826104ea565b6105cb81856104f5565b9350836020820285016105dd85610506565b8060005b8581101561061957848403895281516105fa8582610595565b9450610605836105a9565b925060208a019950506001810190506105e1565b50829750879550505050505092915050565b6000602082019050818103600083015261064581846105b6565b905092915050565b7f4e487b7100000000000000000000000000000000000000000000000000000000600052602260045260246000fd5b6000600282049050600182168061069457607f821691505b6020821081036106a7576106a661064d565b5b50919050565b60008190508160005260206000209050919050565b60006020601f8301049050919050565b600082821b905092915050565b60006008830261070f7fffffffffffffffffffffffffffffffffffffffffffffffffffffffffffffffff826106d2565b61071986836106d2565b95508019841693508086168417925050509392505050565b6000819050919050565b6000819050919050565b600061076061075b61075684610731565b61073b565b610731565b9050919050565b6000819050919050565b61077a83610745565b61078e61078682610767565b8484546106df565b825550505050565b600090565b6107a3610796565b6107ae818484610771565b505050565b5b818110156107d2576107c760008261079b565b6001810190506107b4565b5050565b601f821115610817576107e8816106ad565b6107f1846106c2565b81016020851015610800578190505b61081461080c856106c2565b8301826107b3565b50505b505050565b600082821c905092915050565b600061083a6000198460080261081c565b1980831691505092915050565b60006108538383610829565b9150826002028217905092915050565b61086c82610516565b67ffffffffffffffff81111561088557610884610376565b5b61088f825461067c565b61089a8282856107d6565b600060209050601f8311600181146108cd57600084156108bb578287015190505b6108c58582610847565b86555061092d565b601f1984166108db866106ad565b60005b82811015610903578489015182556001820191506020850194506020810190506108de565b86831015610920578489015161091c601f891682610829565b8355505b6001600288020188555050505b505050505050565b7f4e487b7100000000000000000000000000000000000000000000000000000000600052603260045260246000fd5b7f4e487b7100000000000000000000000000000000000000000000000000000000600052603160045260246000fd5b7f4e487b7100000000000000000000000000000000000000000000000000000000600052601160045260246000fd5b600060ff82169050919050565b60006109da826109c2565b915060ff82036109ed576109ec610993565b5b60018201905091905056fea264697066735822122022a448162e4b9a4b5284d11cbdd9e40b584b845e97b225b20b167de4167c240f64736f6c63430008120033",
					"opcodes": "PUSH1 0x80 PUSH1 0x40 MSTORE PUSH1 0x40 MLOAD DUP1 PUSH1 0xA0 ADD PUSH1 0x40 MSTORE DUP1 PUSH1 0x1 DUP1 SIGNEXTEND PUSH1 0x1 SIGNEXTEND DUP2 MSTORE PUSH1 0x20 ADD PUSH1 0x2 PUSH1 0x1 SIGNEXTEND DUP2 MSTORE PUSH1 0x20 ADD PUSH1 0x3 PUSH1 0x1 SIGNEXTEND DUP2 MSTORE PUSH1 0x20 ADD PUSH1 0x4 PUSH1 0x1 SIGNEXTEND DUP2 MSTORE PUSH1 0x20 ADD PUSH1 0x5 PUSH1 0x1 SIGNEXTEND DUP2 MSTORE POP PUSH1 0x1 SWAP1 PUSH1 0x5 PUSH2 0x51 SWAP3 SWAP2 SWAP1 PUSH2 0x64 JUMP JUMPDEST POP CALLVALUE DUP1 ISZERO PUSH2 0x5E JUMPI PUSH1 0x0 DUP1 REVERT JUMPDEST POP PUSH2 0x12E JUMP JUMPDEST DUP3 DUP1 SLOAD DUP3 DUP3 SSTORE SWAP1 PUSH1 0x0 MSTORE PUSH1 0x20 PUSH1 0x0 KECCAK256 SWAP1 PUSH1 0xF ADD PUSH1 0x10 SWAP1 DIV DUP2 ADD SWAP3 DUP3 ISZERO PUSH2 0x100 JUMPI SWAP2 PUSH1 0x20 MUL DUP3 ADD PUSH1 0x0 JUMPDEST DUP4 DUP3 GT ISZERO PUSH2 0xD0 JUMPI DUP4 MLOAD DUP4 DUP3 PUSH2 0x100 EXP DUP2 SLOAD DUP2 PUSH2 0xFFFF MUL NOT AND SWAP1 DUP4 PUSH1 0x1 SIGNEXTEND PUSH2 0xFFFF AND MUL OR SWAP1 SSTORE POP SWAP3 PUSH1 0x20 ADD SWAP3 PUSH1 0x2 ADD PUSH1 0x20 DUP2 PUSH1 0x1 ADD DIV SWAP3 DUP4 ADD SWAP3 PUSH1 0x1 SUB MUL PUSH2 0x8D JUMP JUMPDEST DUP1 ISZERO PUSH2 0xFE JUMPI DUP3 DUP2 PUSH2 0x100 EXP DUP2 SLOAD SWAP1 PUSH2 0xFFFF MUL NOT AND SWAP1 SSTORE PUSH1 0x2 ADD PUSH1 0x20 DUP2 PUSH1 0x1 ADD DIV SWAP3 DUP4 ADD SWAP3 PUSH1 0x1 SUB MUL PUSH2 0xD0 JUMP JUMPDEST POP JUMPDEST POP SWAP1 POP PUSH2 0x10D SWAP2 SWAP1 PUSH2 0x111 JUMP JUMPDEST POP SWAP1 JUMP JUMPDEST JUMPDEST DUP1 DUP3 GT ISZERO PUSH2 0x12A JUMPI PUSH1 0x0 DUP2 PUSH1 0x0 SWAP1 SSTORE POP PUSH1 0x1 ADD PUSH2 0x112 JUMP JUMPDEST POP SWAP1 JUMP JUMPDEST PUSH2 0xA2E DUP1 PUSH2 0x13D PUSH1 0x0 CODECOPY PUSH1 0x0 RETURN INVALID PUSH1 0x80 PUSH1 0x40 MSTORE CALLVALUE DUP1 ISZERO PUSH2 0x10 JUMPI PUSH1 0x0 DUP1 REVERT JUMPDEST POP PUSH1 0x4 CALLDATASIZE LT PUSH2 0x41 JUMPI PUSH1 0x0 CALLDATALOAD PUSH1 0xE0 SHR DUP1 PUSH4 0x81FF9AA EQ PUSH2 0x46 JUMPI DUP1 PUSH4 0x2E2DC43E EQ PUSH2 0x62 JUMPI DUP1 PUSH4 0x54353F2F EQ PUSH2 0x80 JUMPI JUMPDEST PUSH1 0x0 DUP1 REVERT JUMPDEST PUSH2 0x60 PUSH1 0x4 DUP1 CALLDATASIZE SUB DUP2 ADD SWAP1 PUSH2 0x5B SWAP2 SWAP1 PUSH2 0x4A1 JUMP JUMPDEST PUSH2 0x8A JUMP JUMPDEST STOP JUMPDEST PUSH2 0x6A PUSH2 0xC2 JUMP JUMPDEST PUSH1 0x40 MLOAD PUSH2 0x77 SWAP2 SWAP1 PUSH2 0x62B JUMP JUMPDEST PUSH1 0x40 MLOAD DUP1 SWAP2 SUB SWAP1 RETURN JUMPDEST PUSH2 0x88 PUSH2 0x19B JUMP JUMPDEST STOP JUMPDEST PUSH1 0x0 DUP2 SWAP1 DUP1 PUSH1 0x1 DUP2 SLOAD ADD DUP1 DUP3 SSTORE DUP1 SWAP2 POP POP PUSH1 0x1 SWAP1 SUB SWAP1 PUSH1 0x0 MSTORE PUSH1 0x20 PUSH1 0x0 KECCAK256 ADD PUSH1 0x0 SWAP1 SWAP2 SWAP1 SWAP2 SWAP1 SWAP2 POP SWAP1 DUP2 PUSH2 0xBE SWAP2 SWAP1 PUSH2 0x863 JUMP JUMPDEST POP POP JUMP JUMPDEST PUSH1 0x60 PUSH1 0x0 DUP1 SLOAD DUP1 PUSH1 0x20 MUL PUSH1 0x20 ADD PUSH1 0x40 MLOAD SWAP1 DUP2 ADD PUSH1 0x40 MSTORE DUP1 SWAP3 SWAP2 SWAP1 DUP2 DUP2 MSTORE PUSH1 0x20 ADD PUSH1 0x0 SWAP1 JUMPDEST DUP3 DUP3 LT ISZERO PUSH2 0x192 JUMPI DUP4 DUP3 SWAP1 PUSH1 0x0 MSTORE PUSH1 0x20 PUSH1 0x0 KECCAK256 ADD DUP1 SLOAD PUSH2 0x105 SWAP1 PUSH2 0x67C JUMP JUMPDEST DUP1 PUSH1 0x1F ADD PUSH1 0x20 DUP1 SWAP2 DIV MUL PUSH1 0x20 ADD PUSH1 0x40 MLOAD SWAP1 DUP2 ADD PUSH1 0x40 MSTORE DUP1 SWAP3 SWAP2 SWAP1 DUP2 DUP2 MSTORE PUSH1 0x20 ADD DUP3 DUP1 SLOAD PUSH2 0x131 SWAP1 PUSH2 0x67C JUMP JUMPDEST DUP1 ISZERO PUSH2 0x17E JUMPI DUP1 PUSH1 0x1F LT PUSH2 0x153 JUMPI PUSH2 0x100 DUP1 DUP4 SLOAD DIV MUL DUP4 MSTORE SWAP2 PUSH1 0x20 ADD SWAP2 PUSH2 0x17E JUMP JUMPDEST DUP3 ADD SWAP2 SWAP1 PUSH1 0x0 MSTORE PUSH1 0x20 PUSH1 0x0 KECCAK256 SWAP1 JUMPDEST DUP2 SLOAD DUP2 MSTORE SWAP1 PUSH1 0x1 ADD SWAP1 PUSH1 0x20 ADD DUP1 DUP4 GT PUSH2 0x161 JUMPI DUP3 SWAP1 SUB PUSH1 0x1F AND DUP3 ADD SWAP2 JUMPDEST POP POP POP POP POP DUP2 MSTORE PUSH1 0x20 ADD SWAP1 PUSH1 0x1 ADD SWAP1 PUSH2 0xE6 JUMP JUMPDEST POP POP POP POP SWAP1 POP SWAP1 JUMP JUMPDEST PUSH1 0x1 PUSH1 0xA SWAP1 DUP1 PUSH1 0x1 DUP2 SLOAD ADD DUP1 DUP3 SSTORE DUP1 SWAP2 POP POP PUSH1 0x1 SWAP1 SUB SWAP1 PUSH1 0x0 MSTORE PUSH1 0x20 PUSH1 0x0 KECCAK256 SWAP1 PUSH1 0x10 SWAP2 DUP3 DUP3 DIV ADD SWAP2 SWAP1 MOD PUSH1 0x2 MUL SWAP1 SWAP2 SWAP1 SWAP2 SWAP1 SWAP2 PUSH2 0x100 EXP DUP2 SLOAD DUP2 PUSH2 0xFFFF MUL NOT AND SWAP1 DUP4 PUSH1 0x1 SIGNEXTEND PUSH2 0xFFFF AND MUL OR SWAP1 SSTORE POP PUSH1 0x6 PUSH1 0x1 PUSH1 0x5 DUP2 SLOAD DUP2 LT PUSH2 0x200 JUMPI PUSH2 0x1FF PUSH2 0x935 JUMP JUMPDEST JUMPDEST SWAP1 PUSH1 0x0 MSTORE PUSH1 0x20 PUSH1 0x0 KECCAK256 SWAP1 PUSH1 0x10 SWAP2 DUP3 DUP3 DIV ADD SWAP2 SWAP1 MOD PUSH1 0x2 MUL PUSH2 0x100 EXP DUP2 SLOAD DUP2 PUSH2 0xFFFF MUL NOT AND SWAP1 DUP4 PUSH1 0x1 SIGNEXTEND PUSH2 0xFFFF AND MUL OR SWAP1 SSTORE POP PUSH1 0x1 PUSH1 0x3 DUP2 SLOAD DUP2 LT PUSH2 0x247 JUMPI PUSH2 0x246 PUSH2 0x935 JUMP JUMPDEST JUMPDEST SWAP1 PUSH1 0x0 MSTORE PUSH1 0x20 PUSH1 0x0 KECCAK256 SWAP1 PUSH1 0x10 SWAP2 DUP3 DUP3 DIV ADD SWAP2 SWAP1 MOD PUSH1 0x2 MUL PUSH2 0x100 EXP DUP2 SLOAD SWAP1 PUSH2 0xFFFF MUL NOT AND SWAP1 SSTORE PUSH1 0x1 DUP1 SLOAD DUP1 PUSH2 0x27F JUMPI PUSH2 0x27E PUSH2 0x964 JUMP JUMPDEST JUMPDEST PUSH1 0x1 SWAP1 SUB DUP2 DUP2 SWAP1 PUSH1 0x0 MSTORE PUSH1 0x20 PUSH1 0x0 KECCAK256 SWAP1 PUSH1 0x10 SWAP2 DUP3 DUP3 DIV ADD SWAP2 SWAP1 MOD PUSH1 0x2 MUL PUSH2 0x100 EXP DUP2 SLOAD SWAP1 PUSH2 0xFFFF MUL NOT AND SWAP1 SSTORE SWAP1 SSTORE PUSH1 0x0 PUSH1 0x5 PUSH8 0xFFFFFFFFFFFFFFFF DUP2 GT ISZERO PUSH2 0x2CA JUMPI PUSH2 0x2C9 PUSH2 0x376 JUMP JUMPDEST JUMPDEST PUSH1 0x40 MLOAD SWAP1 DUP1 DUP3 MSTORE DUP1 PUSH1 0x20 MUL PUSH1 0x20 ADD DUP3 ADD PUSH1 0x40 MSTORE DUP1 ISZERO PUSH2 0x2F8 JUMPI DUP2 PUSH1 0x20 ADD PUSH1 0x20 DUP3 MUL DUP1 CALLDATASIZE DUP4 CALLDATACOPY DUP1 DUP3 ADD SWAP2 POP POP SWAP1 POP JUMPDEST POP SWAP1 POP PUSH1 0x0 JUMPDEST DUP2 MLOAD DUP2 PUSH1 0xFF AND LT ISZERO PUSH2 0x343 JUMPI DUP1 PUSH1 0xFF AND DUP3 DUP3 PUSH1 0xFF AND DUP2 MLOAD DUP2 LT PUSH2 0x324 JUMPI PUSH2 0x323 PUSH2 0x935 JUMP JUMPDEST JUMPDEST PUSH1 0x20 MUL PUSH1 0x20 ADD ADD DUP2 DUP2 MSTORE POP POP DUP1 DUP1 PUSH2 0x33B SWAP1 PUSH2 0x9CF JUMP JUMPDEST SWAP2 POP POP PUSH2 0x2FE JUMP JUMPDEST POP POP JUMP JUMPDEST PUSH1 0x0 PUSH1 0x40 MLOAD SWAP1 POP SWAP1 JUMP JUMPDEST PUSH1 0x0 DUP1 REVERT JUMPDEST PUSH1 0x0 DUP1 REVERT JUMPDEST PUSH1 0x0 DUP1 REVERT JUMPDEST PUSH1 0x0 DUP1 REVERT JUMPDEST PUSH1 0x0 PUSH1 0x1F NOT PUSH1 0x1F DUP4 ADD AND SWAP1 POP SWAP2 SWAP1 POP JUMP JUMPDEST PUSH32 0x4E487B7100000000000000000000000000000000000000000000000000000000 PUSH1 0x0 MSTORE PUSH1 0x41 PUSH1 0x4 MSTORE PUSH1 0x24 PUSH1 0x0 REVERT JUMPDEST PUSH2 0x3AE DUP3 PUSH2 0x365 JUMP JUMPDEST DUP2 ADD DUP2 DUP2 LT PUSH8 0xFFFFFFFFFFFFFFFF DUP3 GT OR ISZERO PUSH2 0x3CD JUMPI PUSH2 0x3CC PUSH2 0x376 JUMP JUMPDEST JUMPDEST DUP1 PUSH1 0x40 MSTORE POP POP POP JUMP JUMPDEST PUSH1 0x0 PUSH2 0x3E0 PUSH2 0x347 JUMP JUMPDEST SWAP1 POP PUSH2 0x3EC DUP3 DUP3 PUSH2 0x3A5 JUMP JUMPDEST SWAP2 SWAP1 POP JUMP JUMPDEST PUSH1 0x0 PUSH8 0xFFFFFFFFFFFFFFFF DUP3 GT ISZERO PUSH2 0x40C JUMPI PUSH2 0x40B PUSH2 0x376 JUMP JUMPDEST JUMPDEST PUSH2 0x415 DUP3 PUSH2 0x365 JUMP JUMPDEST SWAP1 POP PUSH1 0x20 DUP2 ADD SWAP1 POP SWAP2 SWAP1 POP JUMP JUMPDEST DUP3 DUP2 DUP4 CALLDATACOPY PUSH1 0x0 DUP4 DUP4 ADD MSTORE POP POP POP JUMP JUMPDEST PUSH1 0x0 PUSH2 0x444 PUSH2 0x43F DUP5 PUSH2 0x3F1 JUMP JUMPDEST PUSH2 0x3D6 JUMP JUMPDEST SWAP1 POP DUP3 DUP2 MSTORE PUSH1 0x20 DUP2 ADD DUP5 DUP5 DUP5 ADD GT ISZERO PUSH2 0x460 JUMPI PUSH2 0x45F PUSH2 0x360 JUMP JUMPDEST JUMPDEST PUSH2 0x46B DUP5 DUP3 DUP6 PUSH2 0x422 JUMP JUMPDEST POP SWAP4 SWAP3 POP POP POP JUMP JUMPDEST PUSH1 0x0 DUP3 PUSH1 0x1F DUP4 ADD SLT PUSH2 0x488 JUMPI PUSH2 0x487 PUSH2 0x35B JUMP JUMPDEST JUMPDEST DUP2 CALLDATALOAD PUSH2 0x498 DUP5 DUP3 PUSH1 0x20 DUP7 ADD PUSH2 0x431 JUMP JUMPDEST SWAP2 POP POP SWAP3 SWAP2 POP POP JUMP JUMPDEST PUSH1 0x0 PUSH1 0x20 DUP3 DUP5 SUB SLT ISZERO PUSH2 0x4B7 JUMPI PUSH2 0x4B6 PUSH2 0x351 JUMP JUMPDEST JUMPDEST PUSH1 0x0 DUP3 ADD CALLDATALOAD PUSH8 0xFFFFFFFFFFFFFFFF DUP2 GT ISZERO PUSH2 0x4D5 JUMPI PUSH2 0x4D4 PUSH2 0x356 JUMP JUMPDEST JUMPDEST PUSH2 0x4E1 DUP5 DUP3 DUP6 ADD PUSH2 0x473 JUMP JUMPDEST SWAP2 POP POP SWAP3 SWAP2 POP POP JUMP JUMPDEST PUSH1 0x0 DUP2 MLOAD SWAP1 POP SWAP2 SWAP1 POP JUMP JUMPDEST PUSH1 0x0 DUP3 DUP3 MSTORE PUSH1 0x20 DUP3 ADD SWAP1 POP SWAP3 SWAP2 POP POP JUMP JUMPDEST PUSH1 0x0 DUP2 SWAP1 POP PUSH1 0x20 DUP3 ADD SWAP1 POP SWAP2 SWAP1 POP JUMP JUMPDEST PUSH1 0x0 DUP2 MLOAD SWAP1 POP SWAP2 SWAP1 POP JUMP JUMPDEST PUSH1 0x0 DUP3 DUP3 MSTORE PUSH1 0x20 DUP3 ADD SWAP1 POP SWAP3 SWAP2 POP POP JUMP JUMPDEST PUSH1 0x0 JUMPDEST DUP4 DUP2 LT ISZERO PUSH2 0x550 JUMPI DUP1 DUP3 ADD MLOAD DUP2 DUP5 ADD MSTORE PUSH1 0x20 DUP2 ADD SWAP1 POP PUSH2 0x535 JUMP JUMPDEST PUSH1 0x0 DUP5 DUP5 ADD MSTORE POP POP POP POP JUMP JUMPDEST PUSH1 0x0 PUSH2 0x567 DUP3 PUSH2 0x516 JUMP JUMPDEST PUSH2 0x571 DUP2 DUP6 PUSH2 0x521 JUMP JUMPDEST SWAP4 POP PUSH2 0x581 DUP2 DUP6 PUSH1 0x20 DUP7 ADD PUSH2 0x532 JUMP JUMPDEST PUSH2 0x58A DUP2 PUSH2 0x365 JUMP JUMPDEST DUP5 ADD SWAP2 POP POP SWAP3 SWAP2 POP POP JUMP JUMPDEST PUSH1 0x0 PUSH2 0x5A1 DUP4 DUP4 PUSH2 0x55C JUMP JUMPDEST SWAP1 POP SWAP3 SWAP2 POP POP JUMP JUMPDEST PUSH1 0x0 PUSH1 0x20 DUP3 ADD SWAP1 POP SWAP2 SWAP1 POP JUMP JUMPDEST PUSH1 0x0 PUSH2 0x5C1 DUP3 PUSH2 0x4EA JUMP JUMPDEST PUSH2 0x5CB DUP2 DUP6 PUSH2 0x4F5 JUMP JUMPDEST SWAP4 POP DUP4 PUSH1 0x20 DUP3 MUL DUP6 ADD PUSH2 0x5DD DUP6 PUSH2 0x506 JUMP JUMPDEST DUP1 PUSH1 0x0 JUMPDEST DUP6 DUP2 LT ISZERO PUSH2 0x619 JUMPI DUP5 DUP5 SUB DUP10 MSTORE DUP2 MLOAD PUSH2 0x5FA DUP6 DUP3 PUSH2 0x595 JUMP JUMPDEST SWAP5 POP PUSH2 0x605 DUP4 PUSH2 0x5A9 JUMP JUMPDEST SWAP3 POP PUSH1 0x20 DUP11 ADD SWAP10 POP POP PUSH1 0x1 DUP2 ADD SWAP1 POP PUSH2 0x5E1 JUMP JUMPDEST POP DUP3 SWAP8 POP DUP8 SWAP6 POP POP POP POP POP POP SWAP3 SWAP2 POP POP JUMP JUMPDEST PUSH1 0x0 PUSH1 0x20 DUP3 ADD SWAP1 POP DUP2 DUP2 SUB PUSH1 0x0 DUP4 ADD MSTORE PUSH2 0x645 DUP2 DUP5 PUSH2 0x5B6 JUMP JUMPDEST SWAP1 POP SWAP3 SWAP2 POP POP JUMP JUMPDEST PUSH32 0x4E487B7100000000000000000000000000000000000000000000000000000000 PUSH1 0x0 MSTORE PUSH1 0x22 PUSH1 0x4 MSTORE PUSH1 0x24 PUSH1 0x0 REVERT JUMPDEST PUSH1 0x0 PUSH1 0x2 DUP3 DIV SWAP1 POP PUSH1 0x1 DUP3 AND DUP1 PUSH2 0x694 JUMPI PUSH1 0x7F DUP3 AND SWAP2 POP JUMPDEST PUSH1 0x20 DUP3 LT DUP2 SUB PUSH2 0x6A7 JUMPI PUSH2 0x6A6 PUSH2 0x64D JUMP JUMPDEST JUMPDEST POP SWAP2 SWAP1 POP JUMP JUMPDEST PUSH1 0x0 DUP2 SWAP1 POP DUP2 PUSH1 0x0 MSTORE PUSH1 0x20 PUSH1 0x0 KECCAK256 SWAP1 POP SWAP2 SWAP1 POP JUMP JUMPDEST PUSH1 0x0 PUSH1 0x20 PUSH1 0x1F DUP4 ADD DIV SWAP1 POP SWAP2 SWAP1 POP JUMP JUMPDEST PUSH1 0x0 DUP3 DUP3 SHL SWAP1 POP SWAP3 SWAP2 POP POP JUMP JUMPDEST PUSH1 0x0 PUSH1 0x8 DUP4 MUL PUSH2 0x70F PUSH32 0xFFFFFFFFFFFFFFFFFFFFFFFFFFFFFFFFFFFFFFFFFFFFFFFFFFFFFFFFFFFFFFFF DUP3 PUSH2 0x6D2 JUMP JUMPDEST PUSH2 0x719 DUP7 DUP4 PUSH2 0x6D2 JUMP JUMPDEST SWAP6 POP DUP1 NOT DUP5 AND SWAP4 POP DUP1 DUP7 AND DUP5 OR SWAP3 POP POP POP SWAP4 SWAP3 POP POP POP JUMP JUMPDEST PUSH1 0x0 DUP2 SWAP1 POP SWAP2 SWAP1 POP JUMP JUMPDEST PUSH1 0x0 DUP2 SWAP1 POP SWAP2 SWAP1 POP JUMP JUMPDEST PUSH1 0x0 PUSH2 0x760 PUSH2 0x75B PUSH2 0x756 DUP5 PUSH2 0x731 JUMP JUMPDEST PUSH2 0x73B JUMP JUMPDEST PUSH2 0x731 JUMP JUMPDEST SWAP1 POP SWAP2 SWAP1 POP JUMP JUMPDEST PUSH1 0x0 DUP2 SWAP1 POP SWAP2 SWAP1 POP JUMP JUMPDEST PUSH2 0x77A DUP4 PUSH2 0x745 JUMP JUMPDEST PUSH2 0x78E PUSH2 0x786 DUP3 PUSH2 0x767 JUMP JUMPDEST DUP5 DUP5 SLOAD PUSH2 0x6DF JUMP JUMPDEST DUP3 SSTORE POP POP POP POP JUMP JUMPDEST PUSH1 0x0 SWAP1 JUMP JUMPDEST PUSH2 0x7A3 PUSH2 0x796 JUMP JUMPDEST PUSH2 0x7AE DUP2 DUP5 DUP5 PUSH2 0x771 JUMP JUMPDEST POP POP POP JUMP JUMPDEST JUMPDEST DUP2 DUP2 LT ISZERO PUSH2 0x7D2 JUMPI PUSH2 0x7C7 PUSH1 0x0 DUP3 PUSH2 0x79B JUMP JUMPDEST PUSH1 0x1 DUP2 ADD SWAP1 POP PUSH2 0x7B4 JUMP JUMPDEST POP POP JUMP JUMPDEST PUSH1 0x1F DUP3 GT ISZERO PUSH2 0x817 JUMPI PUSH2 0x7E8 DUP2 PUSH2 0x6AD JUMP JUMPDEST PUSH2 0x7F1 DUP5 PUSH2 0x6C2 JUMP JUMPDEST DUP2 ADD PUSH1 0x20 DUP6 LT ISZERO PUSH2 0x800 JUMPI DUP2 SWAP1 POP JUMPDEST PUSH2 0x814 PUSH2 0x80C DUP6 PUSH2 0x6C2 JUMP JUMPDEST DUP4 ADD DUP3 PUSH2 0x7B3 JUMP JUMPDEST POP POP JUMPDEST POP POP POP JUMP JUMPDEST PUSH1 0x0 DUP3 DUP3 SHR SWAP1 POP SWAP3 SWAP2 POP POP JUMP JUMPDEST PUSH1 0x0 PUSH2 0x83A PUSH1 0x0 NOT DUP5 PUSH1 0x8 MUL PUSH2 0x81C JUMP JUMPDEST NOT DUP1 DUP4 AND SWAP2 POP POP SWAP3 SWAP2 POP POP JUMP JUMPDEST PUSH1 0x0 PUSH2 0x853 DUP4 DUP4 PUSH2 0x829 JUMP JUMPDEST SWAP2 POP DUP3 PUSH1 0x2 MUL DUP3 OR SWAP1 POP SWAP3 SWAP2 POP POP JUMP JUMPDEST PUSH2 0x86C DUP3 PUSH2 0x516 JUMP JUMPDEST PUSH8 0xFFFFFFFFFFFFFFFF DUP2 GT ISZERO PUSH2 0x885 JUMPI PUSH2 0x884 PUSH2 0x376 JUMP JUMPDEST JUMPDEST PUSH2 0x88F DUP3 SLOAD PUSH2 0x67C JUMP JUMPDEST PUSH2 0x89A DUP3 DUP3 DUP6 PUSH2 0x7D6 JUMP JUMPDEST PUSH1 0x0 PUSH1 0x20 SWAP1 POP PUSH1 0x1F DUP4 GT PUSH1 0x1 DUP2 EQ PUSH2 0x8CD JUMPI PUSH1 0x0 DUP5 ISZERO PUSH2 0x8BB JUMPI DUP3 DUP8 ADD MLOAD SWAP1 POP JUMPDEST PUSH2 0x8C5 DUP6 DUP3 PUSH2 0x847 JUMP JUMPDEST DUP7 SSTORE POP PUSH2 0x92D JUMP JUMPDEST PUSH1 0x1F NOT DUP5 AND PUSH2 0x8DB DUP7 PUSH2 0x6AD JUMP JUMPDEST PUSH1 0x0 JUMPDEST DUP3 DUP2 LT ISZERO PUSH2 0x903 JUMPI DUP5 DUP10 ADD MLOAD DUP3 SSTORE PUSH1 0x1 DUP3 ADD SWAP2 POP PUSH1 0x20 DUP6 ADD SWAP5 POP PUSH1 0x20 DUP2 ADD SWAP1 POP PUSH2 0x8DE JUMP JUMPDEST DUP7 DUP4 LT ISZERO PUSH2 0x920 JUMPI DUP5 DUP10 ADD MLOAD PUSH2 0x91C PUSH1 0x1F DUP10 AND DUP3 PUSH2 0x829 JUMP JUMPDEST DUP4 SSTORE POP JUMPDEST PUSH1 0x1 PUSH1 0x2 DUP9 MUL ADD DUP9 SSTORE POP POP POP JUMPDEST POP POP POP POP POP POP JUMP JUMPDEST PUSH32 0x4E487B7100000000000000000000000000000000000000000000000000000000 PUSH1 0x0 MSTORE PUSH1 0x32 PUSH1 0x4 MSTORE PUSH1 0x24 PUSH1 0x0 REVERT JUMPDEST PUSH32 0x4E487B7100000000000000000000000000000000000000000000000000000000 PUSH1 0x0 MSTORE PUSH1 0x31 PUSH1 0x4 MSTORE PUSH1 0x24 PUSH1 0x0 REVERT JUMPDEST PUSH32 0x4E487B7100000000000000000000000000000000000000000000000000000000 PUSH1 0x0 MSTORE PUSH1 0x11 PUSH1 0x4 MSTORE PUSH1 0x24 PUSH1 0x0 REVERT JUMPDEST PUSH1 0x0 PUSH1 0xFF DUP3 AND SWAP1 POP SWAP2 SWAP1 POP JUMP JUMPDEST PUSH1 0x0 PUSH2 0x9DA DUP3 PUSH2 0x9C2 JUMP JUMPDEST SWAP2 POP PUSH1 0xFF DUP3 SUB PUSH2 0x9ED JUMPI PUSH2 0x9EC PUSH2 0x993 JUMP JUMPDEST JUMPDEST PUSH1 0x1 DUP3 ADD SWAP1 POP SWAP2 SWAP1 POP JUMP INVALID LOG2 PUSH5 0x6970667358 0x22 SLT KECCAK256 0x22 LOG4 BASEFEE AND 0x2E 0x4B SWAP11 0x4B MSTORE DUP5 0xD1 SHR 0xBD 0xD9 0xE4 SIGNEXTEND PC 0x4B DUP5 0x5E SWAP8 0xB2 0x25 0xB2 SIGNEXTEND AND PUSH30 0xE4167C240F64736F6C634300081200330000000000000000000000000000 "
				},
				"gasEstimates": {
					"creation": {
						"codeDepositCost": "521200",
						"executionCost": "infinite",
						"totalCost": "infinite"
					},
					"external": {
						"example()": "infinite",
						"getOrders()": "infinite",
						"newOrder(string)": "infinite"
					}
				},
				"methodIdentifiers": {
					"example()": "54353f2f",
					"getOrders()": "2e2dc43e",
					"newOrder(string)": "081ff9aa"
				}
			},
			"storageLayout": {
				"storage": [
					{
						"astId": 4,
						"contract": "contracts/5_Arrays.sol:ECommerce",
						"label": "orders",
						"offset": 0,
						"slot": "0",
						"type": "t_array(t_string_storage)dyn_storage"
					},
					{
						"astId": 16,
						"contract": "contracts/5_Arrays.sol:ECommerce",
						"label": "numbers",
						"offset": 0,
						"slot": "1",
						"type": "t_array(t_int16)dyn_storage"
					},
					{
						"astId": 20,
						"contract": "contracts/5_Arrays.sol:ECommerce",
						"label": "addresses",
						"offset": 0,
						"slot": "2",
						"type": "t_array(t_string_storage)5_storage"
					}
				],
				"types": {
					"t_array(t_int16)dyn_storage": {
						"base": "t_int16",
						"encoding": "dynamic_array",
						"label": "int16[]",
						"numberOfBytes": "32"
					},
					"t_array(t_string_storage)5_storage": {
						"base": "t_string_storage",
						"encoding": "inplace",
						"label": "string[5]",
						"numberOfBytes": "160"
					},
					"t_array(t_string_storage)dyn_storage": {
						"base": "t_string_storage",
						"encoding": "dynamic_array",
						"label": "string[]",
						"numberOfBytes": "32"
					},
					"t_int16": {
						"encoding": "inplace",
						"label": "int16",
						"numberOfBytes": "2"
					},
					"t_string_storage": {
						"encoding": "bytes",
						"label": "string",
						"numberOfBytes": "32"
					}
				}
			},
			"userdoc": {
				"kind": "user",
				"methods": {},
				"version": 1
			}
		}
	}
}