{
	"contracts/6_Structs.sol": {
		"CarCollection": {
			"abi": [
				{
					"inputs": [
						{
							"internalType": "address",
							"name": "brand",
							"type": "address"
						},
						{
							"internalType": "string",
							"name": "model",
							"type": "string"
						},
						{
							"internalType": "uint256",
							"name": "year",
							"type": "uint256"
						},
						{
							"internalType": "uint256",
							"name": "price",
							"type": "uint256"
						}
					],
					"name": "addCartoCollection",
					"outputs": [],
					"stateMutability": "nonpayable",
					"type": "function"
				},
				{
					"inputs": [],
					"name": "addGenericCar",
					"outputs": [],
					"stateMutability": "nonpayable",
					"type": "function"
				},
				{
					"inputs": [],
					"name": "examples",
					"outputs": [],
					"stateMutability": "nonpayable",
					"type": "function"
				}
			],
			"devdoc": {
				"kind": "dev",
				"methods": {},
				"version": 1
			},
			"evm": {
				"assembly": "    /* \"contracts/6_Structs.sol\":62:1281  contract CarCollection{... */\n  mstore(0x40, 0x80)\n  callvalue\n  dup1\n  iszero\n  tag_1\n  jumpi\n  0x00\n  dup1\n  revert\ntag_1:\n  pop\n  dataSize(sub_0)\n  dup1\n  dataOffset(sub_0)\n  0x00\n  codecopy\n  0x00\n  return\nstop\n\nsub_0: assembly {\n        /* \"contracts/6_Structs.sol\":62:1281  contract CarCollection{... */\n      mstore(0x40, 0x80)\n      callvalue\n      dup1\n      iszero\n      tag_1\n      jumpi\n      0x00\n      dup1\n      revert\n    tag_1:\n      pop\n      jumpi(tag_2, lt(calldatasize, 0x04))\n      shr(0xe0, calldataload(0x00))\n      dup1\n      0x335d00c2\n      eq\n      tag_3\n      jumpi\n      dup1\n      0x43e1c7c2\n      eq\n      tag_4\n      jumpi\n      dup1\n      0x9e73e04d\n      eq\n      tag_5\n      jumpi\n    tag_2:\n      0x00\n      dup1\n      revert\n        /* \"contracts/6_Structs.sol\":255:952  function examples() public {... */\n    tag_3:\n      tag_6\n      tag_7\n      jump\t// in\n    tag_6:\n      stop\n        /* \"contracts/6_Structs.sol\":1173:1275  function addGenericCar() public {... */\n    tag_4:\n      tag_8\n      tag_9\n      jump\t// in\n    tag_8:\n      stop\n        /* \"contracts/6_Structs.sol\":960:1165  function addCartoCollection(address brand, string memory model, uint year, uint price) public {... */\n    tag_5:\n      tag_10\n      0x04\n      dup1\n      calldatasize\n      sub\n      dup2\n      add\n      swap1\n      tag_11\n      swap2\n      swap1\n      tag_12\n      jump\t// in\n    tag_11:\n      tag_13\n      jump\t// in\n    tag_10:\n      stop\n        /* \"contracts/6_Structs.sol\":255:952  function examples() public {... */\n    tag_7:\n        /* \"contracts/6_Structs.sol\":346:367  Car memory genericCar */\n      tag_15\n      tag_16\n      jump\t// in\n    tag_15:\n        /* \"contracts/6_Structs.sol\":378:388  collection */\n      0x00\n        /* \"contracts/6_Structs.sol\":394:404  genericCar */\n      dup2\n        /* \"contracts/6_Structs.sol\":378:405  collection.push(genericCar) */\n      swap1\n      dup1\n      0x01\n      dup2\n      sload\n      add\n      dup1\n      dup3\n      sstore\n      dup1\n      swap2\n      pop\n      pop\n      0x01\n      swap1\n      sub\n      swap1\n      0x00\n      mstore\n      keccak256(0x00, 0x20)\n      swap1\n      0x05\n      mul\n      add\n      0x00\n      swap1\n      swap2\n      swap1\n      swap2\n      swap1\n      swap2\n      pop\n      0x00\n      dup3\n      add\n      mload\n      dup2\n      0x00\n      add\n      exp(0x0100, 0x00)\n      dup2\n      sload\n      dup2\n      0xffffffffffffffffffffffffffffffffffffffff\n      mul\n      not\n      and\n      swap1\n      dup4\n      0xffffffffffffffffffffffffffffffffffffffff\n      and\n      mul\n      or\n      swap1\n      sstore\n      pop\n      0x20\n      dup3\n      add\n      mload\n      dup2\n      0x01\n      add\n      exp(0x0100, 0x00)\n      dup2\n      sload\n      dup2\n      0xffffffffffffffffffffffffffffffffffffffff\n      mul\n      not\n      and\n      swap1\n      dup4\n      0xffffffffffffffffffffffffffffffffffffffff\n      and\n      mul\n      or\n      swap1\n      sstore\n      pop\n      0x40\n      dup3\n      add\n      mload\n      dup2\n      0x02\n      add\n      swap1\n      dup2\n      tag_18\n      swap2\n      swap1\n      tag_19\n      jump\t// in\n    tag_18:\n      pop\n      0x60\n      dup3\n      add\n      mload\n      dup2\n      0x03\n      add\n      sstore\n      0x80\n      dup3\n      add\n      mload\n      dup2\n      0x04\n      add\n      sstore\n      pop\n      pop\n        /* \"contracts/6_Structs.sol\":529:544  Car memory car1 */\n      0x00\n        /* \"contracts/6_Structs.sol\":547:596  Car(msg.sender,address(0x00),\"Prius\",2015,500000) */\n      mload(0x40)\n      dup1\n      0xa0\n      add\n      0x40\n      mstore\n      dup1\n        /* \"contracts/6_Structs.sol\":551:561  msg.sender */\n      caller\n        /* \"contracts/6_Structs.sol\":547:596  Car(msg.sender,address(0x00),\"Prius\",2015,500000) */\n      0xffffffffffffffffffffffffffffffffffffffff\n      and\n      dup2\n      mstore\n      0x20\n      add\n        /* \"contracts/6_Structs.sol\":570:574  0x00 */\n      0x00\n        /* \"contracts/6_Structs.sol\":547:596  Car(msg.sender,address(0x00),\"Prius\",2015,500000) */\n      0xffffffffffffffffffffffffffffffffffffffff\n      and\n      dup2\n      mstore\n      0x20\n      add\n      mload(0x40)\n      dup1\n      0x40\n      add\n      0x40\n      mstore\n      dup1\n      0x05\n      dup2\n      mstore\n      0x20\n      add\n      0x5072697573000000000000000000000000000000000000000000000000000000\n      dup2\n      mstore\n      pop\n      dup2\n      mstore\n      0x20\n      add\n        /* \"contracts/6_Structs.sol\":584:588  2015 */\n      0x07df\n        /* \"contracts/6_Structs.sol\":547:596  Car(msg.sender,address(0x00),\"Prius\",2015,500000) */\n      dup2\n      mstore\n      0x20\n      add\n        /* \"contracts/6_Structs.sol\":589:595  500000 */\n      0x07a120\n        /* \"contracts/6_Structs.sol\":547:596  Car(msg.sender,address(0x00),\"Prius\",2015,500000) */\n      dup2\n      mstore\n      pop\n        /* \"contracts/6_Structs.sol\":529:596  Car memory car1 = Car(msg.sender,address(0x00),\"Prius\",2015,500000) */\n      swap1\n      pop\n        /* \"contracts/6_Structs.sol\":607:617  collection */\n      0x00\n        /* \"contracts/6_Structs.sol\":623:627  car1 */\n      dup2\n        /* \"contracts/6_Structs.sol\":607:628  collection.push(car1) */\n      swap1\n      dup1\n      0x01\n      dup2\n      sload\n      add\n      dup1\n      dup3\n      sstore\n      dup1\n      swap2\n      pop\n      pop\n      0x01\n      swap1\n      sub\n      swap1\n      0x00\n      mstore\n      keccak256(0x00, 0x20)\n      swap1\n      0x05\n      mul\n      add\n      0x00\n      swap1\n      swap2\n      swap1\n      swap2\n      swap1\n      swap2\n      pop\n      0x00\n      dup3\n      add\n      mload\n      dup2\n      0x00\n      add\n      exp(0x0100, 0x00)\n      dup2\n      sload\n      dup2\n      0xffffffffffffffffffffffffffffffffffffffff\n      mul\n      not\n      and\n      swap1\n      dup4\n      0xffffffffffffffffffffffffffffffffffffffff\n      and\n      mul\n      or\n      swap1\n      sstore\n      pop\n      0x20\n      dup3\n      add\n      mload\n      dup2\n      0x01\n      add\n      exp(0x0100, 0x00)\n      dup2\n      sload\n      dup2\n      0xffffffffffffffffffffffffffffffffffffffff\n      mul\n      not\n      and\n      swap1\n      dup4\n      0xffffffffffffffffffffffffffffffffffffffff\n      and\n      mul\n      or\n      swap1\n      sstore\n      pop\n      0x40\n      dup3\n      add\n      mload\n      dup2\n      0x02\n      add\n      swap1\n      dup2\n      tag_21\n      swap2\n      swap1\n      tag_19\n      jump\t// in\n    tag_21:\n      pop\n      0x60\n      dup3\n      add\n      mload\n      dup2\n      0x03\n      add\n      sstore\n      0x80\n      dup3\n      add\n      mload\n      dup2\n      0x04\n      add\n      sstore\n      pop\n      pop\n        /* \"contracts/6_Structs.sol\":744:759  Car memory car2 */\n      0x00\n        /* \"contracts/6_Structs.sol\":762:912  Car({... */\n      mload(0x40)\n      dup1\n      0xa0\n      add\n      0x40\n      mstore\n      dup1\n        /* \"contracts/6_Structs.sol\":876:886  msg.sender */\n      caller\n        /* \"contracts/6_Structs.sol\":762:912  Car({... */\n      0xffffffffffffffffffffffffffffffffffffffff\n      and\n      dup2\n      mstore\n      0x20\n      add\n        /* \"contracts/6_Structs.sol\":850:854  0x00 */\n      0x00\n        /* \"contracts/6_Structs.sol\":762:912  Car({... */\n      0xffffffffffffffffffffffffffffffffffffffff\n      and\n      dup2\n      mstore\n      0x20\n      add\n      mload(0x40)\n      dup1\n      0x40\n      add\n      0x40\n      mstore\n      dup1\n      0x04\n      dup2\n      mstore\n      0x20\n      add\n      0x4369747900000000000000000000000000000000000000000000000000000000\n      dup2\n      mstore\n      pop\n      dup2\n      mstore\n      0x20\n      add\n        /* \"contracts/6_Structs.sol\":906:910  2023 */\n      0x07e7\n        /* \"contracts/6_Structs.sol\":762:912  Car({... */\n      dup2\n      mstore\n      0x20\n      add\n        /* \"contracts/6_Structs.sol\":787:794  1000000 */\n      0x0f4240\n        /* \"contracts/6_Structs.sol\":762:912  Car({... */\n      dup2\n      mstore\n      pop\n        /* \"contracts/6_Structs.sol\":744:912  Car memory car2 = Car({... */\n      swap1\n      pop\n        /* \"contracts/6_Structs.sol\":923:933  collection */\n      0x00\n        /* \"contracts/6_Structs.sol\":939:943  car2 */\n      dup2\n        /* \"contracts/6_Structs.sol\":923:944  collection.push(car2) */\n      swap1\n      dup1\n      0x01\n      dup2\n      sload\n      add\n      dup1\n      dup3\n      sstore\n      dup1\n      swap2\n      pop\n      pop\n      0x01\n      swap1\n      sub\n      swap1\n      0x00\n      mstore\n      keccak256(0x00, 0x20)\n      swap1\n      0x05\n      mul\n      add\n      0x00\n      swap1\n      swap2\n      swap1\n      swap2\n      swap1\n      swap2\n      pop\n      0x00\n      dup3\n      add\n      mload\n      dup2\n      0x00\n      add\n      exp(0x0100, 0x00)\n      dup2\n      sload\n      dup2\n      0xffffffffffffffffffffffffffffffffffffffff\n      mul\n      not\n      and\n      swap1\n      dup4\n      0xffffffffffffffffffffffffffffffffffffffff\n      and\n      mul\n      or\n      swap1\n      sstore\n      pop\n      0x20\n      dup3\n      add\n      mload\n      dup2\n      0x01\n      add\n      exp(0x0100, 0x00)\n      dup2\n      sload\n      dup2\n      0xffffffffffffffffffffffffffffffffffffffff\n      mul\n      not\n      and\n      swap1\n      dup4\n      0xffffffffffffffffffffffffffffffffffffffff\n      and\n      mul\n      or\n      swap1\n      sstore\n      pop\n      0x40\n      dup3\n      add\n      mload\n      dup2\n      0x02\n      add\n      swap1\n      dup2\n      tag_23\n      swap2\n      swap1\n      tag_19\n      jump\t// in\n    tag_23:\n      pop\n      0x60\n      dup3\n      add\n      mload\n      dup2\n      0x03\n      add\n      sstore\n      0x80\n      dup3\n      add\n      mload\n      dup2\n      0x04\n      add\n      sstore\n      pop\n      pop\n        /* \"contracts/6_Structs.sol\":282:952  {... */\n      pop\n      pop\n      pop\n        /* \"contracts/6_Structs.sol\":255:952  function examples() public {... */\n      jump\t// out\n        /* \"contracts/6_Structs.sol\":1173:1275  function addGenericCar() public {... */\n    tag_9:\n        /* \"contracts/6_Structs.sol\":1216:1233  Car memory newCar */\n      tag_25\n      tag_16\n      jump\t// in\n    tag_25:\n        /* \"contracts/6_Structs.sol\":1244:1254  collection */\n      0x00\n        /* \"contracts/6_Structs.sol\":1260:1266  newCar */\n      dup2\n        /* \"contracts/6_Structs.sol\":1244:1267  collection.push(newCar) */\n      swap1\n      dup1\n      0x01\n      dup2\n      sload\n      add\n      dup1\n      dup3\n      sstore\n      dup1\n      swap2\n      pop\n      pop\n      0x01\n      swap1\n      sub\n      swap1\n      0x00\n      mstore\n      keccak256(0x00, 0x20)\n      swap1\n      0x05\n      mul\n      add\n      0x00\n      swap1\n      swap2\n      swap1\n      swap2\n      swap1\n      swap2\n      pop\n      0x00\n      dup3\n      add\n      mload\n      dup2\n      0x00\n      add\n      exp(0x0100, 0x00)\n      dup2\n      sload\n      dup2\n      0xffffffffffffffffffffffffffffffffffffffff\n      mul\n      not\n      and\n      swap1\n      dup4\n      0xffffffffffffffffffffffffffffffffffffffff\n      and\n      mul\n      or\n      swap1\n      sstore\n      pop\n      0x20\n      dup3\n      add\n      mload\n      dup2\n      0x01\n      add\n      exp(0x0100, 0x00)\n      dup2\n      sload\n      dup2\n      0xffffffffffffffffffffffffffffffffffffffff\n      mul\n      not\n      and\n      swap1\n      dup4\n      0xffffffffffffffffffffffffffffffffffffffff\n      and\n      mul\n      or\n      swap1\n      sstore\n      pop\n      0x40\n      dup3\n      add\n      mload\n      dup2\n      0x02\n      add\n      swap1\n      dup2\n      tag_27\n      swap2\n      swap1\n      tag_19\n      jump\t// in\n    tag_27:\n      pop\n      0x60\n      dup3\n      add\n      mload\n      dup2\n      0x03\n      add\n      sstore\n      0x80\n      dup3\n      add\n      mload\n      dup2\n      0x04\n      add\n      sstore\n      pop\n      pop\n        /* \"contracts/6_Structs.sol\":1205:1275  {... */\n      pop\n        /* \"contracts/6_Structs.sol\":1173:1275  function addGenericCar() public {... */\n      jump\t// out\n        /* \"contracts/6_Structs.sol\":960:1165  function addCartoCollection(address brand, string memory model, uint year, uint price) public {... */\n    tag_13:\n        /* \"contracts/6_Structs.sol\":1065:1082  Car memory newCar */\n      0x00\n        /* \"contracts/6_Structs.sol\":1085:1123  Car(msg.sender,brand,model,year,price) */\n      mload(0x40)\n      dup1\n      0xa0\n      add\n      0x40\n      mstore\n      dup1\n        /* \"contracts/6_Structs.sol\":1089:1099  msg.sender */\n      caller\n        /* \"contracts/6_Structs.sol\":1085:1123  Car(msg.sender,brand,model,year,price) */\n      0xffffffffffffffffffffffffffffffffffffffff\n      and\n      dup2\n      mstore\n      0x20\n      add\n        /* \"contracts/6_Structs.sol\":1100:1105  brand */\n      dup7\n        /* \"contracts/6_Structs.sol\":1085:1123  Car(msg.sender,brand,model,year,price) */\n      0xffffffffffffffffffffffffffffffffffffffff\n      and\n      dup2\n      mstore\n      0x20\n      add\n        /* \"contracts/6_Structs.sol\":1106:1111  model */\n      dup6\n        /* \"contracts/6_Structs.sol\":1085:1123  Car(msg.sender,brand,model,year,price) */\n      dup2\n      mstore\n      0x20\n      add\n        /* \"contracts/6_Structs.sol\":1112:1116  year */\n      dup5\n        /* \"contracts/6_Structs.sol\":1085:1123  Car(msg.sender,brand,model,year,price) */\n      dup2\n      mstore\n      0x20\n      add\n        /* \"contracts/6_Structs.sol\":1117:1122  price */\n      dup4\n        /* \"contracts/6_Structs.sol\":1085:1123  Car(msg.sender,brand,model,year,price) */\n      dup2\n      mstore\n      pop\n        /* \"contracts/6_Structs.sol\":1065:1123  Car memory newCar = Car(msg.sender,brand,model,year,price) */\n      swap1\n      pop\n        /* \"contracts/6_Structs.sol\":1134:1144  collection */\n      0x00\n        /* \"contracts/6_Structs.sol\":1150:1156  newCar */\n      dup2\n        /* \"contracts/6_Structs.sol\":1134:1157  collection.push(newCar) */\n      swap1\n      dup1\n      0x01\n      dup2\n      sload\n      add\n      dup1\n      dup3\n      sstore\n      dup1\n      swap2\n      pop\n      pop\n      0x01\n      swap1\n      sub\n      swap1\n      0x00\n      mstore\n      keccak256(0x00, 0x20)\n      swap1\n      0x05\n      mul\n      add\n      0x00\n      swap1\n      swap2\n      swap1\n      swap2\n      swap1\n      swap2\n      pop\n      0x00\n      dup3\n      add\n      mload\n      dup2\n      0x00\n      add\n      exp(0x0100, 0x00)\n      dup2\n      sload\n      dup2\n      0xffffffffffffffffffffffffffffffffffffffff\n      mul\n      not\n      and\n      swap1\n      dup4\n      0xffffffffffffffffffffffffffffffffffffffff\n      and\n      mul\n      or\n      swap1\n      sstore\n      pop\n      0x20\n      dup3\n      add\n      mload\n      dup2\n      0x01\n      add\n      exp(0x0100, 0x00)\n      dup2\n      sload\n      dup2\n      0xffffffffffffffffffffffffffffffffffffffff\n      mul\n      not\n      and\n      swap1\n      dup4\n      0xffffffffffffffffffffffffffffffffffffffff\n      and\n      mul\n      or\n      swap1\n      sstore\n      pop\n      0x40\n      dup3\n      add\n      mload\n      dup2\n      0x02\n      add\n      swap1\n      dup2\n      tag_30\n      swap2\n      swap1\n      tag_19\n      jump\t// in\n    tag_30:\n      pop\n      0x60\n      dup3\n      add\n      mload\n      dup2\n      0x03\n      add\n      sstore\n      0x80\n      dup3\n      add\n      mload\n      dup2\n      0x04\n      add\n      sstore\n      pop\n      pop\n        /* \"contracts/6_Structs.sol\":1054:1165  {... */\n      pop\n        /* \"contracts/6_Structs.sol\":960:1165  function addCartoCollection(address brand, string memory model, uint year, uint price) public {... */\n      pop\n      pop\n      pop\n      pop\n      jump\t// out\n    tag_16:\n      mload(0x40)\n      dup1\n      0xa0\n      add\n      0x40\n      mstore\n      dup1\n      and(0xffffffffffffffffffffffffffffffffffffffff, 0x00)\n      dup2\n      mstore\n      0x20\n      add\n      and(0xffffffffffffffffffffffffffffffffffffffff, 0x00)\n      dup2\n      mstore\n      0x20\n      add\n      0x60\n      dup2\n      mstore\n      0x20\n      add\n      0x00\n      dup2\n      mstore\n      0x20\n      add\n      0x00\n      dup2\n      mstore\n      pop\n      swap1\n      jump\t// out\n        /* \"#utility.yul\":7:82   */\n    tag_31:\n        /* \"#utility.yul\":40:46   */\n      0x00\n        /* \"#utility.yul\":73:75   */\n      0x40\n        /* \"#utility.yul\":67:76   */\n      mload\n        /* \"#utility.yul\":57:76   */\n      swap1\n      pop\n        /* \"#utility.yul\":7:82   */\n      swap1\n      jump\t// out\n        /* \"#utility.yul\":88:205   */\n    tag_32:\n        /* \"#utility.yul\":197:198   */\n      0x00\n        /* \"#utility.yul\":194:195   */\n      dup1\n        /* \"#utility.yul\":187:199   */\n      revert\n        /* \"#utility.yul\":211:328   */\n    tag_33:\n        /* \"#utility.yul\":320:321   */\n      0x00\n        /* \"#utility.yul\":317:318   */\n      dup1\n        /* \"#utility.yul\":310:322   */\n      revert\n        /* \"#utility.yul\":334:460   */\n    tag_34:\n        /* \"#utility.yul\":371:378   */\n      0x00\n        /* \"#utility.yul\":411:453   */\n      0xffffffffffffffffffffffffffffffffffffffff\n        /* \"#utility.yul\":404:409   */\n      dup3\n        /* \"#utility.yul\":400:454   */\n      and\n        /* \"#utility.yul\":389:454   */\n      swap1\n      pop\n        /* \"#utility.yul\":334:460   */\n      swap2\n      swap1\n      pop\n      jump\t// out\n        /* \"#utility.yul\":466:562   */\n    tag_35:\n        /* \"#utility.yul\":503:510   */\n      0x00\n        /* \"#utility.yul\":532:556   */\n      tag_75\n        /* \"#utility.yul\":550:555   */\n      dup3\n        /* \"#utility.yul\":532:556   */\n      tag_34\n      jump\t// in\n    tag_75:\n        /* \"#utility.yul\":521:556   */\n      swap1\n      pop\n        /* \"#utility.yul\":466:562   */\n      swap2\n      swap1\n      pop\n      jump\t// out\n        /* \"#utility.yul\":568:690   */\n    tag_36:\n        /* \"#utility.yul\":641:665   */\n      tag_77\n        /* \"#utility.yul\":659:664   */\n      dup2\n        /* \"#utility.yul\":641:665   */\n      tag_35\n      jump\t// in\n    tag_77:\n        /* \"#utility.yul\":634:639   */\n      dup2\n        /* \"#utility.yul\":631:666   */\n      eq\n        /* \"#utility.yul\":621:684   */\n      tag_78\n      jumpi\n        /* \"#utility.yul\":680:681   */\n      0x00\n        /* \"#utility.yul\":677:678   */\n      dup1\n        /* \"#utility.yul\":670:682   */\n      revert\n        /* \"#utility.yul\":621:684   */\n    tag_78:\n        /* \"#utility.yul\":568:690   */\n      pop\n      jump\t// out\n        /* \"#utility.yul\":696:835   */\n    tag_37:\n        /* \"#utility.yul\":742:747   */\n      0x00\n        /* \"#utility.yul\":780:786   */\n      dup2\n        /* \"#utility.yul\":767:787   */\n      calldataload\n        /* \"#utility.yul\":758:787   */\n      swap1\n      pop\n        /* \"#utility.yul\":796:829   */\n      tag_80\n        /* \"#utility.yul\":823:828   */\n      dup2\n        /* \"#utility.yul\":796:829   */\n      tag_36\n      jump\t// in\n    tag_80:\n        /* \"#utility.yul\":696:835   */\n      swap3\n      swap2\n      pop\n      pop\n      jump\t// out\n        /* \"#utility.yul\":841:958   */\n    tag_38:\n        /* \"#utility.yul\":950:951   */\n      0x00\n        /* \"#utility.yul\":947:948   */\n      dup1\n        /* \"#utility.yul\":940:952   */\n      revert\n        /* \"#utility.yul\":964:1081   */\n    tag_39:\n        /* \"#utility.yul\":1073:1074   */\n      0x00\n        /* \"#utility.yul\":1070:1071   */\n      dup1\n        /* \"#utility.yul\":1063:1075   */\n      revert\n        /* \"#utility.yul\":1087:1189   */\n    tag_40:\n        /* \"#utility.yul\":1128:1134   */\n      0x00\n        /* \"#utility.yul\":1179:1181   */\n      0x1f\n        /* \"#utility.yul\":1175:1182   */\n      not\n        /* \"#utility.yul\":1170:1172   */\n      0x1f\n        /* \"#utility.yul\":1163:1168   */\n      dup4\n        /* \"#utility.yul\":1159:1173   */\n      add\n        /* \"#utility.yul\":1155:1183   */\n      and\n        /* \"#utility.yul\":1145:1183   */\n      swap1\n      pop\n        /* \"#utility.yul\":1087:1189   */\n      swap2\n      swap1\n      pop\n      jump\t// out\n        /* \"#utility.yul\":1195:1375   */\n    tag_41:\n        /* \"#utility.yul\":1243:1320   */\n      0x4e487b7100000000000000000000000000000000000000000000000000000000\n        /* \"#utility.yul\":1240:1241   */\n      0x00\n        /* \"#utility.yul\":1233:1321   */\n      mstore\n        /* \"#utility.yul\":1340:1344   */\n      0x41\n        /* \"#utility.yul\":1337:1338   */\n      0x04\n        /* \"#utility.yul\":1330:1345   */\n      mstore\n        /* \"#utility.yul\":1364:1368   */\n      0x24\n        /* \"#utility.yul\":1361:1362   */\n      0x00\n        /* \"#utility.yul\":1354:1369   */\n      revert\n        /* \"#utility.yul\":1381:1662   */\n    tag_42:\n        /* \"#utility.yul\":1464:1491   */\n      tag_86\n        /* \"#utility.yul\":1486:1490   */\n      dup3\n        /* \"#utility.yul\":1464:1491   */\n      tag_40\n      jump\t// in\n    tag_86:\n        /* \"#utility.yul\":1456:1462   */\n      dup2\n        /* \"#utility.yul\":1452:1492   */\n      add\n        /* \"#utility.yul\":1594:1600   */\n      dup2\n        /* \"#utility.yul\":1582:1592   */\n      dup2\n        /* \"#utility.yul\":1579:1601   */\n      lt\n        /* \"#utility.yul\":1558:1576   */\n      0xffffffffffffffff\n        /* \"#utility.yul\":1546:1556   */\n      dup3\n        /* \"#utility.yul\":1543:1577   */\n      gt\n        /* \"#utility.yul\":1540:1602   */\n      or\n        /* \"#utility.yul\":1537:1625   */\n      iszero\n      tag_87\n      jumpi\n        /* \"#utility.yul\":1605:1623   */\n      tag_88\n      tag_41\n      jump\t// in\n    tag_88:\n        /* \"#utility.yul\":1537:1625   */\n    tag_87:\n        /* \"#utility.yul\":1645:1655   */\n      dup1\n        /* \"#utility.yul\":1641:1643   */\n      0x40\n        /* \"#utility.yul\":1634:1656   */\n      mstore\n        /* \"#utility.yul\":1424:1662   */\n      pop\n        /* \"#utility.yul\":1381:1662   */\n      pop\n      pop\n      jump\t// out\n        /* \"#utility.yul\":1668:1797   */\n    tag_43:\n        /* \"#utility.yul\":1702:1708   */\n      0x00\n        /* \"#utility.yul\":1729:1749   */\n      tag_90\n      tag_31\n      jump\t// in\n    tag_90:\n        /* \"#utility.yul\":1719:1749   */\n      swap1\n      pop\n        /* \"#utility.yul\":1758:1791   */\n      tag_91\n        /* \"#utility.yul\":1786:1790   */\n      dup3\n        /* \"#utility.yul\":1778:1784   */\n      dup3\n        /* \"#utility.yul\":1758:1791   */\n      tag_42\n      jump\t// in\n    tag_91:\n        /* \"#utility.yul\":1668:1797   */\n      swap2\n      swap1\n      pop\n      jump\t// out\n        /* \"#utility.yul\":1803:2111   */\n    tag_44:\n        /* \"#utility.yul\":1865:1869   */\n      0x00\n        /* \"#utility.yul\":1955:1973   */\n      0xffffffffffffffff\n        /* \"#utility.yul\":1947:1953   */\n      dup3\n        /* \"#utility.yul\":1944:1974   */\n      gt\n        /* \"#utility.yul\":1941:1997   */\n      iszero\n      tag_93\n      jumpi\n        /* \"#utility.yul\":1977:1995   */\n      tag_94\n      tag_41\n      jump\t// in\n    tag_94:\n        /* \"#utility.yul\":1941:1997   */\n    tag_93:\n        /* \"#utility.yul\":2015:2044   */\n      tag_95\n        /* \"#utility.yul\":2037:2043   */\n      dup3\n        /* \"#utility.yul\":2015:2044   */\n      tag_40\n      jump\t// in\n    tag_95:\n        /* \"#utility.yul\":2007:2044   */\n      swap1\n      pop\n        /* \"#utility.yul\":2099:2103   */\n      0x20\n        /* \"#utility.yul\":2093:2097   */\n      dup2\n        /* \"#utility.yul\":2089:2104   */\n      add\n        /* \"#utility.yul\":2081:2104   */\n      swap1\n      pop\n        /* \"#utility.yul\":1803:2111   */\n      swap2\n      swap1\n      pop\n      jump\t// out\n        /* \"#utility.yul\":2117:2263   */\n    tag_45:\n        /* \"#utility.yul\":2214:2220   */\n      dup3\n        /* \"#utility.yul\":2209:2212   */\n      dup2\n        /* \"#utility.yul\":2204:2207   */\n      dup4\n        /* \"#utility.yul\":2191:2221   */\n      calldatacopy\n        /* \"#utility.yul\":2255:2256   */\n      0x00\n        /* \"#utility.yul\":2246:2252   */\n      dup4\n        /* \"#utility.yul\":2241:2244   */\n      dup4\n        /* \"#utility.yul\":2237:2253   */\n      add\n        /* \"#utility.yul\":2230:2257   */\n      mstore\n        /* \"#utility.yul\":2117:2263   */\n      pop\n      pop\n      pop\n      jump\t// out\n        /* \"#utility.yul\":2269:2694   */\n    tag_46:\n        /* \"#utility.yul\":2347:2352   */\n      0x00\n        /* \"#utility.yul\":2372:2438   */\n      tag_98\n        /* \"#utility.yul\":2388:2437   */\n      tag_99\n        /* \"#utility.yul\":2430:2436   */\n      dup5\n        /* \"#utility.yul\":2388:2437   */\n      tag_44\n      jump\t// in\n    tag_99:\n        /* \"#utility.yul\":2372:2438   */\n      tag_43\n      jump\t// in\n    tag_98:\n        /* \"#utility.yul\":2363:2438   */\n      swap1\n      pop\n        /* \"#utility.yul\":2461:2467   */\n      dup3\n        /* \"#utility.yul\":2454:2459   */\n      dup2\n        /* \"#utility.yul\":2447:2468   */\n      mstore\n        /* \"#utility.yul\":2499:2503   */\n      0x20\n        /* \"#utility.yul\":2492:2497   */\n      dup2\n        /* \"#utility.yul\":2488:2504   */\n      add\n        /* \"#utility.yul\":2537:2540   */\n      dup5\n        /* \"#utility.yul\":2528:2534   */\n      dup5\n        /* \"#utility.yul\":2523:2526   */\n      dup5\n        /* \"#utility.yul\":2519:2535   */\n      add\n        /* \"#utility.yul\":2516:2541   */\n      gt\n        /* \"#utility.yul\":2513:2625   */\n      iszero\n      tag_100\n      jumpi\n        /* \"#utility.yul\":2544:2623   */\n      tag_101\n      tag_39\n      jump\t// in\n    tag_101:\n        /* \"#utility.yul\":2513:2625   */\n    tag_100:\n        /* \"#utility.yul\":2634:2688   */\n      tag_102\n        /* \"#utility.yul\":2681:2687   */\n      dup5\n        /* \"#utility.yul\":2676:2679   */\n      dup3\n        /* \"#utility.yul\":2671:2674   */\n      dup6\n        /* \"#utility.yul\":2634:2688   */\n      tag_45\n      jump\t// in\n    tag_102:\n        /* \"#utility.yul\":2353:2694   */\n      pop\n        /* \"#utility.yul\":2269:2694   */\n      swap4\n      swap3\n      pop\n      pop\n      pop\n      jump\t// out\n        /* \"#utility.yul\":2714:3054   */\n    tag_47:\n        /* \"#utility.yul\":2770:2775   */\n      0x00\n        /* \"#utility.yul\":2819:2822   */\n      dup3\n        /* \"#utility.yul\":2812:2816   */\n      0x1f\n        /* \"#utility.yul\":2804:2810   */\n      dup4\n        /* \"#utility.yul\":2800:2817   */\n      add\n        /* \"#utility.yul\":2796:2823   */\n      slt\n        /* \"#utility.yul\":2786:2908   */\n      tag_104\n      jumpi\n        /* \"#utility.yul\":2827:2906   */\n      tag_105\n      tag_38\n      jump\t// in\n    tag_105:\n        /* \"#utility.yul\":2786:2908   */\n    tag_104:\n        /* \"#utility.yul\":2944:2950   */\n      dup2\n        /* \"#utility.yul\":2931:2951   */\n      calldataload\n        /* \"#utility.yul\":2969:3048   */\n      tag_106\n        /* \"#utility.yul\":3044:3047   */\n      dup5\n        /* \"#utility.yul\":3036:3042   */\n      dup3\n        /* \"#utility.yul\":3029:3033   */\n      0x20\n        /* \"#utility.yul\":3021:3027   */\n      dup7\n        /* \"#utility.yul\":3017:3034   */\n      add\n        /* \"#utility.yul\":2969:3048   */\n      tag_46\n      jump\t// in\n    tag_106:\n        /* \"#utility.yul\":2960:3048   */\n      swap2\n      pop\n        /* \"#utility.yul\":2776:3054   */\n      pop\n        /* \"#utility.yul\":2714:3054   */\n      swap3\n      swap2\n      pop\n      pop\n      jump\t// out\n        /* \"#utility.yul\":3060:3137   */\n    tag_48:\n        /* \"#utility.yul\":3097:3104   */\n      0x00\n        /* \"#utility.yul\":3126:3131   */\n      dup2\n        /* \"#utility.yul\":3115:3131   */\n      swap1\n      pop\n        /* \"#utility.yul\":3060:3137   */\n      swap2\n      swap1\n      pop\n      jump\t// out\n        /* \"#utility.yul\":3143:3265   */\n    tag_49:\n        /* \"#utility.yul\":3216:3240   */\n      tag_109\n        /* \"#utility.yul\":3234:3239   */\n      dup2\n        /* \"#utility.yul\":3216:3240   */\n      tag_48\n      jump\t// in\n    tag_109:\n        /* \"#utility.yul\":3209:3214   */\n      dup2\n        /* \"#utility.yul\":3206:3241   */\n      eq\n        /* \"#utility.yul\":3196:3259   */\n      tag_110\n      jumpi\n        /* \"#utility.yul\":3255:3256   */\n      0x00\n        /* \"#utility.yul\":3252:3253   */\n      dup1\n        /* \"#utility.yul\":3245:3257   */\n      revert\n        /* \"#utility.yul\":3196:3259   */\n    tag_110:\n        /* \"#utility.yul\":3143:3265   */\n      pop\n      jump\t// out\n        /* \"#utility.yul\":3271:3410   */\n    tag_50:\n        /* \"#utility.yul\":3317:3322   */\n      0x00\n        /* \"#utility.yul\":3355:3361   */\n      dup2\n        /* \"#utility.yul\":3342:3362   */\n      calldataload\n        /* \"#utility.yul\":3333:3362   */\n      swap1\n      pop\n        /* \"#utility.yul\":3371:3404   */\n      tag_112\n        /* \"#utility.yul\":3398:3403   */\n      dup2\n        /* \"#utility.yul\":3371:3404   */\n      tag_49\n      jump\t// in\n    tag_112:\n        /* \"#utility.yul\":3271:3410   */\n      swap3\n      swap2\n      pop\n      pop\n      jump\t// out\n        /* \"#utility.yul\":3416:4361   */\n    tag_12:\n        /* \"#utility.yul\":3512:3518   */\n      0x00\n        /* \"#utility.yul\":3520:3526   */\n      dup1\n        /* \"#utility.yul\":3528:3534   */\n      0x00\n        /* \"#utility.yul\":3536:3542   */\n      dup1\n        /* \"#utility.yul\":3585:3588   */\n      0x80\n        /* \"#utility.yul\":3573:3582   */\n      dup6\n        /* \"#utility.yul\":3564:3571   */\n      dup8\n        /* \"#utility.yul\":3560:3583   */\n      sub\n        /* \"#utility.yul\":3556:3589   */\n      slt\n        /* \"#utility.yul\":3553:3673   */\n      iszero\n      tag_114\n      jumpi\n        /* \"#utility.yul\":3592:3671   */\n      tag_115\n      tag_32\n      jump\t// in\n    tag_115:\n        /* \"#utility.yul\":3553:3673   */\n    tag_114:\n        /* \"#utility.yul\":3712:3713   */\n      0x00\n        /* \"#utility.yul\":3737:3790   */\n      tag_116\n        /* \"#utility.yul\":3782:3789   */\n      dup8\n        /* \"#utility.yul\":3773:3779   */\n      dup3\n        /* \"#utility.yul\":3762:3771   */\n      dup9\n        /* \"#utility.yul\":3758:3780   */\n      add\n        /* \"#utility.yul\":3737:3790   */\n      tag_37\n      jump\t// in\n    tag_116:\n        /* \"#utility.yul\":3727:3790   */\n      swap5\n      pop\n        /* \"#utility.yul\":3683:3800   */\n      pop\n        /* \"#utility.yul\":3867:3869   */\n      0x20\n        /* \"#utility.yul\":3856:3865   */\n      dup6\n        /* \"#utility.yul\":3852:3870   */\n      add\n        /* \"#utility.yul\":3839:3871   */\n      calldataload\n        /* \"#utility.yul\":3898:3916   */\n      0xffffffffffffffff\n        /* \"#utility.yul\":3890:3896   */\n      dup2\n        /* \"#utility.yul\":3887:3917   */\n      gt\n        /* \"#utility.yul\":3884:4001   */\n      iszero\n      tag_117\n      jumpi\n        /* \"#utility.yul\":3920:3999   */\n      tag_118\n      tag_33\n      jump\t// in\n    tag_118:\n        /* \"#utility.yul\":3884:4001   */\n    tag_117:\n        /* \"#utility.yul\":4025:4088   */\n      tag_119\n        /* \"#utility.yul\":4080:4087   */\n      dup8\n        /* \"#utility.yul\":4071:4077   */\n      dup3\n        /* \"#utility.yul\":4060:4069   */\n      dup9\n        /* \"#utility.yul\":4056:4078   */\n      add\n        /* \"#utility.yul\":4025:4088   */\n      tag_47\n      jump\t// in\n    tag_119:\n        /* \"#utility.yul\":4015:4088   */\n      swap4\n      pop\n        /* \"#utility.yul\":3810:4098   */\n      pop\n        /* \"#utility.yul\":4137:4139   */\n      0x40\n        /* \"#utility.yul\":4163:4216   */\n      tag_120\n        /* \"#utility.yul\":4208:4215   */\n      dup8\n        /* \"#utility.yul\":4199:4205   */\n      dup3\n        /* \"#utility.yul\":4188:4197   */\n      dup9\n        /* \"#utility.yul\":4184:4206   */\n      add\n        /* \"#utility.yul\":4163:4216   */\n      tag_50\n      jump\t// in\n    tag_120:\n        /* \"#utility.yul\":4153:4216   */\n      swap3\n      pop\n        /* \"#utility.yul\":4108:4226   */\n      pop\n        /* \"#utility.yul\":4265:4267   */\n      0x60\n        /* \"#utility.yul\":4291:4344   */\n      tag_121\n        /* \"#utility.yul\":4336:4343   */\n      dup8\n        /* \"#utility.yul\":4327:4333   */\n      dup3\n        /* \"#utility.yul\":4316:4325   */\n      dup9\n        /* \"#utility.yul\":4312:4334   */\n      add\n        /* \"#utility.yul\":4291:4344   */\n      tag_50\n      jump\t// in\n    tag_121:\n        /* \"#utility.yul\":4281:4344   */\n      swap2\n      pop\n        /* \"#utility.yul\":4236:4354   */\n      pop\n        /* \"#utility.yul\":3416:4361   */\n      swap3\n      swap6\n      swap2\n      swap5\n      pop\n      swap3\n      pop\n      jump\t// out\n        /* \"#utility.yul\":4367:4466   */\n    tag_51:\n        /* \"#utility.yul\":4419:4425   */\n      0x00\n        /* \"#utility.yul\":4453:4458   */\n      dup2\n        /* \"#utility.yul\":4447:4459   */\n      mload\n        /* \"#utility.yul\":4437:4459   */\n      swap1\n      pop\n        /* \"#utility.yul\":4367:4466   */\n      swap2\n      swap1\n      pop\n      jump\t// out\n        /* \"#utility.yul\":4472:4652   */\n    tag_52:\n        /* \"#utility.yul\":4520:4597   */\n      0x4e487b7100000000000000000000000000000000000000000000000000000000\n        /* \"#utility.yul\":4517:4518   */\n      0x00\n        /* \"#utility.yul\":4510:4598   */\n      mstore\n        /* \"#utility.yul\":4617:4621   */\n      0x22\n        /* \"#utility.yul\":4614:4615   */\n      0x04\n        /* \"#utility.yul\":4607:4622   */\n      mstore\n        /* \"#utility.yul\":4641:4645   */\n      0x24\n        /* \"#utility.yul\":4638:4639   */\n      0x00\n        /* \"#utility.yul\":4631:4646   */\n      revert\n        /* \"#utility.yul\":4658:4978   */\n    tag_53:\n        /* \"#utility.yul\":4702:4708   */\n      0x00\n        /* \"#utility.yul\":4739:4740   */\n      0x02\n        /* \"#utility.yul\":4733:4737   */\n      dup3\n        /* \"#utility.yul\":4729:4741   */\n      div\n        /* \"#utility.yul\":4719:4741   */\n      swap1\n      pop\n        /* \"#utility.yul\":4786:4787   */\n      0x01\n        /* \"#utility.yul\":4780:4784   */\n      dup3\n        /* \"#utility.yul\":4776:4788   */\n      and\n        /* \"#utility.yul\":4807:4825   */\n      dup1\n        /* \"#utility.yul\":4797:4878   */\n      tag_125\n      jumpi\n        /* \"#utility.yul\":4863:4867   */\n      0x7f\n        /* \"#utility.yul\":4855:4861   */\n      dup3\n        /* \"#utility.yul\":4851:4868   */\n      and\n        /* \"#utility.yul\":4841:4868   */\n      swap2\n      pop\n        /* \"#utility.yul\":4797:4878   */\n    tag_125:\n        /* \"#utility.yul\":4925:4927   */\n      0x20\n        /* \"#utility.yul\":4917:4923   */\n      dup3\n        /* \"#utility.yul\":4914:4928   */\n      lt\n        /* \"#utility.yul\":4894:4912   */\n      dup2\n        /* \"#utility.yul\":4891:4929   */\n      sub\n        /* \"#utility.yul\":4888:4972   */\n      tag_126\n      jumpi\n        /* \"#utility.yul\":4944:4962   */\n      tag_127\n      tag_52\n      jump\t// in\n    tag_127:\n        /* \"#utility.yul\":4888:4972   */\n    tag_126:\n        /* \"#utility.yul\":4709:4978   */\n      pop\n        /* \"#utility.yul\":4658:4978   */\n      swap2\n      swap1\n      pop\n      jump\t// out\n        /* \"#utility.yul\":4984:5125   */\n    tag_54:\n        /* \"#utility.yul\":5033:5037   */\n      0x00\n        /* \"#utility.yul\":5056:5059   */\n      dup2\n        /* \"#utility.yul\":5048:5059   */\n      swap1\n      pop\n        /* \"#utility.yul\":5079:5082   */\n      dup2\n        /* \"#utility.yul\":5076:5077   */\n      0x00\n        /* \"#utility.yul\":5069:5083   */\n      mstore\n        /* \"#utility.yul\":5113:5117   */\n      0x20\n        /* \"#utility.yul\":5110:5111   */\n      0x00\n        /* \"#utility.yul\":5100:5118   */\n      keccak256\n        /* \"#utility.yul\":5092:5118   */\n      swap1\n      pop\n        /* \"#utility.yul\":4984:5125   */\n      swap2\n      swap1\n      pop\n      jump\t// out\n        /* \"#utility.yul\":5131:5224   */\n    tag_55:\n        /* \"#utility.yul\":5168:5174   */\n      0x00\n        /* \"#utility.yul\":5215:5217   */\n      0x20\n        /* \"#utility.yul\":5210:5212   */\n      0x1f\n        /* \"#utility.yul\":5203:5208   */\n      dup4\n        /* \"#utility.yul\":5199:5213   */\n      add\n        /* \"#utility.yul\":5195:5218   */\n      div\n        /* \"#utility.yul\":5185:5218   */\n      swap1\n      pop\n        /* \"#utility.yul\":5131:5224   */\n      swap2\n      swap1\n      pop\n      jump\t// out\n        /* \"#utility.yul\":5230:5337   */\n    tag_56:\n        /* \"#utility.yul\":5274:5282   */\n      0x00\n        /* \"#utility.yul\":5324:5329   */\n      dup3\n        /* \"#utility.yul\":5318:5322   */\n      dup3\n        /* \"#utility.yul\":5314:5330   */\n      shl\n        /* \"#utility.yul\":5293:5330   */\n      swap1\n      pop\n        /* \"#utility.yul\":5230:5337   */\n      swap3\n      swap2\n      pop\n      pop\n      jump\t// out\n        /* \"#utility.yul\":5343:5736   */\n    tag_57:\n        /* \"#utility.yul\":5412:5418   */\n      0x00\n        /* \"#utility.yul\":5462:5463   */\n      0x08\n        /* \"#utility.yul\":5450:5460   */\n      dup4\n        /* \"#utility.yul\":5446:5464   */\n      mul\n        /* \"#utility.yul\":5485:5582   */\n      tag_132\n        /* \"#utility.yul\":5515:5581   */\n      0xffffffffffffffffffffffffffffffffffffffffffffffffffffffffffffffff\n        /* \"#utility.yul\":5504:5513   */\n      dup3\n        /* \"#utility.yul\":5485:5582   */\n      tag_56\n      jump\t// in\n    tag_132:\n        /* \"#utility.yul\":5603:5642   */\n      tag_133\n        /* \"#utility.yul\":5633:5641   */\n      dup7\n        /* \"#utility.yul\":5622:5631   */\n      dup4\n        /* \"#utility.yul\":5603:5642   */\n      tag_56\n      jump\t// in\n    tag_133:\n        /* \"#utility.yul\":5591:5642   */\n      swap6\n      pop\n        /* \"#utility.yul\":5675:5679   */\n      dup1\n        /* \"#utility.yul\":5671:5680   */\n      not\n        /* \"#utility.yul\":5664:5669   */\n      dup5\n        /* \"#utility.yul\":5660:5681   */\n      and\n        /* \"#utility.yul\":5651:5681   */\n      swap4\n      pop\n        /* \"#utility.yul\":5724:5728   */\n      dup1\n        /* \"#utility.yul\":5714:5722   */\n      dup7\n        /* \"#utility.yul\":5710:5729   */\n      and\n        /* \"#utility.yul\":5703:5708   */\n      dup5\n        /* \"#utility.yul\":5700:5730   */\n      or\n        /* \"#utility.yul\":5690:5730   */\n      swap3\n      pop\n        /* \"#utility.yul\":5419:5736   */\n      pop\n      pop\n        /* \"#utility.yul\":5343:5736   */\n      swap4\n      swap3\n      pop\n      pop\n      pop\n      jump\t// out\n        /* \"#utility.yul\":5742:5802   */\n    tag_58:\n        /* \"#utility.yul\":5770:5773   */\n      0x00\n        /* \"#utility.yul\":5791:5796   */\n      dup2\n        /* \"#utility.yul\":5784:5796   */\n      swap1\n      pop\n        /* \"#utility.yul\":5742:5802   */\n      swap2\n      swap1\n      pop\n      jump\t// out\n        /* \"#utility.yul\":5808:5950   */\n    tag_59:\n        /* \"#utility.yul\":5858:5867   */\n      0x00\n        /* \"#utility.yul\":5891:5944   */\n      tag_136\n        /* \"#utility.yul\":5909:5943   */\n      tag_137\n        /* \"#utility.yul\":5918:5942   */\n      tag_138\n        /* \"#utility.yul\":5936:5941   */\n      dup5\n        /* \"#utility.yul\":5918:5942   */\n      tag_48\n      jump\t// in\n    tag_138:\n        /* \"#utility.yul\":5909:5943   */\n      tag_58\n      jump\t// in\n    tag_137:\n        /* \"#utility.yul\":5891:5944   */\n      tag_48\n      jump\t// in\n    tag_136:\n        /* \"#utility.yul\":5878:5944   */\n      swap1\n      pop\n        /* \"#utility.yul\":5808:5950   */\n      swap2\n      swap1\n      pop\n      jump\t// out\n        /* \"#utility.yul\":5956:6031   */\n    tag_60:\n        /* \"#utility.yul\":5999:6002   */\n      0x00\n        /* \"#utility.yul\":6020:6025   */\n      dup2\n        /* \"#utility.yul\":6013:6025   */\n      swap1\n      pop\n        /* \"#utility.yul\":5956:6031   */\n      swap2\n      swap1\n      pop\n      jump\t// out\n        /* \"#utility.yul\":6037:6306   */\n    tag_61:\n        /* \"#utility.yul\":6147:6186   */\n      tag_141\n        /* \"#utility.yul\":6178:6185   */\n      dup4\n        /* \"#utility.yul\":6147:6186   */\n      tag_59\n      jump\t// in\n    tag_141:\n        /* \"#utility.yul\":6208:6299   */\n      tag_142\n        /* \"#utility.yul\":6257:6298   */\n      tag_143\n        /* \"#utility.yul\":6281:6297   */\n      dup3\n        /* \"#utility.yul\":6257:6298   */\n      tag_60\n      jump\t// in\n    tag_143:\n        /* \"#utility.yul\":6249:6255   */\n      dup5\n        /* \"#utility.yul\":6242:6246   */\n      dup5\n        /* \"#utility.yul\":6236:6247   */\n      sload\n        /* \"#utility.yul\":6208:6299   */\n      tag_57\n      jump\t// in\n    tag_142:\n        /* \"#utility.yul\":6202:6206   */\n      dup3\n        /* \"#utility.yul\":6195:6300   */\n      sstore\n        /* \"#utility.yul\":6113:6306   */\n      pop\n        /* \"#utility.yul\":6037:6306   */\n      pop\n      pop\n      pop\n      jump\t// out\n        /* \"#utility.yul\":6312:6385   */\n    tag_62:\n        /* \"#utility.yul\":6357:6360   */\n      0x00\n        /* \"#utility.yul\":6312:6385   */\n      swap1\n      jump\t// out\n        /* \"#utility.yul\":6391:6580   */\n    tag_63:\n        /* \"#utility.yul\":6468:6500   */\n      tag_146\n      tag_62\n      jump\t// in\n    tag_146:\n        /* \"#utility.yul\":6509:6574   */\n      tag_147\n        /* \"#utility.yul\":6567:6573   */\n      dup2\n        /* \"#utility.yul\":6559:6565   */\n      dup5\n        /* \"#utility.yul\":6553:6557   */\n      dup5\n        /* \"#utility.yul\":6509:6574   */\n      tag_61\n      jump\t// in\n    tag_147:\n        /* \"#utility.yul\":6444:6580   */\n      pop\n        /* \"#utility.yul\":6391:6580   */\n      pop\n      pop\n      jump\t// out\n        /* \"#utility.yul\":6586:6772   */\n    tag_64:\n        /* \"#utility.yul\":6646:6766   */\n    tag_149:\n        /* \"#utility.yul\":6663:6666   */\n      dup2\n        /* \"#utility.yul\":6656:6661   */\n      dup2\n        /* \"#utility.yul\":6653:6667   */\n      lt\n        /* \"#utility.yul\":6646:6766   */\n      iszero\n      tag_151\n      jumpi\n        /* \"#utility.yul\":6717:6756   */\n      tag_152\n        /* \"#utility.yul\":6754:6755   */\n      0x00\n        /* \"#utility.yul\":6747:6752   */\n      dup3\n        /* \"#utility.yul\":6717:6756   */\n      tag_63\n      jump\t// in\n    tag_152:\n        /* \"#utility.yul\":6690:6691   */\n      0x01\n        /* \"#utility.yul\":6683:6688   */\n      dup2\n        /* \"#utility.yul\":6679:6692   */\n      add\n        /* \"#utility.yul\":6670:6692   */\n      swap1\n      pop\n        /* \"#utility.yul\":6646:6766   */\n      jump(tag_149)\n    tag_151:\n        /* \"#utility.yul\":6586:6772   */\n      pop\n      pop\n      jump\t// out\n        /* \"#utility.yul\":6778:7321   */\n    tag_65:\n        /* \"#utility.yul\":6879:6881   */\n      0x1f\n        /* \"#utility.yul\":6874:6877   */\n      dup3\n        /* \"#utility.yul\":6871:6882   */\n      gt\n        /* \"#utility.yul\":6868:7314   */\n      iszero\n      tag_154\n      jumpi\n        /* \"#utility.yul\":6913:6951   */\n      tag_155\n        /* \"#utility.yul\":6945:6950   */\n      dup2\n        /* \"#utility.yul\":6913:6951   */\n      tag_54\n      jump\t// in\n    tag_155:\n        /* \"#utility.yul\":6997:7026   */\n      tag_156\n        /* \"#utility.yul\":7015:7025   */\n      dup5\n        /* \"#utility.yul\":6997:7026   */\n      tag_55\n      jump\t// in\n    tag_156:\n        /* \"#utility.yul\":6987:6995   */\n      dup2\n        /* \"#utility.yul\":6983:7027   */\n      add\n        /* \"#utility.yul\":7180:7182   */\n      0x20\n        /* \"#utility.yul\":7168:7178   */\n      dup6\n        /* \"#utility.yul\":7165:7183   */\n      lt\n        /* \"#utility.yul\":7162:7211   */\n      iszero\n      tag_157\n      jumpi\n        /* \"#utility.yul\":7201:7209   */\n      dup2\n        /* \"#utility.yul\":7186:7209   */\n      swap1\n      pop\n        /* \"#utility.yul\":7162:7211   */\n    tag_157:\n        /* \"#utility.yul\":7224:7304   */\n      tag_158\n        /* \"#utility.yul\":7280:7302   */\n      tag_159\n        /* \"#utility.yul\":7298:7301   */\n      dup6\n        /* \"#utility.yul\":7280:7302   */\n      tag_55\n      jump\t// in\n    tag_159:\n        /* \"#utility.yul\":7270:7278   */\n      dup4\n        /* \"#utility.yul\":7266:7303   */\n      add\n        /* \"#utility.yul\":7253:7264   */\n      dup3\n        /* \"#utility.yul\":7224:7304   */\n      tag_64\n      jump\t// in\n    tag_158:\n        /* \"#utility.yul\":6883:7314   */\n      pop\n      pop\n        /* \"#utility.yul\":6868:7314   */\n    tag_154:\n        /* \"#utility.yul\":6778:7321   */\n      pop\n      pop\n      pop\n      jump\t// out\n        /* \"#utility.yul\":7327:7444   */\n    tag_66:\n        /* \"#utility.yul\":7381:7389   */\n      0x00\n        /* \"#utility.yul\":7431:7436   */\n      dup3\n        /* \"#utility.yul\":7425:7429   */\n      dup3\n        /* \"#utility.yul\":7421:7437   */\n      shr\n        /* \"#utility.yul\":7400:7437   */\n      swap1\n      pop\n        /* \"#utility.yul\":7327:7444   */\n      swap3\n      swap2\n      pop\n      pop\n      jump\t// out\n        /* \"#utility.yul\":7450:7619   */\n    tag_67:\n        /* \"#utility.yul\":7494:7500   */\n      0x00\n        /* \"#utility.yul\":7527:7578   */\n      tag_162\n        /* \"#utility.yul\":7575:7576   */\n      0x00\n        /* \"#utility.yul\":7571:7577   */\n      not\n        /* \"#utility.yul\":7563:7568   */\n      dup5\n        /* \"#utility.yul\":7560:7561   */\n      0x08\n        /* \"#utility.yul\":7556:7569   */\n      mul\n        /* \"#utility.yul\":7527:7578   */\n      tag_66\n      jump\t// in\n    tag_162:\n        /* \"#utility.yul\":7523:7579   */\n      not\n        /* \"#utility.yul\":7608:7612   */\n      dup1\n        /* \"#utility.yul\":7602:7606   */\n      dup4\n        /* \"#utility.yul\":7598:7613   */\n      and\n        /* \"#utility.yul\":7588:7613   */\n      swap2\n      pop\n        /* \"#utility.yul\":7501:7619   */\n      pop\n        /* \"#utility.yul\":7450:7619   */\n      swap3\n      swap2\n      pop\n      pop\n      jump\t// out\n        /* \"#utility.yul\":7624:7919   */\n    tag_68:\n        /* \"#utility.yul\":7700:7704   */\n      0x00\n        /* \"#utility.yul\":7846:7875   */\n      tag_164\n        /* \"#utility.yul\":7871:7874   */\n      dup4\n        /* \"#utility.yul\":7865:7869   */\n      dup4\n        /* \"#utility.yul\":7846:7875   */\n      tag_67\n      jump\t// in\n    tag_164:\n        /* \"#utility.yul\":7838:7875   */\n      swap2\n      pop\n        /* \"#utility.yul\":7908:7911   */\n      dup3\n        /* \"#utility.yul\":7905:7906   */\n      0x02\n        /* \"#utility.yul\":7901:7912   */\n      mul\n        /* \"#utility.yul\":7895:7899   */\n      dup3\n        /* \"#utility.yul\":7892:7913   */\n      or\n        /* \"#utility.yul\":7884:7913   */\n      swap1\n      pop\n        /* \"#utility.yul\":7624:7919   */\n      swap3\n      swap2\n      pop\n      pop\n      jump\t// out\n        /* \"#utility.yul\":7924:9319   */\n    tag_19:\n        /* \"#utility.yul\":8041:8078   */\n      tag_166\n        /* \"#utility.yul\":8074:8077   */\n      dup3\n        /* \"#utility.yul\":8041:8078   */\n      tag_51\n      jump\t// in\n    tag_166:\n        /* \"#utility.yul\":8143:8161   */\n      0xffffffffffffffff\n        /* \"#utility.yul\":8135:8141   */\n      dup2\n        /* \"#utility.yul\":8132:8162   */\n      gt\n        /* \"#utility.yul\":8129:8185   */\n      iszero\n      tag_167\n      jumpi\n        /* \"#utility.yul\":8165:8183   */\n      tag_168\n      tag_41\n      jump\t// in\n    tag_168:\n        /* \"#utility.yul\":8129:8185   */\n    tag_167:\n        /* \"#utility.yul\":8209:8247   */\n      tag_169\n        /* \"#utility.yul\":8241:8245   */\n      dup3\n        /* \"#utility.yul\":8235:8246   */\n      sload\n        /* \"#utility.yul\":8209:8247   */\n      tag_53\n      jump\t// in\n    tag_169:\n        /* \"#utility.yul\":8294:8361   */\n      tag_170\n        /* \"#utility.yul\":8354:8360   */\n      dup3\n        /* \"#utility.yul\":8346:8352   */\n      dup3\n        /* \"#utility.yul\":8340:8344   */\n      dup6\n        /* \"#utility.yul\":8294:8361   */\n      tag_65\n      jump\t// in\n    tag_170:\n        /* \"#utility.yul\":8388:8389   */\n      0x00\n        /* \"#utility.yul\":8412:8416   */\n      0x20\n        /* \"#utility.yul\":8399:8416   */\n      swap1\n      pop\n        /* \"#utility.yul\":8444:8446   */\n      0x1f\n        /* \"#utility.yul\":8436:8442   */\n      dup4\n        /* \"#utility.yul\":8433:8447   */\n      gt\n        /* \"#utility.yul\":8461:8462   */\n      0x01\n        /* \"#utility.yul\":8456:9074   */\n      dup2\n      eq\n      tag_172\n      jumpi\n        /* \"#utility.yul\":9118:9119   */\n      0x00\n        /* \"#utility.yul\":9135:9141   */\n      dup5\n        /* \"#utility.yul\":9132:9209   */\n      iszero\n      tag_173\n      jumpi\n        /* \"#utility.yul\":9184:9193   */\n      dup3\n        /* \"#utility.yul\":9179:9182   */\n      dup8\n        /* \"#utility.yul\":9175:9194   */\n      add\n        /* \"#utility.yul\":9169:9195   */\n      mload\n        /* \"#utility.yul\":9160:9195   */\n      swap1\n      pop\n        /* \"#utility.yul\":9132:9209   */\n    tag_173:\n        /* \"#utility.yul\":9235:9302   */\n      tag_174\n        /* \"#utility.yul\":9295:9301   */\n      dup6\n        /* \"#utility.yul\":9288:9293   */\n      dup3\n        /* \"#utility.yul\":9235:9302   */\n      tag_68\n      jump\t// in\n    tag_174:\n        /* \"#utility.yul\":9229:9233   */\n      dup7\n        /* \"#utility.yul\":9222:9303   */\n      sstore\n        /* \"#utility.yul\":9091:9313   */\n      pop\n        /* \"#utility.yul\":8426:9313   */\n      jump(tag_171)\n        /* \"#utility.yul\":8456:9074   */\n    tag_172:\n        /* \"#utility.yul\":8508:8512   */\n      0x1f\n        /* \"#utility.yul\":8504:8513   */\n      not\n        /* \"#utility.yul\":8496:8502   */\n      dup5\n        /* \"#utility.yul\":8492:8514   */\n      and\n        /* \"#utility.yul\":8542:8579   */\n      tag_175\n        /* \"#utility.yul\":8574:8578   */\n      dup7\n        /* \"#utility.yul\":8542:8579   */\n      tag_54\n      jump\t// in\n    tag_175:\n        /* \"#utility.yul\":8601:8602   */\n      0x00\n        /* \"#utility.yul\":8615:8823   */\n    tag_176:\n        /* \"#utility.yul\":8629:8636   */\n      dup3\n        /* \"#utility.yul\":8626:8627   */\n      dup2\n        /* \"#utility.yul\":8623:8637   */\n      lt\n        /* \"#utility.yul\":8615:8823   */\n      iszero\n      tag_178\n      jumpi\n        /* \"#utility.yul\":8708:8717   */\n      dup5\n        /* \"#utility.yul\":8703:8706   */\n      dup10\n        /* \"#utility.yul\":8699:8718   */\n      add\n        /* \"#utility.yul\":8693:8719   */\n      mload\n        /* \"#utility.yul\":8685:8691   */\n      dup3\n        /* \"#utility.yul\":8678:8720   */\n      sstore\n        /* \"#utility.yul\":8759:8760   */\n      0x01\n        /* \"#utility.yul\":8751:8757   */\n      dup3\n        /* \"#utility.yul\":8747:8761   */\n      add\n        /* \"#utility.yul\":8737:8761   */\n      swap2\n      pop\n        /* \"#utility.yul\":8806:8808   */\n      0x20\n        /* \"#utility.yul\":8795:8804   */\n      dup6\n        /* \"#utility.yul\":8791:8809   */\n      add\n        /* \"#utility.yul\":8778:8809   */\n      swap5\n      pop\n        /* \"#utility.yul\":8652:8656   */\n      0x20\n        /* \"#utility.yul\":8649:8650   */\n      dup2\n        /* \"#utility.yul\":8645:8657   */\n      add\n        /* \"#utility.yul\":8640:8657   */\n      swap1\n      pop\n        /* \"#utility.yul\":8615:8823   */\n      jump(tag_176)\n    tag_178:\n        /* \"#utility.yul\":8851:8857   */\n      dup7\n        /* \"#utility.yul\":8842:8849   */\n      dup4\n        /* \"#utility.yul\":8839:8858   */\n      lt\n        /* \"#utility.yul\":8836:9015   */\n      iszero\n      tag_179\n      jumpi\n        /* \"#utility.yul\":8909:8918   */\n      dup5\n        /* \"#utility.yul\":8904:8907   */\n      dup10\n        /* \"#utility.yul\":8900:8919   */\n      add\n        /* \"#utility.yul\":8894:8920   */\n      mload\n        /* \"#utility.yul\":8952:9000   */\n      tag_180\n        /* \"#utility.yul\":8994:8998   */\n      0x1f\n        /* \"#utility.yul\":8986:8992   */\n      dup10\n        /* \"#utility.yul\":8982:8999   */\n      and\n        /* \"#utility.yul\":8971:8980   */\n      dup3\n        /* \"#utility.yul\":8952:9000   */\n      tag_67\n      jump\t// in\n    tag_180:\n        /* \"#utility.yul\":8944:8950   */\n      dup4\n        /* \"#utility.yul\":8937:9001   */\n      sstore\n        /* \"#utility.yul\":8859:9015   */\n      pop\n        /* \"#utility.yul\":8836:9015   */\n    tag_179:\n        /* \"#utility.yul\":9061:9062   */\n      0x01\n        /* \"#utility.yul\":9057:9058   */\n      0x02\n        /* \"#utility.yul\":9049:9055   */\n      dup9\n        /* \"#utility.yul\":9045:9059   */\n      mul\n        /* \"#utility.yul\":9041:9063   */\n      add\n        /* \"#utility.yul\":9035:9039   */\n      dup9\n        /* \"#utility.yul\":9028:9064   */\n      sstore\n        /* \"#utility.yul\":8463:9074   */\n      pop\n      pop\n      pop\n        /* \"#utility.yul\":8426:9313   */\n    tag_171:\n      pop\n        /* \"#utility.yul\":8016:9319   */\n      pop\n      pop\n      pop\n        /* \"#utility.yul\":7924:9319   */\n      pop\n      pop\n      jump\t// out\n\n    auxdata: 0xa264697066735822122086e0fd7b4d40b274a8c5237d4e432831196c08da8296301194058435cd0b3bf564736f6c63430008120033\n}\n",
				"bytecode": {
					"linkReferences": {},
					"object": "608060405234801561001057600080fd5b50610c79806100206000396000f3fe608060405234801561001057600080fd5b50600436106100415760003560e01c8063335d00c21461004657806343e1c7c2146100505780639e73e04d1461005a575b600080fd5b61004e610076565b005b610058610459565b005b610074600480360381019061006f91906108d7565b61054a565b005b61007e61068e565b600081908060018154018082558091505060019003906000526020600020906005020160009091909190915060008201518160000160006101000a81548173ffffffffffffffffffffffffffffffffffffffff021916908373ffffffffffffffffffffffffffffffffffffffff16021790555060208201518160010160006101000a81548173ffffffffffffffffffffffffffffffffffffffff021916908373ffffffffffffffffffffffffffffffffffffffff160217905550604082015181600201908161014d9190610b71565b506060820151816003015560808201518160040155505060006040518060a001604052803373ffffffffffffffffffffffffffffffffffffffff168152602001600073ffffffffffffffffffffffffffffffffffffffff1681526020016040518060400160405280600581526020017f507269757300000000000000000000000000000000000000000000000000000081525081526020016107df81526020016207a1208152509050600081908060018154018082558091505060019003906000526020600020906005020160009091909190915060008201518160000160006101000a81548173ffffffffffffffffffffffffffffffffffffffff021916908373ffffffffffffffffffffffffffffffffffffffff16021790555060208201518160010160006101000a81548173ffffffffffffffffffffffffffffffffffffffff021916908373ffffffffffffffffffffffffffffffffffffffff16021790555060408201518160020190816102c59190610b71565b506060820151816003015560808201518160040155505060006040518060a001604052803373ffffffffffffffffffffffffffffffffffffffff168152602001600073ffffffffffffffffffffffffffffffffffffffff1681526020016040518060400160405280600481526020017f436974790000000000000000000000000000000000000000000000000000000081525081526020016107e78152602001620f42408152509050600081908060018154018082558091505060019003906000526020600020906005020160009091909190915060008201518160000160006101000a81548173ffffffffffffffffffffffffffffffffffffffff021916908373ffffffffffffffffffffffffffffffffffffffff16021790555060208201518160010160006101000a81548173ffffffffffffffffffffffffffffffffffffffff021916908373ffffffffffffffffffffffffffffffffffffffff160217905550604082015181600201908161043d9190610b71565b5060608201518160030155608082015181600401555050505050565b61046161068e565b600081908060018154018082558091505060019003906000526020600020906005020160009091909190915060008201518160000160006101000a81548173ffffffffffffffffffffffffffffffffffffffff021916908373ffffffffffffffffffffffffffffffffffffffff16021790555060208201518160010160006101000a81548173ffffffffffffffffffffffffffffffffffffffff021916908373ffffffffffffffffffffffffffffffffffffffff16021790555060408201518160020190816105309190610b71565b506060820151816003015560808201518160040155505050565b60006040518060a001604052803373ffffffffffffffffffffffffffffffffffffffff1681526020018673ffffffffffffffffffffffffffffffffffffffff168152602001858152602001848152602001838152509050600081908060018154018082558091505060019003906000526020600020906005020160009091909190915060008201518160000160006101000a81548173ffffffffffffffffffffffffffffffffffffffff021916908373ffffffffffffffffffffffffffffffffffffffff16021790555060208201518160010160006101000a81548173ffffffffffffffffffffffffffffffffffffffff021916908373ffffffffffffffffffffffffffffffffffffffff16021790555060408201518160020190816106709190610b71565b50606082015181600301556080820151816004015550505050505050565b6040518060a00160405280600073ffffffffffffffffffffffffffffffffffffffff168152602001600073ffffffffffffffffffffffffffffffffffffffff1681526020016060815260200160008152602001600081525090565b6000604051905090565b600080fd5b600080fd5b600073ffffffffffffffffffffffffffffffffffffffff82169050919050565b6000610728826106fd565b9050919050565b6107388161071d565b811461074357600080fd5b50565b6000813590506107558161072f565b92915050565b600080fd5b600080fd5b6000601f19601f8301169050919050565b7f4e487b7100000000000000000000000000000000000000000000000000000000600052604160045260246000fd5b6107ae82610765565b810181811067ffffffffffffffff821117156107cd576107cc610776565b5b80604052505050565b60006107e06106e9565b90506107ec82826107a5565b919050565b600067ffffffffffffffff82111561080c5761080b610776565b5b61081582610765565b9050602081019050919050565b82818337600083830152505050565b600061084461083f846107f1565b6107d6565b9050828152602081018484840111156108605761085f610760565b5b61086b848285610822565b509392505050565b600082601f8301126108885761088761075b565b5b8135610898848260208601610831565b91505092915050565b6000819050919050565b6108b4816108a1565b81146108bf57600080fd5b50565b6000813590506108d1816108ab565b92915050565b600080600080608085870312156108f1576108f06106f3565b5b60006108ff87828801610746565b945050602085013567ffffffffffffffff8111156109205761091f6106f8565b5b61092c87828801610873565b935050604061093d878288016108c2565b925050606061094e878288016108c2565b91505092959194509250565b600081519050919050565b7f4e487b7100000000000000000000000000000000000000000000000000000000600052602260045260246000fd5b600060028204905060018216806109ac57607f821691505b6020821081036109bf576109be610965565b5b50919050565b60008190508160005260206000209050919050565b60006020601f8301049050919050565b600082821b905092915050565b600060088302610a277fffffffffffffffffffffffffffffffffffffffffffffffffffffffffffffffff826109ea565b610a3186836109ea565b95508019841693508086168417925050509392505050565b6000819050919050565b6000610a6e610a69610a64846108a1565b610a49565b6108a1565b9050919050565b6000819050919050565b610a8883610a53565b610a9c610a9482610a75565b8484546109f7565b825550505050565b600090565b610ab1610aa4565b610abc818484610a7f565b505050565b5b81811015610ae057610ad5600082610aa9565b600181019050610ac2565b5050565b601f821115610b2557610af6816109c5565b610aff846109da565b81016020851015610b0e578190505b610b22610b1a856109da565b830182610ac1565b50505b505050565b600082821c905092915050565b6000610b4860001984600802610b2a565b1980831691505092915050565b6000610b618383610b37565b9150826002028217905092915050565b610b7a8261095a565b67ffffffffffffffff811115610b9357610b92610776565b5b610b9d8254610994565b610ba8828285610ae4565b600060209050601f831160018114610bdb5760008415610bc9578287015190505b610bd38582610b55565b865550610c3b565b601f198416610be9866109c5565b60005b82811015610c1157848901518255600182019150602085019450602081019050610bec565b86831015610c2e5784890151610c2a601f891682610b37565b8355505b6001600288020188555050505b50505050505056fea264697066735822122086e0fd7b4d40b274a8c5237d4e432831196c08da8296301194058435cd0b3bf564736f6c63430008120033",
					"opcodes": "PUSH1 0x80 PUSH1 0x40 MSTORE CALLVALUE DUP1 ISZERO PUSH2 0x10 JUMPI PUSH1 0x0 DUP1 REVERT JUMPDEST POP PUSH2 0xC79 DUP1 PUSH2 0x20 PUSH1 0x0 CODECOPY PUSH1 0x0 RETURN INVALID PUSH1 0x80 PUSH1 0x40 MSTORE CALLVALUE DUP1 ISZERO PUSH2 0x10 JUMPI PUSH1 0x0 DUP1 REVERT JUMPDEST POP PUSH1 0x4 CALLDATASIZE LT PUSH2 0x41 JUMPI PUSH1 0x0 CALLDATALOAD PUSH1 0xE0 SHR DUP1 PUSH4 0x335D00C2 EQ PUSH2 0x46 JUMPI DUP1 PUSH4 0x43E1C7C2 EQ PUSH2 0x50 JUMPI DUP1 PUSH4 0x9E73E04D EQ PUSH2 0x5A JUMPI JUMPDEST PUSH1 0x0 DUP1 REVERT JUMPDEST PUSH2 0x4E PUSH2 0x76 JUMP JUMPDEST STOP JUMPDEST PUSH2 0x58 PUSH2 0x459 JUMP JUMPDEST STOP JUMPDEST PUSH2 0x74 PUSH1 0x4 DUP1 CALLDATASIZE SUB DUP2 ADD SWAP1 PUSH2 0x6F SWAP2 SWAP1 PUSH2 0x8D7 JUMP JUMPDEST PUSH2 0x54A JUMP JUMPDEST STOP JUMPDEST PUSH2 0x7E PUSH2 0x68E JUMP JUMPDEST PUSH1 0x0 DUP2 SWAP1 DUP1 PUSH1 0x1 DUP2 SLOAD ADD DUP1 DUP3 SSTORE DUP1 SWAP2 POP POP PUSH1 0x1 SWAP1 SUB SWAP1 PUSH1 0x0 MSTORE PUSH1 0x20 PUSH1 0x0 KECCAK256 SWAP1 PUSH1 0x5 MUL ADD PUSH1 0x0 SWAP1 SWAP2 SWAP1 SWAP2 SWAP1 SWAP2 POP PUSH1 0x0 DUP3 ADD MLOAD DUP2 PUSH1 0x0 ADD PUSH1 0x0 PUSH2 0x100 EXP DUP2 SLOAD DUP2 PUSH20 0xFFFFFFFFFFFFFFFFFFFFFFFFFFFFFFFFFFFFFFFF MUL NOT AND SWAP1 DUP4 PUSH20 0xFFFFFFFFFFFFFFFFFFFFFFFFFFFFFFFFFFFFFFFF AND MUL OR SWAP1 SSTORE POP PUSH1 0x20 DUP3 ADD MLOAD DUP2 PUSH1 0x1 ADD PUSH1 0x0 PUSH2 0x100 EXP DUP2 SLOAD DUP2 PUSH20 0xFFFFFFFFFFFFFFFFFFFFFFFFFFFFFFFFFFFFFFFF MUL NOT AND SWAP1 DUP4 PUSH20 0xFFFFFFFFFFFFFFFFFFFFFFFFFFFFFFFFFFFFFFFF AND MUL OR SWAP1 SSTORE POP PUSH1 0x40 DUP3 ADD MLOAD DUP2 PUSH1 0x2 ADD SWAP1 DUP2 PUSH2 0x14D SWAP2 SWAP1 PUSH2 0xB71 JUMP JUMPDEST POP PUSH1 0x60 DUP3 ADD MLOAD DUP2 PUSH1 0x3 ADD SSTORE PUSH1 0x80 DUP3 ADD MLOAD DUP2 PUSH1 0x4 ADD SSTORE POP POP PUSH1 0x0 PUSH1 0x40 MLOAD DUP1 PUSH1 0xA0 ADD PUSH1 0x40 MSTORE DUP1 CALLER PUSH20 0xFFFFFFFFFFFFFFFFFFFFFFFFFFFFFFFFFFFFFFFF AND DUP2 MSTORE PUSH1 0x20 ADD PUSH1 0x0 PUSH20 0xFFFFFFFFFFFFFFFFFFFFFFFFFFFFFFFFFFFFFFFF AND DUP2 MSTORE PUSH1 0x20 ADD PUSH1 0x40 MLOAD DUP1 PUSH1 0x40 ADD PUSH1 0x40 MSTORE DUP1 PUSH1 0x5 DUP2 MSTORE PUSH1 0x20 ADD PUSH32 0x5072697573000000000000000000000000000000000000000000000000000000 DUP2 MSTORE POP DUP2 MSTORE PUSH1 0x20 ADD PUSH2 0x7DF DUP2 MSTORE PUSH1 0x20 ADD PUSH3 0x7A120 DUP2 MSTORE POP SWAP1 POP PUSH1 0x0 DUP2 SWAP1 DUP1 PUSH1 0x1 DUP2 SLOAD ADD DUP1 DUP3 SSTORE DUP1 SWAP2 POP POP PUSH1 0x1 SWAP1 SUB SWAP1 PUSH1 0x0 MSTORE PUSH1 0x20 PUSH1 0x0 KECCAK256 SWAP1 PUSH1 0x5 MUL ADD PUSH1 0x0 SWAP1 SWAP2 SWAP1 SWAP2 SWAP1 SWAP2 POP PUSH1 0x0 DUP3 ADD MLOAD DUP2 PUSH1 0x0 ADD PUSH1 0x0 PUSH2 0x100 EXP DUP2 SLOAD DUP2 PUSH20 0xFFFFFFFFFFFFFFFFFFFFFFFFFFFFFFFFFFFFFFFF MUL NOT AND SWAP1 DUP4 PUSH20 0xFFFFFFFFFFFFFFFFFFFFFFFFFFFFFFFFFFFFFFFF AND MUL OR SWAP1 SSTORE POP PUSH1 0x20 DUP3 ADD MLOAD DUP2 PUSH1 0x1 ADD PUSH1 0x0 PUSH2 0x100 EXP DUP2 SLOAD DUP2 PUSH20 0xFFFFFFFFFFFFFFFFFFFFFFFFFFFFFFFFFFFFFFFF MUL NOT AND SWAP1 DUP4 PUSH20 0xFFFFFFFFFFFFFFFFFFFFFFFFFFFFFFFFFFFFFFFF AND MUL OR SWAP1 SSTORE POP PUSH1 0x40 DUP3 ADD MLOAD DUP2 PUSH1 0x2 ADD SWAP1 DUP2 PUSH2 0x2C5 SWAP2 SWAP1 PUSH2 0xB71 JUMP JUMPDEST POP PUSH1 0x60 DUP3 ADD MLOAD DUP2 PUSH1 0x3 ADD SSTORE PUSH1 0x80 DUP3 ADD MLOAD DUP2 PUSH1 0x4 ADD SSTORE POP POP PUSH1 0x0 PUSH1 0x40 MLOAD DUP1 PUSH1 0xA0 ADD PUSH1 0x40 MSTORE DUP1 CALLER PUSH20 0xFFFFFFFFFFFFFFFFFFFFFFFFFFFFFFFFFFFFFFFF AND DUP2 MSTORE PUSH1 0x20 ADD PUSH1 0x0 PUSH20 0xFFFFFFFFFFFFFFFFFFFFFFFFFFFFFFFFFFFFFFFF AND DUP2 MSTORE PUSH1 0x20 ADD PUSH1 0x40 MLOAD DUP1 PUSH1 0x40 ADD PUSH1 0x40 MSTORE DUP1 PUSH1 0x4 DUP2 MSTORE PUSH1 0x20 ADD PUSH32 0x4369747900000000000000000000000000000000000000000000000000000000 DUP2 MSTORE POP DUP2 MSTORE PUSH1 0x20 ADD PUSH2 0x7E7 DUP2 MSTORE PUSH1 0x20 ADD PUSH3 0xF4240 DUP2 MSTORE POP SWAP1 POP PUSH1 0x0 DUP2 SWAP1 DUP1 PUSH1 0x1 DUP2 SLOAD ADD DUP1 DUP3 SSTORE DUP1 SWAP2 POP POP PUSH1 0x1 SWAP1 SUB SWAP1 PUSH1 0x0 MSTORE PUSH1 0x20 PUSH1 0x0 KECCAK256 SWAP1 PUSH1 0x5 MUL ADD PUSH1 0x0 SWAP1 SWAP2 SWAP1 SWAP2 SWAP1 SWAP2 POP PUSH1 0x0 DUP3 ADD MLOAD DUP2 PUSH1 0x0 ADD PUSH1 0x0 PUSH2 0x100 EXP DUP2 SLOAD DUP2 PUSH20 0xFFFFFFFFFFFFFFFFFFFFFFFFFFFFFFFFFFFFFFFF MUL NOT AND SWAP1 DUP4 PUSH20 0xFFFFFFFFFFFFFFFFFFFFFFFFFFFFFFFFFFFFFFFF AND MUL OR SWAP1 SSTORE POP PUSH1 0x20 DUP3 ADD MLOAD DUP2 PUSH1 0x1 ADD PUSH1 0x0 PUSH2 0x100 EXP DUP2 SLOAD DUP2 PUSH20 0xFFFFFFFFFFFFFFFFFFFFFFFFFFFFFFFFFFFFFFFF MUL NOT AND SWAP1 DUP4 PUSH20 0xFFFFFFFFFFFFFFFFFFFFFFFFFFFFFFFFFFFFFFFF AND MUL OR SWAP1 SSTORE POP PUSH1 0x40 DUP3 ADD MLOAD DUP2 PUSH1 0x2 ADD SWAP1 DUP2 PUSH2 0x43D SWAP2 SWAP1 PUSH2 0xB71 JUMP JUMPDEST POP PUSH1 0x60 DUP3 ADD MLOAD DUP2 PUSH1 0x3 ADD SSTORE PUSH1 0x80 DUP3 ADD MLOAD DUP2 PUSH1 0x4 ADD SSTORE POP POP POP POP POP JUMP JUMPDEST PUSH2 0x461 PUSH2 0x68E JUMP JUMPDEST PUSH1 0x0 DUP2 SWAP1 DUP1 PUSH1 0x1 DUP2 SLOAD ADD DUP1 DUP3 SSTORE DUP1 SWAP2 POP POP PUSH1 0x1 SWAP1 SUB SWAP1 PUSH1 0x0 MSTORE PUSH1 0x20 PUSH1 0x0 KECCAK256 SWAP1 PUSH1 0x5 MUL ADD PUSH1 0x0 SWAP1 SWAP2 SWAP1 SWAP2 SWAP1 SWAP2 POP PUSH1 0x0 DUP3 ADD MLOAD DUP2 PUSH1 0x0 ADD PUSH1 0x0 PUSH2 0x100 EXP DUP2 SLOAD DUP2 PUSH20 0xFFFFFFFFFFFFFFFFFFFFFFFFFFFFFFFFFFFFFFFF MUL NOT AND SWAP1 DUP4 PUSH20 0xFFFFFFFFFFFFFFFFFFFFFFFFFFFFFFFFFFFFFFFF AND MUL OR SWAP1 SSTORE POP PUSH1 0x20 DUP3 ADD MLOAD DUP2 PUSH1 0x1 ADD PUSH1 0x0 PUSH2 0x100 EXP DUP2 SLOAD DUP2 PUSH20 0xFFFFFFFFFFFFFFFFFFFFFFFFFFFFFFFFFFFFFFFF MUL NOT AND SWAP1 DUP4 PUSH20 0xFFFFFFFFFFFFFFFFFFFFFFFFFFFFFFFFFFFFFFFF AND MUL OR SWAP1 SSTORE POP PUSH1 0x40 DUP3 ADD MLOAD DUP2 PUSH1 0x2 ADD SWAP1 DUP2 PUSH2 0x530 SWAP2 SWAP1 PUSH2 0xB71 JUMP JUMPDEST POP PUSH1 0x60 DUP3 ADD MLOAD DUP2 PUSH1 0x3 ADD SSTORE PUSH1 0x80 DUP3 ADD MLOAD DUP2 PUSH1 0x4 ADD SSTORE POP POP POP JUMP JUMPDEST PUSH1 0x0 PUSH1 0x40 MLOAD DUP1 PUSH1 0xA0 ADD PUSH1 0x40 MSTORE DUP1 CALLER PUSH20 0xFFFFFFFFFFFFFFFFFFFFFFFFFFFFFFFFFFFFFFFF AND DUP2 MSTORE PUSH1 0x20 ADD DUP7 PUSH20 0xFFFFFFFFFFFFFFFFFFFFFFFFFFFFFFFFFFFFFFFF AND DUP2 MSTORE PUSH1 0x20 ADD DUP6 DUP2 MSTORE PUSH1 0x20 ADD DUP5 DUP2 MSTORE PUSH1 0x20 ADD DUP4 DUP2 MSTORE POP SWAP1 POP PUSH1 0x0 DUP2 SWAP1 DUP1 PUSH1 0x1 DUP2 SLOAD ADD DUP1 DUP3 SSTORE DUP1 SWAP2 POP POP PUSH1 0x1 SWAP1 SUB SWAP1 PUSH1 0x0 MSTORE PUSH1 0x20 PUSH1 0x0 KECCAK256 SWAP1 PUSH1 0x5 MUL ADD PUSH1 0x0 SWAP1 SWAP2 SWAP1 SWAP2 SWAP1 SWAP2 POP PUSH1 0x0 DUP3 ADD MLOAD DUP2 PUSH1 0x0 ADD PUSH1 0x0 PUSH2 0x100 EXP DUP2 SLOAD DUP2 PUSH20 0xFFFFFFFFFFFFFFFFFFFFFFFFFFFFFFFFFFFFFFFF MUL NOT AND SWAP1 DUP4 PUSH20 0xFFFFFFFFFFFFFFFFFFFFFFFFFFFFFFFFFFFFFFFF AND MUL OR SWAP1 SSTORE POP PUSH1 0x20 DUP3 ADD MLOAD DUP2 PUSH1 0x1 ADD PUSH1 0x0 PUSH2 0x100 EXP DUP2 SLOAD DUP2 PUSH20 0xFFFFFFFFFFFFFFFFFFFFFFFFFFFFFFFFFFFFFFFF MUL NOT AND SWAP1 DUP4 PUSH20 0xFFFFFFFFFFFFFFFFFFFFFFFFFFFFFFFFFFFFFFFF AND MUL OR SWAP1 SSTORE POP PUSH1 0x40 DUP3 ADD MLOAD DUP2 PUSH1 0x2 ADD SWAP1 DUP2 PUSH2 0x670 SWAP2 SWAP1 PUSH2 0xB71 JUMP JUMPDEST POP PUSH1 0x60 DUP3 ADD MLOAD DUP2 PUSH1 0x3 ADD SSTORE PUSH1 0x80 DUP3 ADD MLOAD DUP2 PUSH1 0x4 ADD SSTORE POP POP POP POP POP POP POP JUMP JUMPDEST PUSH1 0x40 MLOAD DUP1 PUSH1 0xA0 ADD PUSH1 0x40 MSTORE DUP1 PUSH1 0x0 PUSH20 0xFFFFFFFFFFFFFFFFFFFFFFFFFFFFFFFFFFFFFFFF AND DUP2 MSTORE PUSH1 0x20 ADD PUSH1 0x0 PUSH20 0xFFFFFFFFFFFFFFFFFFFFFFFFFFFFFFFFFFFFFFFF AND DUP2 MSTORE PUSH1 0x20 ADD PUSH1 0x60 DUP2 MSTORE PUSH1 0x20 ADD PUSH1 0x0 DUP2 MSTORE PUSH1 0x20 ADD PUSH1 0x0 DUP2 MSTORE POP SWAP1 JUMP JUMPDEST PUSH1 0x0 PUSH1 0x40 MLOAD SWAP1 POP SWAP1 JUMP JUMPDEST PUSH1 0x0 DUP1 REVERT JUMPDEST PUSH1 0x0 DUP1 REVERT JUMPDEST PUSH1 0x0 PUSH20 0xFFFFFFFFFFFFFFFFFFFFFFFFFFFFFFFFFFFFFFFF DUP3 AND SWAP1 POP SWAP2 SWAP1 POP JUMP JUMPDEST PUSH1 0x0 PUSH2 0x728 DUP3 PUSH2 0x6FD JUMP JUMPDEST SWAP1 POP SWAP2 SWAP1 POP JUMP JUMPDEST PUSH2 0x738 DUP2 PUSH2 0x71D JUMP JUMPDEST DUP2 EQ PUSH2 0x743 JUMPI PUSH1 0x0 DUP1 REVERT JUMPDEST POP JUMP JUMPDEST PUSH1 0x0 DUP2 CALLDATALOAD SWAP1 POP PUSH2 0x755 DUP2 PUSH2 0x72F JUMP JUMPDEST SWAP3 SWAP2 POP POP JUMP JUMPDEST PUSH1 0x0 DUP1 REVERT JUMPDEST PUSH1 0x0 DUP1 REVERT JUMPDEST PUSH1 0x0 PUSH1 0x1F NOT PUSH1 0x1F DUP4 ADD AND SWAP1 POP SWAP2 SWAP1 POP JUMP JUMPDEST PUSH32 0x4E487B7100000000000000000000000000000000000000000000000000000000 PUSH1 0x0 MSTORE PUSH1 0x41 PUSH1 0x4 MSTORE PUSH1 0x24 PUSH1 0x0 REVERT JUMPDEST PUSH2 0x7AE DUP3 PUSH2 0x765 JUMP JUMPDEST DUP2 ADD DUP2 DUP2 LT PUSH8 0xFFFFFFFFFFFFFFFF DUP3 GT OR ISZERO PUSH2 0x7CD JUMPI PUSH2 0x7CC PUSH2 0x776 JUMP JUMPDEST JUMPDEST DUP1 PUSH1 0x40 MSTORE POP POP POP JUMP JUMPDEST PUSH1 0x0 PUSH2 0x7E0 PUSH2 0x6E9 JUMP JUMPDEST SWAP1 POP PUSH2 0x7EC DUP3 DUP3 PUSH2 0x7A5 JUMP JUMPDEST SWAP2 SWAP1 POP JUMP JUMPDEST PUSH1 0x0 PUSH8 0xFFFFFFFFFFFFFFFF DUP3 GT ISZERO PUSH2 0x80C JUMPI PUSH2 0x80B PUSH2 0x776 JUMP JUMPDEST JUMPDEST PUSH2 0x815 DUP3 PUSH2 0x765 JUMP JUMPDEST SWAP1 POP PUSH1 0x20 DUP2 ADD SWAP1 POP SWAP2 SWAP1 POP JUMP JUMPDEST DUP3 DUP2 DUP4 CALLDATACOPY PUSH1 0x0 DUP4 DUP4 ADD MSTORE POP POP POP JUMP JUMPDEST PUSH1 0x0 PUSH2 0x844 PUSH2 0x83F DUP5 PUSH2 0x7F1 JUMP JUMPDEST PUSH2 0x7D6 JUMP JUMPDEST SWAP1 POP DUP3 DUP2 MSTORE PUSH1 0x20 DUP2 ADD DUP5 DUP5 DUP5 ADD GT ISZERO PUSH2 0x860 JUMPI PUSH2 0x85F PUSH2 0x760 JUMP JUMPDEST JUMPDEST PUSH2 0x86B DUP5 DUP3 DUP6 PUSH2 0x822 JUMP JUMPDEST POP SWAP4 SWAP3 POP POP POP JUMP JUMPDEST PUSH1 0x0 DUP3 PUSH1 0x1F DUP4 ADD SLT PUSH2 0x888 JUMPI PUSH2 0x887 PUSH2 0x75B JUMP JUMPDEST JUMPDEST DUP2 CALLDATALOAD PUSH2 0x898 DUP5 DUP3 PUSH1 0x20 DUP7 ADD PUSH2 0x831 JUMP JUMPDEST SWAP2 POP POP SWAP3 SWAP2 POP POP JUMP JUMPDEST PUSH1 0x0 DUP2 SWAP1 POP SWAP2 SWAP1 POP JUMP JUMPDEST PUSH2 0x8B4 DUP2 PUSH2 0x8A1 JUMP JUMPDEST DUP2 EQ PUSH2 0x8BF JUMPI PUSH1 0x0 DUP1 REVERT JUMPDEST POP JUMP JUMPDEST PUSH1 0x0 DUP2 CALLDATALOAD SWAP1 POP PUSH2 0x8D1 DUP2 PUSH2 0x8AB JUMP JUMPDEST SWAP3 SWAP2 POP POP JUMP JUMPDEST PUSH1 0x0 DUP1 PUSH1 0x0 DUP1 PUSH1 0x80 DUP6 DUP8 SUB SLT ISZERO PUSH2 0x8F1 JUMPI PUSH2 0x8F0 PUSH2 0x6F3 JUMP JUMPDEST JUMPDEST PUSH1 0x0 PUSH2 0x8FF DUP8 DUP3 DUP9 ADD PUSH2 0x746 JUMP JUMPDEST SWAP5 POP POP PUSH1 0x20 DUP6 ADD CALLDATALOAD PUSH8 0xFFFFFFFFFFFFFFFF DUP2 GT ISZERO PUSH2 0x920 JUMPI PUSH2 0x91F PUSH2 0x6F8 JUMP JUMPDEST JUMPDEST PUSH2 0x92C DUP8 DUP3 DUP9 ADD PUSH2 0x873 JUMP JUMPDEST SWAP4 POP POP PUSH1 0x40 PUSH2 0x93D DUP8 DUP3 DUP9 ADD PUSH2 0x8C2 JUMP JUMPDEST SWAP3 POP POP PUSH1 0x60 PUSH2 0x94E DUP8 DUP3 DUP9 ADD PUSH2 0x8C2 JUMP JUMPDEST SWAP2 POP POP SWAP3 SWAP6 SWAP2 SWAP5 POP SWAP3 POP JUMP JUMPDEST PUSH1 0x0 DUP2 MLOAD SWAP1 POP SWAP2 SWAP1 POP JUMP JUMPDEST PUSH32 0x4E487B7100000000000000000000000000000000000000000000000000000000 PUSH1 0x0 MSTORE PUSH1 0x22 PUSH1 0x4 MSTORE PUSH1 0x24 PUSH1 0x0 REVERT JUMPDEST PUSH1 0x0 PUSH1 0x2 DUP3 DIV SWAP1 POP PUSH1 0x1 DUP3 AND DUP1 PUSH2 0x9AC JUMPI PUSH1 0x7F DUP3 AND SWAP2 POP JUMPDEST PUSH1 0x20 DUP3 LT DUP2 SUB PUSH2 0x9BF JUMPI PUSH2 0x9BE PUSH2 0x965 JUMP JUMPDEST JUMPDEST POP SWAP2 SWAP1 POP JUMP JUMPDEST PUSH1 0x0 DUP2 SWAP1 POP DUP2 PUSH1 0x0 MSTORE PUSH1 0x20 PUSH1 0x0 KECCAK256 SWAP1 POP SWAP2 SWAP1 POP JUMP JUMPDEST PUSH1 0x0 PUSH1 0x20 PUSH1 0x1F DUP4 ADD DIV SWAP1 POP SWAP2 SWAP1 POP JUMP JUMPDEST PUSH1 0x0 DUP3 DUP3 SHL SWAP1 POP SWAP3 SWAP2 POP POP JUMP JUMPDEST PUSH1 0x0 PUSH1 0x8 DUP4 MUL PUSH2 0xA27 PUSH32 0xFFFFFFFFFFFFFFFFFFFFFFFFFFFFFFFFFFFFFFFFFFFFFFFFFFFFFFFFFFFFFFFF DUP3 PUSH2 0x9EA JUMP JUMPDEST PUSH2 0xA31 DUP7 DUP4 PUSH2 0x9EA JUMP JUMPDEST SWAP6 POP DUP1 NOT DUP5 AND SWAP4 POP DUP1 DUP7 AND DUP5 OR SWAP3 POP POP POP SWAP4 SWAP3 POP POP POP JUMP JUMPDEST PUSH1 0x0 DUP2 SWAP1 POP SWAP2 SWAP1 POP JUMP JUMPDEST PUSH1 0x0 PUSH2 0xA6E PUSH2 0xA69 PUSH2 0xA64 DUP5 PUSH2 0x8A1 JUMP JUMPDEST PUSH2 0xA49 JUMP JUMPDEST PUSH2 0x8A1 JUMP JUMPDEST SWAP1 POP SWAP2 SWAP1 POP JUMP JUMPDEST PUSH1 0x0 DUP2 SWAP1 POP SWAP2 SWAP1 POP JUMP JUMPDEST PUSH2 0xA88 DUP4 PUSH2 0xA53 JUMP JUMPDEST PUSH2 0xA9C PUSH2 0xA94 DUP3 PUSH2 0xA75 JUMP JUMPDEST DUP5 DUP5 SLOAD PUSH2 0x9F7 JUMP JUMPDEST DUP3 SSTORE POP POP POP POP JUMP JUMPDEST PUSH1 0x0 SWAP1 JUMP JUMPDEST PUSH2 0xAB1 PUSH2 0xAA4 JUMP JUMPDEST PUSH2 0xABC DUP2 DUP5 DUP5 PUSH2 0xA7F JUMP JUMPDEST POP POP POP JUMP JUMPDEST JUMPDEST DUP2 DUP2 LT ISZERO PUSH2 0xAE0 JUMPI PUSH2 0xAD5 PUSH1 0x0 DUP3 PUSH2 0xAA9 JUMP JUMPDEST PUSH1 0x1 DUP2 ADD SWAP1 POP PUSH2 0xAC2 JUMP JUMPDEST POP POP JUMP JUMPDEST PUSH1 0x1F DUP3 GT ISZERO PUSH2 0xB25 JUMPI PUSH2 0xAF6 DUP2 PUSH2 0x9C5 JUMP JUMPDEST PUSH2 0xAFF DUP5 PUSH2 0x9DA JUMP JUMPDEST DUP2 ADD PUSH1 0x20 DUP6 LT ISZERO PUSH2 0xB0E JUMPI DUP2 SWAP1 POP JUMPDEST PUSH2 0xB22 PUSH2 0xB1A DUP6 PUSH2 0x9DA JUMP JUMPDEST DUP4 ADD DUP3 PUSH2 0xAC1 JUMP JUMPDEST POP POP JUMPDEST POP POP POP JUMP JUMPDEST PUSH1 0x0 DUP3 DUP3 SHR SWAP1 POP SWAP3 SWAP2 POP POP JUMP JUMPDEST PUSH1 0x0 PUSH2 0xB48 PUSH1 0x0 NOT DUP5 PUSH1 0x8 MUL PUSH2 0xB2A JUMP JUMPDEST NOT DUP1 DUP4 AND SWAP2 POP POP SWAP3 SWAP2 POP POP JUMP JUMPDEST PUSH1 0x0 PUSH2 0xB61 DUP4 DUP4 PUSH2 0xB37 JUMP JUMPDEST SWAP2 POP DUP3 PUSH1 0x2 MUL DUP3 OR SWAP1 POP SWAP3 SWAP2 POP POP JUMP JUMPDEST PUSH2 0xB7A DUP3 PUSH2 0x95A JUMP JUMPDEST PUSH8 0xFFFFFFFFFFFFFFFF DUP2 GT ISZERO PUSH2 0xB93 JUMPI PUSH2 0xB92 PUSH2 0x776 JUMP JUMPDEST JUMPDEST PUSH2 0xB9D DUP3 SLOAD PUSH2 0x994 JUMP JUMPDEST PUSH2 0xBA8 DUP3 DUP3 DUP6 PUSH2 0xAE4 JUMP JUMPDEST PUSH1 0x0 PUSH1 0x20 SWAP1 POP PUSH1 0x1F DUP4 GT PUSH1 0x1 DUP2 EQ PUSH2 0xBDB JUMPI PUSH1 0x0 DUP5 ISZERO PUSH2 0xBC9 JUMPI DUP3 DUP8 ADD MLOAD SWAP1 POP JUMPDEST PUSH2 0xBD3 DUP6 DUP3 PUSH2 0xB55 JUMP JUMPDEST DUP7 SSTORE POP PUSH2 0xC3B JUMP JUMPDEST PUSH1 0x1F NOT DUP5 AND PUSH2 0xBE9 DUP7 PUSH2 0x9C5 JUMP JUMPDEST PUSH1 0x0 JUMPDEST DUP3 DUP2 LT ISZERO PUSH2 0xC11 JUMPI DUP5 DUP10 ADD MLOAD DUP3 SSTORE PUSH1 0x1 DUP3 ADD SWAP2 POP PUSH1 0x20 DUP6 ADD SWAP5 POP PUSH1 0x20 DUP2 ADD SWAP1 POP PUSH2 0xBEC JUMP JUMPDEST DUP7 DUP4 LT ISZERO PUSH2 0xC2E JUMPI DUP5 DUP10 ADD MLOAD PUSH2 0xC2A PUSH1 0x1F DUP10 AND DUP3 PUSH2 0xB37 JUMP JUMPDEST DUP4 SSTORE POP JUMPDEST PUSH1 0x1 PUSH1 0x2 DUP9 MUL ADD DUP9 SSTORE POP POP POP JUMPDEST POP POP POP POP POP POP JUMP INVALID LOG2 PUSH5 0x6970667358 0x22 SLT KECCAK256 DUP7 0xE0 REVERT PUSH28 0x4D40B274A8C5237D4E432831196C08DA8296301194058435CD0B3BF5 PUSH5 0x736F6C6343 STOP ADDMOD SLT STOP CALLER "
				},
				"gasEstimates": {
					"creation": {
						"codeDepositCost": "638600",
						"executionCost": "670",
						"totalCost": "639270"
					},
					"external": {
						"addCartoCollection(address,string,uint256,uint256)": "infinite",
						"addGenericCar()": "infinite",
						"examples()": "infinite"
					}
				},
				"methodIdentifiers": {
					"addCartoCollection(address,string,uint256,uint256)": "9e73e04d",
					"addGenericCar()": "43e1c7c2",
					"examples()": "335d00c2"
				}
			},
			"storageLayout": {
				"storage": [
					{
						"astId": 16,
						"contract": "contracts/6_Structs.sol:CarCollection",
						"label": "collection",
						"offset": 0,
						"slot": "0",
						"type": "t_array(t_struct(Car)12_storage)dyn_storage"
					}
				],
				"types": {
					"t_address": {
						"encoding": "inplace",
						"label": "address",
						"numberOfBytes": "20"
					},
					"t_array(t_struct(Car)12_storage)dyn_storage": {
						"base": "t_struct(Car)12_storage",
						"encoding": "dynamic_array",
						"label": "struct CarCollection.Car[]",
						"numberOfBytes": "32"
					},
					"t_string_storage": {
						"encoding": "bytes",
						"label": "string",
						"numberOfBytes": "32"
					},
					"t_struct(Car)12_storage": {
						"encoding": "inplace",
						"label": "struct CarCollection.Car",
						"members": [
							{
								"astId": 3,
								"contract": "contracts/6_Structs.sol:CarCollection",
								"label": "owner",
								"offset": 0,
								"slot": "0",
								"type": "t_address"
							},
							{
								"astId": 5,
								"contract": "contracts/6_Structs.sol:CarCollection",
								"label": "brand",
								"offset": 0,
								"slot": "1",
								"type": "t_address"
							},
							{
								"astId": 7,
								"contract": "contracts/6_Structs.sol:CarCollection",
								"label": "model",
								"offset": 0,
								"slot": "2",
								"type": "t_string_storage"
							},
							{
								"astId": 9,
								"contract": "contracts/6_Structs.sol:CarCollection",
								"label": "year",
								"offset": 0,
								"slot": "3",
								"type": "t_uint256"
							},
							{
								"astId": 11,
								"contract": "contracts/6_Structs.sol:CarCollection",
								"label": "price",
								"offset": 0,
								"slot": "4",
								"type": "t_uint256"
							}
						],
						"numberOfBytes": "160"
					},
					"t_uint256": {
						"encoding": "inplace",
						"label": "uint256",
						"numberOfBytes": "32"
					}
				}
			},
			"userdoc": {
				"kind": "user",
				"methods": {},
				"version": 1
			}
		}
	}
}