{
	"contracts/9_Loops.sol": {
		"LoopExamples": {
			"abi": [
				{
					"inputs": [
						{
							"internalType": "uint256",
							"name": "n",
							"type": "uint256"
						}
					],
					"name": "sumOfNumbersNotDivisibleBy3",
					"outputs": [
						{
							"internalType": "uint256",
							"name": "",
							"type": "uint256"
						}
					],
					"stateMutability": "pure",
					"type": "function"
				},
				{
					"inputs": [
						{
							"internalType": "uint256",
							"name": "n",
							"type": "uint256"
						}
					],
					"name": "sumOfNumbersUntilSumIs1000",
					"outputs": [
						{
							"internalType": "uint256",
							"name": "",
							"type": "uint256"
						}
					],
					"stateMutability": "pure",
					"type": "function"
				}
			],
			"devdoc": {
				"kind": "dev",
				"methods": {},
				"version": 1
			},
			"evm": {
				"assembly": "    /* \"contracts/9_Loops.sol\":62:632  contract LoopExamples{... */\n  mstore(0x40, 0x80)\n  callvalue\n  dup1\n  iszero\n  tag_1\n  jumpi\n  0x00\n  dup1\n  revert\ntag_1:\n  pop\n  dataSize(sub_0)\n  dup1\n  dataOffset(sub_0)\n  0x00\n  codecopy\n  0x00\n  return\nstop\n\nsub_0: assembly {\n        /* \"contracts/9_Loops.sol\":62:632  contract LoopExamples{... */\n      mstore(0x40, 0x80)\n      callvalue\n      dup1\n      iszero\n      tag_1\n      jumpi\n      0x00\n      dup1\n      revert\n    tag_1:\n      pop\n      jumpi(tag_2, lt(calldatasize, 0x04))\n      shr(0xe0, calldataload(0x00))\n      dup1\n      0x0961f76b\n      eq\n      tag_3\n      jumpi\n      dup1\n      0x697c6485\n      eq\n      tag_4\n      jumpi\n    tag_2:\n      0x00\n      dup1\n      revert\n        /* \"contracts/9_Loops.sol\":362:627  function sumOfNumbersUntilSumIs1000(uint n) public pure returns (uint) {... */\n    tag_3:\n      tag_5\n      0x04\n      dup1\n      calldatasize\n      sub\n      dup2\n      add\n      swap1\n      tag_6\n      swap2\n      swap1\n      tag_7\n      jump\t// in\n    tag_6:\n      tag_8\n      jump\t// in\n    tag_5:\n      mload(0x40)\n      tag_9\n      swap2\n      swap1\n      tag_10\n      jump\t// in\n    tag_9:\n      mload(0x40)\n      dup1\n      swap2\n      sub\n      swap1\n      return\n        /* \"contracts/9_Loops.sol\":92:354  function sumOfNumbersNotDivisibleBy3(uint n) public pure returns (uint) {... */\n    tag_4:\n      tag_11\n      0x04\n      dup1\n      calldatasize\n      sub\n      dup2\n      add\n      swap1\n      tag_12\n      swap2\n      swap1\n      tag_7\n      jump\t// in\n    tag_12:\n      tag_13\n      jump\t// in\n    tag_11:\n      mload(0x40)\n      tag_14\n      swap2\n      swap1\n      tag_10\n      jump\t// in\n    tag_14:\n      mload(0x40)\n      dup1\n      swap2\n      sub\n      swap1\n      return\n        /* \"contracts/9_Loops.sol\":362:627  function sumOfNumbersUntilSumIs1000(uint n) public pure returns (uint) {... */\n    tag_8:\n        /* \"contracts/9_Loops.sol\":427:431  uint */\n      0x00\n        /* \"contracts/9_Loops.sol\":444:455  uint numSum */\n      dup1\n        /* \"contracts/9_Loops.sol\":456:457  0 */\n      0x00\n        /* \"contracts/9_Loops.sol\":444:457  uint numSum=0 */\n      swap1\n      pop\n        /* \"contracts/9_Loops.sol\":472:478  uint i */\n      0x00\n        /* \"contracts/9_Loops.sol\":468:596  for(uint i=0;i<n;i++){... */\n    tag_16:\n        /* \"contracts/9_Loops.sol\":483:484  n */\n      dup4\n        /* \"contracts/9_Loops.sol\":481:482  i */\n      dup2\n        /* \"contracts/9_Loops.sol\":481:484  i<n */\n      lt\n        /* \"contracts/9_Loops.sol\":468:596  for(uint i=0;i<n;i++){... */\n      iszero\n      tag_17\n      jumpi\n        /* \"contracts/9_Loops.sol\":516:520  1000 */\n      0x03e8\n        /* \"contracts/9_Loops.sol\":514:515  i */\n      dup2\n        /* \"contracts/9_Loops.sol\":507:513  numSum */\n      dup4\n        /* \"contracts/9_Loops.sol\":507:515  numSum+i */\n      tag_19\n      swap2\n      swap1\n      tag_20\n      jump\t// in\n    tag_19:\n        /* \"contracts/9_Loops.sol\":507:520  numSum+i>1000 */\n      gt\n        /* \"contracts/9_Loops.sol\":540:545  break */\n      tag_17\n        /* \"contracts/9_Loops.sol\":504:561  if(numSum+i>1000){... */\n      jumpi\n        /* \"contracts/9_Loops.sol\":583:584  i */\n      dup1\n        /* \"contracts/9_Loops.sol\":575:584  numSum+=i */\n      dup3\n      tag_22\n      swap2\n      swap1\n      tag_20\n      jump\t// in\n    tag_22:\n      swap2\n      pop\n        /* \"contracts/9_Loops.sol\":485:488  i++ */\n      dup1\n      dup1\n      tag_23\n      swap1\n      tag_24\n      jump\t// in\n    tag_23:\n      swap2\n      pop\n      pop\n        /* \"contracts/9_Loops.sol\":468:596  for(uint i=0;i<n;i++){... */\n      jump(tag_16)\n    tag_17:\n      pop\n        /* \"contracts/9_Loops.sol\":613:619  numSum */\n      dup1\n        /* \"contracts/9_Loops.sol\":606:619  return numSum */\n      swap2\n      pop\n      pop\n        /* \"contracts/9_Loops.sol\":362:627  function sumOfNumbersUntilSumIs1000(uint n) public pure returns (uint) {... */\n      swap2\n      swap1\n      pop\n      jump\t// out\n        /* \"contracts/9_Loops.sol\":92:354  function sumOfNumbersNotDivisibleBy3(uint n) public pure returns (uint) {... */\n    tag_13:\n        /* \"contracts/9_Loops.sol\":158:162  uint */\n      0x00\n        /* \"contracts/9_Loops.sol\":175:186  uint numSum */\n      dup1\n        /* \"contracts/9_Loops.sol\":187:188  0 */\n      0x00\n        /* \"contracts/9_Loops.sol\":175:188  uint numSum=0 */\n      swap1\n      pop\n        /* \"contracts/9_Loops.sol\":203:209  uint i */\n      0x00\n        /* \"contracts/9_Loops.sol\":199:323  for(uint i=0;i<n;i++){... */\n    tag_26:\n        /* \"contracts/9_Loops.sol\":214:215  n */\n      dup4\n        /* \"contracts/9_Loops.sol\":212:213  i */\n      dup2\n        /* \"contracts/9_Loops.sol\":212:215  i<n */\n      lt\n        /* \"contracts/9_Loops.sol\":199:323  for(uint i=0;i<n;i++){... */\n      iszero\n      tag_27\n      jumpi\n        /* \"contracts/9_Loops.sol\":243:244  0 */\n      0x00\n        /* \"contracts/9_Loops.sol\":240:241  3 */\n      0x03\n        /* \"contracts/9_Loops.sol\":238:239  i */\n      dup3\n        /* \"contracts/9_Loops.sol\":238:241  i%3 */\n      tag_29\n      swap2\n      swap1\n      tag_30\n      jump\t// in\n    tag_29:\n        /* \"contracts/9_Loops.sol\":238:244  i%3==0 */\n      sub\n        /* \"contracts/9_Loops.sol\":235:288  if(i%3==0){... */\n      iszero\n        /* \"contracts/9_Loops.sol\":264:272  continue */\n      tag_28\n        /* \"contracts/9_Loops.sol\":235:288  if(i%3==0){... */\n      jumpi\n        /* \"contracts/9_Loops.sol\":310:311  i */\n      dup1\n        /* \"contracts/9_Loops.sol\":302:311  numSum+=i */\n      dup3\n      tag_32\n      swap2\n      swap1\n      tag_20\n      jump\t// in\n    tag_32:\n      swap2\n      pop\n        /* \"contracts/9_Loops.sol\":199:323  for(uint i=0;i<n;i++){... */\n    tag_28:\n        /* \"contracts/9_Loops.sol\":216:219  i++ */\n      dup1\n      dup1\n      tag_33\n      swap1\n      tag_24\n      jump\t// in\n    tag_33:\n      swap2\n      pop\n      pop\n        /* \"contracts/9_Loops.sol\":199:323  for(uint i=0;i<n;i++){... */\n      jump(tag_26)\n    tag_27:\n      pop\n        /* \"contracts/9_Loops.sol\":340:346  numSum */\n      dup1\n        /* \"contracts/9_Loops.sol\":333:346  return numSum */\n      swap2\n      pop\n      pop\n        /* \"contracts/9_Loops.sol\":92:354  function sumOfNumbersNotDivisibleBy3(uint n) public pure returns (uint) {... */\n      swap2\n      swap1\n      pop\n      jump\t// out\n        /* \"#utility.yul\":88:205   */\n    tag_35:\n        /* \"#utility.yul\":197:198   */\n      0x00\n        /* \"#utility.yul\":194:195   */\n      dup1\n        /* \"#utility.yul\":187:199   */\n      revert\n        /* \"#utility.yul\":334:411   */\n    tag_37:\n        /* \"#utility.yul\":371:378   */\n      0x00\n        /* \"#utility.yul\":400:405   */\n      dup2\n        /* \"#utility.yul\":389:405   */\n      swap1\n      pop\n        /* \"#utility.yul\":334:411   */\n      swap2\n      swap1\n      pop\n      jump\t// out\n        /* \"#utility.yul\":417:539   */\n    tag_38:\n        /* \"#utility.yul\":490:514   */\n      tag_49\n        /* \"#utility.yul\":508:513   */\n      dup2\n        /* \"#utility.yul\":490:514   */\n      tag_37\n      jump\t// in\n    tag_49:\n        /* \"#utility.yul\":483:488   */\n      dup2\n        /* \"#utility.yul\":480:515   */\n      eq\n        /* \"#utility.yul\":470:533   */\n      tag_50\n      jumpi\n        /* \"#utility.yul\":529:530   */\n      0x00\n        /* \"#utility.yul\":526:527   */\n      dup1\n        /* \"#utility.yul\":519:531   */\n      revert\n        /* \"#utility.yul\":470:533   */\n    tag_50:\n        /* \"#utility.yul\":417:539   */\n      pop\n      jump\t// out\n        /* \"#utility.yul\":545:684   */\n    tag_39:\n        /* \"#utility.yul\":591:596   */\n      0x00\n        /* \"#utility.yul\":629:635   */\n      dup2\n        /* \"#utility.yul\":616:636   */\n      calldataload\n        /* \"#utility.yul\":607:636   */\n      swap1\n      pop\n        /* \"#utility.yul\":645:678   */\n      tag_52\n        /* \"#utility.yul\":672:677   */\n      dup2\n        /* \"#utility.yul\":645:678   */\n      tag_38\n      jump\t// in\n    tag_52:\n        /* \"#utility.yul\":545:684   */\n      swap3\n      swap2\n      pop\n      pop\n      jump\t// out\n        /* \"#utility.yul\":690:1019   */\n    tag_7:\n        /* \"#utility.yul\":749:755   */\n      0x00\n        /* \"#utility.yul\":798:800   */\n      0x20\n        /* \"#utility.yul\":786:795   */\n      dup3\n        /* \"#utility.yul\":777:784   */\n      dup5\n        /* \"#utility.yul\":773:796   */\n      sub\n        /* \"#utility.yul\":769:801   */\n      slt\n        /* \"#utility.yul\":766:885   */\n      iszero\n      tag_54\n      jumpi\n        /* \"#utility.yul\":804:883   */\n      tag_55\n      tag_35\n      jump\t// in\n    tag_55:\n        /* \"#utility.yul\":766:885   */\n    tag_54:\n        /* \"#utility.yul\":924:925   */\n      0x00\n        /* \"#utility.yul\":949:1002   */\n      tag_56\n        /* \"#utility.yul\":994:1001   */\n      dup5\n        /* \"#utility.yul\":985:991   */\n      dup3\n        /* \"#utility.yul\":974:983   */\n      dup6\n        /* \"#utility.yul\":970:992   */\n      add\n        /* \"#utility.yul\":949:1002   */\n      tag_39\n      jump\t// in\n    tag_56:\n        /* \"#utility.yul\":939:1002   */\n      swap2\n      pop\n        /* \"#utility.yul\":895:1012   */\n      pop\n        /* \"#utility.yul\":690:1019   */\n      swap3\n      swap2\n      pop\n      pop\n      jump\t// out\n        /* \"#utility.yul\":1025:1143   */\n    tag_40:\n        /* \"#utility.yul\":1112:1136   */\n      tag_58\n        /* \"#utility.yul\":1130:1135   */\n      dup2\n        /* \"#utility.yul\":1112:1136   */\n      tag_37\n      jump\t// in\n    tag_58:\n        /* \"#utility.yul\":1107:1110   */\n      dup3\n        /* \"#utility.yul\":1100:1137   */\n      mstore\n        /* \"#utility.yul\":1025:1143   */\n      pop\n      pop\n      jump\t// out\n        /* \"#utility.yul\":1149:1371   */\n    tag_10:\n        /* \"#utility.yul\":1242:1246   */\n      0x00\n        /* \"#utility.yul\":1280:1282   */\n      0x20\n        /* \"#utility.yul\":1269:1278   */\n      dup3\n        /* \"#utility.yul\":1265:1283   */\n      add\n        /* \"#utility.yul\":1257:1283   */\n      swap1\n      pop\n        /* \"#utility.yul\":1293:1364   */\n      tag_60\n        /* \"#utility.yul\":1361:1362   */\n      0x00\n        /* \"#utility.yul\":1350:1359   */\n      dup4\n        /* \"#utility.yul\":1346:1363   */\n      add\n        /* \"#utility.yul\":1337:1343   */\n      dup5\n        /* \"#utility.yul\":1293:1364   */\n      tag_40\n      jump\t// in\n    tag_60:\n        /* \"#utility.yul\":1149:1371   */\n      swap3\n      swap2\n      pop\n      pop\n      jump\t// out\n        /* \"#utility.yul\":1377:1557   */\n    tag_41:\n        /* \"#utility.yul\":1425:1502   */\n      0x4e487b7100000000000000000000000000000000000000000000000000000000\n        /* \"#utility.yul\":1422:1423   */\n      0x00\n        /* \"#utility.yul\":1415:1503   */\n      mstore\n        /* \"#utility.yul\":1522:1526   */\n      0x11\n        /* \"#utility.yul\":1519:1520   */\n      0x04\n        /* \"#utility.yul\":1512:1527   */\n      mstore\n        /* \"#utility.yul\":1546:1550   */\n      0x24\n        /* \"#utility.yul\":1543:1544   */\n      0x00\n        /* \"#utility.yul\":1536:1551   */\n      revert\n        /* \"#utility.yul\":1563:1754   */\n    tag_20:\n        /* \"#utility.yul\":1603:1606   */\n      0x00\n        /* \"#utility.yul\":1622:1642   */\n      tag_63\n        /* \"#utility.yul\":1640:1641   */\n      dup3\n        /* \"#utility.yul\":1622:1642   */\n      tag_37\n      jump\t// in\n    tag_63:\n        /* \"#utility.yul\":1617:1642   */\n      swap2\n      pop\n        /* \"#utility.yul\":1656:1676   */\n      tag_64\n        /* \"#utility.yul\":1674:1675   */\n      dup4\n        /* \"#utility.yul\":1656:1676   */\n      tag_37\n      jump\t// in\n    tag_64:\n        /* \"#utility.yul\":1651:1676   */\n      swap3\n      pop\n        /* \"#utility.yul\":1699:1700   */\n      dup3\n        /* \"#utility.yul\":1696:1697   */\n      dup3\n        /* \"#utility.yul\":1692:1701   */\n      add\n        /* \"#utility.yul\":1685:1701   */\n      swap1\n      pop\n        /* \"#utility.yul\":1720:1723   */\n      dup1\n        /* \"#utility.yul\":1717:1718   */\n      dup3\n        /* \"#utility.yul\":1714:1724   */\n      gt\n        /* \"#utility.yul\":1711:1747   */\n      iszero\n      tag_65\n      jumpi\n        /* \"#utility.yul\":1727:1745   */\n      tag_66\n      tag_41\n      jump\t// in\n    tag_66:\n        /* \"#utility.yul\":1711:1747   */\n    tag_65:\n        /* \"#utility.yul\":1563:1754   */\n      swap3\n      swap2\n      pop\n      pop\n      jump\t// out\n        /* \"#utility.yul\":1760:1993   */\n    tag_24:\n        /* \"#utility.yul\":1799:1802   */\n      0x00\n        /* \"#utility.yul\":1822:1846   */\n      tag_68\n        /* \"#utility.yul\":1840:1845   */\n      dup3\n        /* \"#utility.yul\":1822:1846   */\n      tag_37\n      jump\t// in\n    tag_68:\n        /* \"#utility.yul\":1813:1846   */\n      swap2\n      pop\n        /* \"#utility.yul\":1868:1934   */\n      0xffffffffffffffffffffffffffffffffffffffffffffffffffffffffffffffff\n        /* \"#utility.yul\":1861:1866   */\n      dup3\n        /* \"#utility.yul\":1858:1935   */\n      sub\n        /* \"#utility.yul\":1855:1958   */\n      tag_69\n      jumpi\n        /* \"#utility.yul\":1938:1956   */\n      tag_70\n      tag_41\n      jump\t// in\n    tag_70:\n        /* \"#utility.yul\":1855:1958   */\n    tag_69:\n        /* \"#utility.yul\":1985:1986   */\n      0x01\n        /* \"#utility.yul\":1978:1983   */\n      dup3\n        /* \"#utility.yul\":1974:1987   */\n      add\n        /* \"#utility.yul\":1967:1987   */\n      swap1\n      pop\n        /* \"#utility.yul\":1760:1993   */\n      swap2\n      swap1\n      pop\n      jump\t// out\n        /* \"#utility.yul\":1999:2179   */\n    tag_42:\n        /* \"#utility.yul\":2047:2124   */\n      0x4e487b7100000000000000000000000000000000000000000000000000000000\n        /* \"#utility.yul\":2044:2045   */\n      0x00\n        /* \"#utility.yul\":2037:2125   */\n      mstore\n        /* \"#utility.yul\":2144:2148   */\n      0x12\n        /* \"#utility.yul\":2141:2142   */\n      0x04\n        /* \"#utility.yul\":2134:2149   */\n      mstore\n        /* \"#utility.yul\":2168:2172   */\n      0x24\n        /* \"#utility.yul\":2165:2166   */\n      0x00\n        /* \"#utility.yul\":2158:2173   */\n      revert\n        /* \"#utility.yul\":2185:2361   */\n    tag_30:\n        /* \"#utility.yul\":2217:2218   */\n      0x00\n        /* \"#utility.yul\":2234:2254   */\n      tag_73\n        /* \"#utility.yul\":2252:2253   */\n      dup3\n        /* \"#utility.yul\":2234:2254   */\n      tag_37\n      jump\t// in\n    tag_73:\n        /* \"#utility.yul\":2229:2254   */\n      swap2\n      pop\n        /* \"#utility.yul\":2268:2288   */\n      tag_74\n        /* \"#utility.yul\":2286:2287   */\n      dup4\n        /* \"#utility.yul\":2268:2288   */\n      tag_37\n      jump\t// in\n    tag_74:\n        /* \"#utility.yul\":2263:2288   */\n      swap3\n      pop\n        /* \"#utility.yul\":2307:2308   */\n      dup3\n        /* \"#utility.yul\":2297:2332   */\n      tag_75\n      jumpi\n        /* \"#utility.yul\":2312:2330   */\n      tag_76\n      tag_42\n      jump\t// in\n    tag_76:\n        /* \"#utility.yul\":2297:2332   */\n    tag_75:\n        /* \"#utility.yul\":2353:2354   */\n      dup3\n        /* \"#utility.yul\":2350:2351   */\n      dup3\n        /* \"#utility.yul\":2346:2355   */\n      mod\n        /* \"#utility.yul\":2341:2355   */\n      swap1\n      pop\n        /* \"#utility.yul\":2185:2361   */\n      swap3\n      swap2\n      pop\n      pop\n      jump\t// out\n\n    auxdata: 0xa264697066735822122081ab6ca14808fa67d08547611e84057c04262f038c809a4edb33a33c2a5a4ad064736f6c63430008120033\n}\n",
				"bytecode": {
					"linkReferences": {},
					"object": "608060405234801561001057600080fd5b50610312806100206000396000f3fe608060405234801561001057600080fd5b50600436106100365760003560e01c80630961f76b1461003b578063697c64851461006b575b600080fd5b6100556004803603810190610050919061017a565b61009b565b60405161006291906101b6565b60405180910390f35b6100856004803603810190610080919061017a565b6100ec565b60405161009291906101b6565b60405180910390f35b6000806000905060005b838110156100e2576103e881836100bc9190610200565b116100e25780826100cd9190610200565b915080806100da90610234565b9150506100a5565b5080915050919050565b6000806000905060005b8381101561013557600060038261010d91906102ab565b031561012257808261011f9190610200565b91505b808061012d90610234565b9150506100f6565b5080915050919050565b600080fd5b6000819050919050565b61015781610144565b811461016257600080fd5b50565b6000813590506101748161014e565b92915050565b6000602082840312156101905761018f61013f565b5b600061019e84828501610165565b91505092915050565b6101b081610144565b82525050565b60006020820190506101cb60008301846101a7565b92915050565b7f4e487b7100000000000000000000000000000000000000000000000000000000600052601160045260246000fd5b600061020b82610144565b915061021683610144565b925082820190508082111561022e5761022d6101d1565b5b92915050565b600061023f82610144565b91507fffffffffffffffffffffffffffffffffffffffffffffffffffffffffffffffff8203610271576102706101d1565b5b600182019050919050565b7f4e487b7100000000000000000000000000000000000000000000000000000000600052601260045260246000fd5b60006102b682610144565b91506102c183610144565b9250826102d1576102d061027c565b5b82820690509291505056fea264697066735822122081ab6ca14808fa67d08547611e84057c04262f038c809a4edb33a33c2a5a4ad064736f6c63430008120033",
					"opcodes": "PUSH1 0x80 PUSH1 0x40 MSTORE CALLVALUE DUP1 ISZERO PUSH2 0x10 JUMPI PUSH1 0x0 DUP1 REVERT JUMPDEST POP PUSH2 0x312 DUP1 PUSH2 0x20 PUSH1 0x0 CODECOPY PUSH1 0x0 RETURN INVALID PUSH1 0x80 PUSH1 0x40 MSTORE CALLVALUE DUP1 ISZERO PUSH2 0x10 JUMPI PUSH1 0x0 DUP1 REVERT JUMPDEST POP PUSH1 0x4 CALLDATASIZE LT PUSH2 0x36 JUMPI PUSH1 0x0 CALLDATALOAD PUSH1 0xE0 SHR DUP1 PUSH4 0x961F76B EQ PUSH2 0x3B JUMPI DUP1 PUSH4 0x697C6485 EQ PUSH2 0x6B JUMPI JUMPDEST PUSH1 0x0 DUP1 REVERT JUMPDEST PUSH2 0x55 PUSH1 0x4 DUP1 CALLDATASIZE SUB DUP2 ADD SWAP1 PUSH2 0x50 SWAP2 SWAP1 PUSH2 0x17A JUMP JUMPDEST PUSH2 0x9B JUMP JUMPDEST PUSH1 0x40 MLOAD PUSH2 0x62 SWAP2 SWAP1 PUSH2 0x1B6 JUMP JUMPDEST PUSH1 0x40 MLOAD DUP1 SWAP2 SUB SWAP1 RETURN JUMPDEST PUSH2 0x85 PUSH1 0x4 DUP1 CALLDATASIZE SUB DUP2 ADD SWAP1 PUSH2 0x80 SWAP2 SWAP1 PUSH2 0x17A JUMP JUMPDEST PUSH2 0xEC JUMP JUMPDEST PUSH1 0x40 MLOAD PUSH2 0x92 SWAP2 SWAP1 PUSH2 0x1B6 JUMP JUMPDEST PUSH1 0x40 MLOAD DUP1 SWAP2 SUB SWAP1 RETURN JUMPDEST PUSH1 0x0 DUP1 PUSH1 0x0 SWAP1 POP PUSH1 0x0 JUMPDEST DUP4 DUP2 LT ISZERO PUSH2 0xE2 JUMPI PUSH2 0x3E8 DUP2 DUP4 PUSH2 0xBC SWAP2 SWAP1 PUSH2 0x200 JUMP JUMPDEST GT PUSH2 0xE2 JUMPI DUP1 DUP3 PUSH2 0xCD SWAP2 SWAP1 PUSH2 0x200 JUMP JUMPDEST SWAP2 POP DUP1 DUP1 PUSH2 0xDA SWAP1 PUSH2 0x234 JUMP JUMPDEST SWAP2 POP POP PUSH2 0xA5 JUMP JUMPDEST POP DUP1 SWAP2 POP POP SWAP2 SWAP1 POP JUMP JUMPDEST PUSH1 0x0 DUP1 PUSH1 0x0 SWAP1 POP PUSH1 0x0 JUMPDEST DUP4 DUP2 LT ISZERO PUSH2 0x135 JUMPI PUSH1 0x0 PUSH1 0x3 DUP3 PUSH2 0x10D SWAP2 SWAP1 PUSH2 0x2AB JUMP JUMPDEST SUB ISZERO PUSH2 0x122 JUMPI DUP1 DUP3 PUSH2 0x11F SWAP2 SWAP1 PUSH2 0x200 JUMP JUMPDEST SWAP2 POP JUMPDEST DUP1 DUP1 PUSH2 0x12D SWAP1 PUSH2 0x234 JUMP JUMPDEST SWAP2 POP POP PUSH2 0xF6 JUMP JUMPDEST POP DUP1 SWAP2 POP POP SWAP2 SWAP1 POP JUMP JUMPDEST PUSH1 0x0 DUP1 REVERT JUMPDEST PUSH1 0x0 DUP2 SWAP1 POP SWAP2 SWAP1 POP JUMP JUMPDEST PUSH2 0x157 DUP2 PUSH2 0x144 JUMP JUMPDEST DUP2 EQ PUSH2 0x162 JUMPI PUSH1 0x0 DUP1 REVERT JUMPDEST POP JUMP JUMPDEST PUSH1 0x0 DUP2 CALLDATALOAD SWAP1 POP PUSH2 0x174 DUP2 PUSH2 0x14E JUMP JUMPDEST SWAP3 SWAP2 POP POP JUMP JUMPDEST PUSH1 0x0 PUSH1 0x20 DUP3 DUP5 SUB SLT ISZERO PUSH2 0x190 JUMPI PUSH2 0x18F PUSH2 0x13F JUMP JUMPDEST JUMPDEST PUSH1 0x0 PUSH2 0x19E DUP5 DUP3 DUP6 ADD PUSH2 0x165 JUMP JUMPDEST SWAP2 POP POP SWAP3 SWAP2 POP POP JUMP JUMPDEST PUSH2 0x1B0 DUP2 PUSH2 0x144 JUMP JUMPDEST DUP3 MSTORE POP POP JUMP JUMPDEST PUSH1 0x0 PUSH1 0x20 DUP3 ADD SWAP1 POP PUSH2 0x1CB PUSH1 0x0 DUP4 ADD DUP5 PUSH2 0x1A7 JUMP JUMPDEST SWAP3 SWAP2 POP POP JUMP JUMPDEST PUSH32 0x4E487B7100000000000000000000000000000000000000000000000000000000 PUSH1 0x0 MSTORE PUSH1 0x11 PUSH1 0x4 MSTORE PUSH1 0x24 PUSH1 0x0 REVERT JUMPDEST PUSH1 0x0 PUSH2 0x20B DUP3 PUSH2 0x144 JUMP JUMPDEST SWAP2 POP PUSH2 0x216 DUP4 PUSH2 0x144 JUMP JUMPDEST SWAP3 POP DUP3 DUP3 ADD SWAP1 POP DUP1 DUP3 GT ISZERO PUSH2 0x22E JUMPI PUSH2 0x22D PUSH2 0x1D1 JUMP JUMPDEST JUMPDEST SWAP3 SWAP2 POP POP JUMP JUMPDEST PUSH1 0x0 PUSH2 0x23F DUP3 PUSH2 0x144 JUMP JUMPDEST SWAP2 POP PUSH32 0xFFFFFFFFFFFFFFFFFFFFFFFFFFFFFFFFFFFFFFFFFFFFFFFFFFFFFFFFFFFFFFFF DUP3 SUB PUSH2 0x271 JUMPI PUSH2 0x270 PUSH2 0x1D1 JUMP JUMPDEST JUMPDEST PUSH1 0x1 DUP3 ADD SWAP1 POP SWAP2 SWAP1 POP JUMP JUMPDEST PUSH32 0x4E487B7100000000000000000000000000000000000000000000000000000000 PUSH1 0x0 MSTORE PUSH1 0x12 PUSH1 0x4 MSTORE PUSH1 0x24 PUSH1 0x0 REVERT JUMPDEST PUSH1 0x0 PUSH2 0x2B6 DUP3 PUSH2 0x144 JUMP JUMPDEST SWAP2 POP PUSH2 0x2C1 DUP4 PUSH2 0x144 JUMP JUMPDEST SWAP3 POP DUP3 PUSH2 0x2D1 JUMPI PUSH2 0x2D0 PUSH2 0x27C JUMP JUMPDEST JUMPDEST DUP3 DUP3 MOD SWAP1 POP SWAP3 SWAP2 POP POP JUMP INVALID LOG2 PUSH5 0x6970667358 0x22 SLT KECCAK256 DUP2 0xAB PUSH13 0xA14808FA67D08547611E84057C DIV 0x26 0x2F SUB DUP13 DUP1 SWAP11 0x4E 0xDB CALLER LOG3 EXTCODECOPY 0x2A GAS 0x4A 0xD0 PUSH5 0x736F6C6343 STOP ADDMOD SLT STOP CALLER "
				},
				"gasEstimates": {
					"creation": {
						"codeDepositCost": "157200",
						"executionCost": "202",
						"totalCost": "157402"
					},
					"external": {
						"sumOfNumbersNotDivisibleBy3(uint256)": "infinite",
						"sumOfNumbersUntilSumIs1000(uint256)": "infinite"
					}
				},
				"methodIdentifiers": {
					"sumOfNumbersNotDivisibleBy3(uint256)": "697c6485",
					"sumOfNumbersUntilSumIs1000(uint256)": "0961f76b"
				}
			},
			"storageLayout": {
				"storage": [],
				"types": null
			},
			"userdoc": {
				"kind": "user",
				"methods": {},
				"version": 1
			}
		}
	}
}