{
	"data": {
		"bytecode": {
			"linkReferences": {},
			"object": "60806040526040518060400160405280600c81526020017f4153444532303038333633340000000000000000000000000000000000000000815250600090816200004a9190620003b3565b506000600160006101000a81548167ffffffffffffffff021916908360070b67ffffffffffffffff1602179055506040518060400160405280600e81526020017f736f6c6964697479406f6b73626900000000000000000000000000000000000081525060029081620000be9190620003b3565b506040518060400160405280600b81526020017f5342494e3030303230363500000000000000000000000000000000000000000081525060039081620001059190620003b3565b506005600460006101000a81548160ff021916908360000b60ff1602179055503480156200013257600080fd5b506200049a565b600081519050919050565b7f4e487b7100000000000000000000000000000000000000000000000000000000600052604160045260246000fd5b7f4e487b7100000000000000000000000000000000000000000000000000000000600052602260045260246000fd5b60006002820490506001821680620001bb57607f821691505b602082108103620001d157620001d062000173565b5b50919050565b60008190508160005260206000209050919050565b60006020601f8301049050919050565b600082821b905092915050565b6000600883026200023b7fffffffffffffffffffffffffffffffffffffffffffffffffffffffffffffffff82620001fc565b620002478683620001fc565b95508019841693508086168417925050509392505050565b6000819050919050565b6000819050919050565b6000620002946200028e62000288846200025f565b62000269565b6200025f565b9050919050565b6000819050919050565b620002b08362000273565b620002c8620002bf826200029b565b84845462000209565b825550505050565b600090565b620002df620002d0565b620002ec818484620002a5565b505050565b5b81811015620003145762000308600082620002d5565b600181019050620002f2565b5050565b601f82111562000363576200032d81620001d7565b6200033884620001ec565b8101602085101562000348578190505b620003606200035785620001ec565b830182620002f1565b50505b505050565b600082821c905092915050565b6000620003886000198460080262000368565b1980831691505092915050565b6000620003a3838362000375565b9150826002028217905092915050565b620003be8262000139565b67ffffffffffffffff811115620003da57620003d962000144565b5b620003e68254620001a2565b620003f382828562000318565b600060209050601f8311600181146200042b576000841562000416578287015190505b62000422858262000395565b86555062000492565b601f1984166200043b86620001d7565b60005b8281101562000465578489015182556001820191506020850194506020810190506200043e565b8683101562000485578489015162000481601f89168262000375565b8355505b6001600288020188555050505b505050505050565b61070980620004aa6000396000f3fe608060405234801561001057600080fd5b506004361061007d5760003560e01c8063b2cb685d1161005b578063b2cb685d146100da578063c210be01146100f8578063e333d19e14610116578063e68f3a27146101325761007d565b80633ff1e05b146100825780636b2ff9bd146100a05780637a5dc6af146100bc575b600080fd5b61008a610162565b60405161009791906103bc565b60405180910390f35b6100ba60048036038101906100b59190610415565b610179565b005b6100c46101c6565b6040516100d191906104d2565b60405180910390f35b6100e2610258565b6040516100ef91906104d2565b60405180910390f35b6101006102ea565b60405161010d9190610510565b60405180910390f35b610130600480360381019061012b9190610557565b610301565b005b61014c60048036038101906101479190610415565b610322565b60405161015991906103bc565b60405180910390f35b6000600160009054906101000a900460070b905090565b8060030b600160008282829054906101000a900460070b61019a91906105b3565b92506101000a81548167ffffffffffffffff021916908360070b67ffffffffffffffff16021790555050565b6060600280546101d590610642565b80601f016020809104026020016040519081016040528092919081815260200182805461020190610642565b801561024e5780601f106102235761010080835404028352916020019161024e565b820191906000526020600020905b81548152906001019060200180831161023157829003601f168201915b5050505050905090565b60606003805461026790610642565b80601f016020809104026020016040519081016040528092919081815260200182805461029390610642565b80156102e05780601f106102b5576101008083540402835291602001916102e0565b820191906000526020600020905b8154815290600101906020018083116102c357829003601f168201915b5050505050905090565b6000600460009054906101000a900460000b905090565b80600460006101000a81548160ff021916908360000b60ff16021790555050565b6000600160009054906101000a900460070b60070b8260030b1215610396578160030b600160008282829054906101000a900460070b6103629190610673565b92506101000a81548167ffffffffffffffff021916908360070b67ffffffffffffffff1602179055508160030b905061039b565b600090505b919050565b60008160070b9050919050565b6103b6816103a0565b82525050565b60006020820190506103d160008301846103ad565b92915050565b600080fd5b60008160030b9050919050565b6103f2816103dc565b81146103fd57600080fd5b50565b60008135905061040f816103e9565b92915050565b60006020828403121561042b5761042a6103d7565b5b600061043984828501610400565b91505092915050565b600081519050919050565b600082825260208201905092915050565b60005b8381101561047c578082015181840152602081019050610461565b60008484015250505050565b6000601f19601f8301169050919050565b60006104a482610442565b6104ae818561044d565b93506104be81856020860161045e565b6104c781610488565b840191505092915050565b600060208201905081810360008301526104ec8184610499565b905092915050565b60008160000b9050919050565b61050a816104f4565b82525050565b60006020820190506105256000830184610501565b92915050565b610534816104f4565b811461053f57600080fd5b50565b6000813590506105518161052b565b92915050565b60006020828403121561056d5761056c6103d7565b5b600061057b84828501610542565b91505092915050565b7f4e487b7100000000000000000000000000000000000000000000000000000000600052601160045260246000fd5b60006105be826103a0565b91506105c9836103a0565b925082820190507fffffffffffffffffffffffffffffffffffffffffffffffff80000000000000008112677fffffffffffffff8213171561060d5761060c610584565b5b92915050565b7f4e487b7100000000000000000000000000000000000000000000000000000000600052602260045260246000fd5b6000600282049050600182168061065a57607f821691505b60208210810361066d5761066c610613565b5b50919050565b600061067e826103a0565b9150610689836103a0565b92508282039050677fffffffffffffff81137fffffffffffffffffffffffffffffffffffffffffffffffff8000000000000000821217156106cd576106cc610584565b5b9291505056fea26469706673582212200e231b8b8d68c7653b0b1e0b2910813a386b042d7f711610cdb4c3d9bca8554264736f6c63430008120033",
			"opcodes": "PUSH1 0x80 PUSH1 0x40 MSTORE PUSH1 0x40 MLOAD DUP1 PUSH1 0x40 ADD PUSH1 0x40 MSTORE DUP1 PUSH1 0xC DUP2 MSTORE PUSH1 0x20 ADD PUSH32 0x4153444532303038333633340000000000000000000000000000000000000000 DUP2 MSTORE POP PUSH1 0x0 SWAP1 DUP2 PUSH3 0x4A SWAP2 SWAP1 PUSH3 0x3B3 JUMP JUMPDEST POP PUSH1 0x0 PUSH1 0x1 PUSH1 0x0 PUSH2 0x100 EXP DUP2 SLOAD DUP2 PUSH8 0xFFFFFFFFFFFFFFFF MUL NOT AND SWAP1 DUP4 PUSH1 0x7 SIGNEXTEND PUSH8 0xFFFFFFFFFFFFFFFF AND MUL OR SWAP1 SSTORE POP PUSH1 0x40 MLOAD DUP1 PUSH1 0x40 ADD PUSH1 0x40 MSTORE DUP1 PUSH1 0xE DUP2 MSTORE PUSH1 0x20 ADD PUSH32 0x736F6C6964697479406F6B736269000000000000000000000000000000000000 DUP2 MSTORE POP PUSH1 0x2 SWAP1 DUP2 PUSH3 0xBE SWAP2 SWAP1 PUSH3 0x3B3 JUMP JUMPDEST POP PUSH1 0x40 MLOAD DUP1 PUSH1 0x40 ADD PUSH1 0x40 MSTORE DUP1 PUSH1 0xB DUP2 MSTORE PUSH1 0x20 ADD PUSH32 0x5342494E30303032303635000000000000000000000000000000000000000000 DUP2 MSTORE POP PUSH1 0x3 SWAP1 DUP2 PUSH3 0x105 SWAP2 SWAP1 PUSH3 0x3B3 JUMP JUMPDEST POP PUSH1 0x5 PUSH1 0x4 PUSH1 0x0 PUSH2 0x100 EXP DUP2 SLOAD DUP2 PUSH1 0xFF MUL NOT AND SWAP1 DUP4 PUSH1 0x0 SIGNEXTEND PUSH1 0xFF AND MUL OR SWAP1 SSTORE POP CALLVALUE DUP1 ISZERO PUSH3 0x132 JUMPI PUSH1 0x0 DUP1 REVERT JUMPDEST POP PUSH3 0x49A JUMP JUMPDEST PUSH1 0x0 DUP2 MLOAD SWAP1 POP SWAP2 SWAP1 POP JUMP JUMPDEST PUSH32 0x4E487B7100000000000000000000000000000000000000000000000000000000 PUSH1 0x0 MSTORE PUSH1 0x41 PUSH1 0x4 MSTORE PUSH1 0x24 PUSH1 0x0 REVERT JUMPDEST PUSH32 0x4E487B7100000000000000000000000000000000000000000000000000000000 PUSH1 0x0 MSTORE PUSH1 0x22 PUSH1 0x4 MSTORE PUSH1 0x24 PUSH1 0x0 REVERT JUMPDEST PUSH1 0x0 PUSH1 0x2 DUP3 DIV SWAP1 POP PUSH1 0x1 DUP3 AND DUP1 PUSH3 0x1BB JUMPI PUSH1 0x7F DUP3 AND SWAP2 POP JUMPDEST PUSH1 0x20 DUP3 LT DUP2 SUB PUSH3 0x1D1 JUMPI PUSH3 0x1D0 PUSH3 0x173 JUMP JUMPDEST JUMPDEST POP SWAP2 SWAP1 POP JUMP JUMPDEST PUSH1 0x0 DUP2 SWAP1 POP DUP2 PUSH1 0x0 MSTORE PUSH1 0x20 PUSH1 0x0 KECCAK256 SWAP1 POP SWAP2 SWAP1 POP JUMP JUMPDEST PUSH1 0x0 PUSH1 0x20 PUSH1 0x1F DUP4 ADD DIV SWAP1 POP SWAP2 SWAP1 POP JUMP JUMPDEST PUSH1 0x0 DUP3 DUP3 SHL SWAP1 POP SWAP3 SWAP2 POP POP JUMP JUMPDEST PUSH1 0x0 PUSH1 0x8 DUP4 MUL PUSH3 0x23B PUSH32 0xFFFFFFFFFFFFFFFFFFFFFFFFFFFFFFFFFFFFFFFFFFFFFFFFFFFFFFFFFFFFFFFF DUP3 PUSH3 0x1FC JUMP JUMPDEST PUSH3 0x247 DUP7 DUP4 PUSH3 0x1FC JUMP JUMPDEST SWAP6 POP DUP1 NOT DUP5 AND SWAP4 POP DUP1 DUP7 AND DUP5 OR SWAP3 POP POP POP SWAP4 SWAP3 POP POP POP JUMP JUMPDEST PUSH1 0x0 DUP2 SWAP1 POP SWAP2 SWAP1 POP JUMP JUMPDEST PUSH1 0x0 DUP2 SWAP1 POP SWAP2 SWAP1 POP JUMP JUMPDEST PUSH1 0x0 PUSH3 0x294 PUSH3 0x28E PUSH3 0x288 DUP5 PUSH3 0x25F JUMP JUMPDEST PUSH3 0x269 JUMP JUMPDEST PUSH3 0x25F JUMP JUMPDEST SWAP1 POP SWAP2 SWAP1 POP JUMP JUMPDEST PUSH1 0x0 DUP2 SWAP1 POP SWAP2 SWAP1 POP JUMP JUMPDEST PUSH3 0x2B0 DUP4 PUSH3 0x273 JUMP JUMPDEST PUSH3 0x2C8 PUSH3 0x2BF DUP3 PUSH3 0x29B JUMP JUMPDEST DUP5 DUP5 SLOAD PUSH3 0x209 JUMP JUMPDEST DUP3 SSTORE POP POP POP POP JUMP JUMPDEST PUSH1 0x0 SWAP1 JUMP JUMPDEST PUSH3 0x2DF PUSH3 0x2D0 JUMP JUMPDEST PUSH3 0x2EC DUP2 DUP5 DUP5 PUSH3 0x2A5 JUMP JUMPDEST POP POP POP JUMP JUMPDEST JUMPDEST DUP2 DUP2 LT ISZERO PUSH3 0x314 JUMPI PUSH3 0x308 PUSH1 0x0 DUP3 PUSH3 0x2D5 JUMP JUMPDEST PUSH1 0x1 DUP2 ADD SWAP1 POP PUSH3 0x2F2 JUMP JUMPDEST POP POP JUMP JUMPDEST PUSH1 0x1F DUP3 GT ISZERO PUSH3 0x363 JUMPI PUSH3 0x32D DUP2 PUSH3 0x1D7 JUMP JUMPDEST PUSH3 0x338 DUP5 PUSH3 0x1EC JUMP JUMPDEST DUP2 ADD PUSH1 0x20 DUP6 LT ISZERO PUSH3 0x348 JUMPI DUP2 SWAP1 POP JUMPDEST PUSH3 0x360 PUSH3 0x357 DUP6 PUSH3 0x1EC JUMP JUMPDEST DUP4 ADD DUP3 PUSH3 0x2F1 JUMP JUMPDEST POP POP JUMPDEST POP POP POP JUMP JUMPDEST PUSH1 0x0 DUP3 DUP3 SHR SWAP1 POP SWAP3 SWAP2 POP POP JUMP JUMPDEST PUSH1 0x0 PUSH3 0x388 PUSH1 0x0 NOT DUP5 PUSH1 0x8 MUL PUSH3 0x368 JUMP JUMPDEST NOT DUP1 DUP4 AND SWAP2 POP POP SWAP3 SWAP2 POP POP JUMP JUMPDEST PUSH1 0x0 PUSH3 0x3A3 DUP4 DUP4 PUSH3 0x375 JUMP JUMPDEST SWAP2 POP DUP3 PUSH1 0x2 MUL DUP3 OR SWAP1 POP SWAP3 SWAP2 POP POP JUMP JUMPDEST PUSH3 0x3BE DUP3 PUSH3 0x139 JUMP JUMPDEST PUSH8 0xFFFFFFFFFFFFFFFF DUP2 GT ISZERO PUSH3 0x3DA JUMPI PUSH3 0x3D9 PUSH3 0x144 JUMP JUMPDEST JUMPDEST PUSH3 0x3E6 DUP3 SLOAD PUSH3 0x1A2 JUMP JUMPDEST PUSH3 0x3F3 DUP3 DUP3 DUP6 PUSH3 0x318 JUMP JUMPDEST PUSH1 0x0 PUSH1 0x20 SWAP1 POP PUSH1 0x1F DUP4 GT PUSH1 0x1 DUP2 EQ PUSH3 0x42B JUMPI PUSH1 0x0 DUP5 ISZERO PUSH3 0x416 JUMPI DUP3 DUP8 ADD MLOAD SWAP1 POP JUMPDEST PUSH3 0x422 DUP6 DUP3 PUSH3 0x395 JUMP JUMPDEST DUP7 SSTORE POP PUSH3 0x492 JUMP JUMPDEST PUSH1 0x1F NOT DUP5 AND PUSH3 0x43B DUP7 PUSH3 0x1D7 JUMP JUMPDEST PUSH1 0x0 JUMPDEST DUP3 DUP2 LT ISZERO PUSH3 0x465 JUMPI DUP5 DUP10 ADD MLOAD DUP3 SSTORE PUSH1 0x1 DUP3 ADD SWAP2 POP PUSH1 0x20 DUP6 ADD SWAP5 POP PUSH1 0x20 DUP2 ADD SWAP1 POP PUSH3 0x43E JUMP JUMPDEST DUP7 DUP4 LT ISZERO PUSH3 0x485 JUMPI DUP5 DUP10 ADD MLOAD PUSH3 0x481 PUSH1 0x1F DUP10 AND DUP3 PUSH3 0x375 JUMP JUMPDEST DUP4 SSTORE POP JUMPDEST PUSH1 0x1 PUSH1 0x2 DUP9 MUL ADD DUP9 SSTORE POP POP POP JUMPDEST POP POP POP POP POP POP JUMP JUMPDEST PUSH2 0x709 DUP1 PUSH3 0x4AA PUSH1 0x0 CODECOPY PUSH1 0x0 RETURN INVALID PUSH1 0x80 PUSH1 0x40 MSTORE CALLVALUE DUP1 ISZERO PUSH2 0x10 JUMPI PUSH1 0x0 DUP1 REVERT JUMPDEST POP PUSH1 0x4 CALLDATASIZE LT PUSH2 0x7D JUMPI PUSH1 0x0 CALLDATALOAD PUSH1 0xE0 SHR DUP1 PUSH4 0xB2CB685D GT PUSH2 0x5B JUMPI DUP1 PUSH4 0xB2CB685D EQ PUSH2 0xDA JUMPI DUP1 PUSH4 0xC210BE01 EQ PUSH2 0xF8 JUMPI DUP1 PUSH4 0xE333D19E EQ PUSH2 0x116 JUMPI DUP1 PUSH4 0xE68F3A27 EQ PUSH2 0x132 JUMPI PUSH2 0x7D JUMP JUMPDEST DUP1 PUSH4 0x3FF1E05B EQ PUSH2 0x82 JUMPI DUP1 PUSH4 0x6B2FF9BD EQ PUSH2 0xA0 JUMPI DUP1 PUSH4 0x7A5DC6AF EQ PUSH2 0xBC JUMPI JUMPDEST PUSH1 0x0 DUP1 REVERT JUMPDEST PUSH2 0x8A PUSH2 0x162 JUMP JUMPDEST PUSH1 0x40 MLOAD PUSH2 0x97 SWAP2 SWAP1 PUSH2 0x3BC JUMP JUMPDEST PUSH1 0x40 MLOAD DUP1 SWAP2 SUB SWAP1 RETURN JUMPDEST PUSH2 0xBA PUSH1 0x4 DUP1 CALLDATASIZE SUB DUP2 ADD SWAP1 PUSH2 0xB5 SWAP2 SWAP1 PUSH2 0x415 JUMP JUMPDEST PUSH2 0x179 JUMP JUMPDEST STOP JUMPDEST PUSH2 0xC4 PUSH2 0x1C6 JUMP JUMPDEST PUSH1 0x40 MLOAD PUSH2 0xD1 SWAP2 SWAP1 PUSH2 0x4D2 JUMP JUMPDEST PUSH1 0x40 MLOAD DUP1 SWAP2 SUB SWAP1 RETURN JUMPDEST PUSH2 0xE2 PUSH2 0x258 JUMP JUMPDEST PUSH1 0x40 MLOAD PUSH2 0xEF SWAP2 SWAP1 PUSH2 0x4D2 JUMP JUMPDEST PUSH1 0x40 MLOAD DUP1 SWAP2 SUB SWAP1 RETURN JUMPDEST PUSH2 0x100 PUSH2 0x2EA JUMP JUMPDEST PUSH1 0x40 MLOAD PUSH2 0x10D SWAP2 SWAP1 PUSH2 0x510 JUMP JUMPDEST PUSH1 0x40 MLOAD DUP1 SWAP2 SUB SWAP1 RETURN JUMPDEST PUSH2 0x130 PUSH1 0x4 DUP1 CALLDATASIZE SUB DUP2 ADD SWAP1 PUSH2 0x12B SWAP2 SWAP1 PUSH2 0x557 JUMP JUMPDEST PUSH2 0x301 JUMP JUMPDEST STOP JUMPDEST PUSH2 0x14C PUSH1 0x4 DUP1 CALLDATASIZE SUB DUP2 ADD SWAP1 PUSH2 0x147 SWAP2 SWAP1 PUSH2 0x415 JUMP JUMPDEST PUSH2 0x322 JUMP JUMPDEST PUSH1 0x40 MLOAD PUSH2 0x159 SWAP2 SWAP1 PUSH2 0x3BC JUMP JUMPDEST PUSH1 0x40 MLOAD DUP1 SWAP2 SUB SWAP1 RETURN JUMPDEST PUSH1 0x0 PUSH1 0x1 PUSH1 0x0 SWAP1 SLOAD SWAP1 PUSH2 0x100 EXP SWAP1 DIV PUSH1 0x7 SIGNEXTEND SWAP1 POP SWAP1 JUMP JUMPDEST DUP1 PUSH1 0x3 SIGNEXTEND PUSH1 0x1 PUSH1 0x0 DUP3 DUP3 DUP3 SWAP1 SLOAD SWAP1 PUSH2 0x100 EXP SWAP1 DIV PUSH1 0x7 SIGNEXTEND PUSH2 0x19A SWAP2 SWAP1 PUSH2 0x5B3 JUMP JUMPDEST SWAP3 POP PUSH2 0x100 EXP DUP2 SLOAD DUP2 PUSH8 0xFFFFFFFFFFFFFFFF MUL NOT AND SWAP1 DUP4 PUSH1 0x7 SIGNEXTEND PUSH8 0xFFFFFFFFFFFFFFFF AND MUL OR SWAP1 SSTORE POP POP JUMP JUMPDEST PUSH1 0x60 PUSH1 0x2 DUP1 SLOAD PUSH2 0x1D5 SWAP1 PUSH2 0x642 JUMP JUMPDEST DUP1 PUSH1 0x1F ADD PUSH1 0x20 DUP1 SWAP2 DIV MUL PUSH1 0x20 ADD PUSH1 0x40 MLOAD SWAP1 DUP2 ADD PUSH1 0x40 MSTORE DUP1 SWAP3 SWAP2 SWAP1 DUP2 DUP2 MSTORE PUSH1 0x20 ADD DUP3 DUP1 SLOAD PUSH2 0x201 SWAP1 PUSH2 0x642 JUMP JUMPDEST DUP1 ISZERO PUSH2 0x24E JUMPI DUP1 PUSH1 0x1F LT PUSH2 0x223 JUMPI PUSH2 0x100 DUP1 DUP4 SLOAD DIV MUL DUP4 MSTORE SWAP2 PUSH1 0x20 ADD SWAP2 PUSH2 0x24E JUMP JUMPDEST DUP3 ADD SWAP2 SWAP1 PUSH1 0x0 MSTORE PUSH1 0x20 PUSH1 0x0 KECCAK256 SWAP1 JUMPDEST DUP2 SLOAD DUP2 MSTORE SWAP1 PUSH1 0x1 ADD SWAP1 PUSH1 0x20 ADD DUP1 DUP4 GT PUSH2 0x231 JUMPI DUP3 SWAP1 SUB PUSH1 0x1F AND DUP3 ADD SWAP2 JUMPDEST POP POP POP POP POP SWAP1 POP SWAP1 JUMP JUMPDEST PUSH1 0x60 PUSH1 0x3 DUP1 SLOAD PUSH2 0x267 SWAP1 PUSH2 0x642 JUMP JUMPDEST DUP1 PUSH1 0x1F ADD PUSH1 0x20 DUP1 SWAP2 DIV MUL PUSH1 0x20 ADD PUSH1 0x40 MLOAD SWAP1 DUP2 ADD PUSH1 0x40 MSTORE DUP1 SWAP3 SWAP2 SWAP1 DUP2 DUP2 MSTORE PUSH1 0x20 ADD DUP3 DUP1 SLOAD PUSH2 0x293 SWAP1 PUSH2 0x642 JUMP JUMPDEST DUP1 ISZERO PUSH2 0x2E0 JUMPI DUP1 PUSH1 0x1F LT PUSH2 0x2B5 JUMPI PUSH2 0x100 DUP1 DUP4 SLOAD DIV MUL DUP4 MSTORE SWAP2 PUSH1 0x20 ADD SWAP2 PUSH2 0x2E0 JUMP JUMPDEST DUP3 ADD SWAP2 SWAP1 PUSH1 0x0 MSTORE PUSH1 0x20 PUSH1 0x0 KECCAK256 SWAP1 JUMPDEST DUP2 SLOAD DUP2 MSTORE SWAP1 PUSH1 0x1 ADD SWAP1 PUSH1 0x20 ADD DUP1 DUP4 GT PUSH2 0x2C3 JUMPI DUP3 SWAP1 SUB PUSH1 0x1F AND DUP3 ADD SWAP2 JUMPDEST POP POP POP POP POP SWAP1 POP SWAP1 JUMP JUMPDEST PUSH1 0x0 PUSH1 0x4 PUSH1 0x0 SWAP1 SLOAD SWAP1 PUSH2 0x100 EXP SWAP1 DIV PUSH1 0x0 SIGNEXTEND SWAP1 POP SWAP1 JUMP JUMPDEST DUP1 PUSH1 0x4 PUSH1 0x0 PUSH2 0x100 EXP DUP2 SLOAD DUP2 PUSH1 0xFF MUL NOT AND SWAP1 DUP4 PUSH1 0x0 SIGNEXTEND PUSH1 0xFF AND MUL OR SWAP1 SSTORE POP POP JUMP JUMPDEST PUSH1 0x0 PUSH1 0x1 PUSH1 0x0 SWAP1 SLOAD SWAP1 PUSH2 0x100 EXP SWAP1 DIV PUSH1 0x7 SIGNEXTEND PUSH1 0x7 SIGNEXTEND DUP3 PUSH1 0x3 SIGNEXTEND SLT ISZERO PUSH2 0x396 JUMPI DUP2 PUSH1 0x3 SIGNEXTEND PUSH1 0x1 PUSH1 0x0 DUP3 DUP3 DUP3 SWAP1 SLOAD SWAP1 PUSH2 0x100 EXP SWAP1 DIV PUSH1 0x7 SIGNEXTEND PUSH2 0x362 SWAP2 SWAP1 PUSH2 0x673 JUMP JUMPDEST SWAP3 POP PUSH2 0x100 EXP DUP2 SLOAD DUP2 PUSH8 0xFFFFFFFFFFFFFFFF MUL NOT AND SWAP1 DUP4 PUSH1 0x7 SIGNEXTEND PUSH8 0xFFFFFFFFFFFFFFFF AND MUL OR SWAP1 SSTORE POP DUP2 PUSH1 0x3 SIGNEXTEND SWAP1 POP PUSH2 0x39B JUMP JUMPDEST PUSH1 0x0 SWAP1 POP JUMPDEST SWAP2 SWAP1 POP JUMP JUMPDEST PUSH1 0x0 DUP2 PUSH1 0x7 SIGNEXTEND SWAP1 POP SWAP2 SWAP1 POP JUMP JUMPDEST PUSH2 0x3B6 DUP2 PUSH2 0x3A0 JUMP JUMPDEST DUP3 MSTORE POP POP JUMP JUMPDEST PUSH1 0x0 PUSH1 0x20 DUP3 ADD SWAP1 POP PUSH2 0x3D1 PUSH1 0x0 DUP4 ADD DUP5 PUSH2 0x3AD JUMP JUMPDEST SWAP3 SWAP2 POP POP JUMP JUMPDEST PUSH1 0x0 DUP1 REVERT JUMPDEST PUSH1 0x0 DUP2 PUSH1 0x3 SIGNEXTEND SWAP1 POP SWAP2 SWAP1 POP JUMP JUMPDEST PUSH2 0x3F2 DUP2 PUSH2 0x3DC JUMP JUMPDEST DUP2 EQ PUSH2 0x3FD JUMPI PUSH1 0x0 DUP1 REVERT JUMPDEST POP JUMP JUMPDEST PUSH1 0x0 DUP2 CALLDATALOAD SWAP1 POP PUSH2 0x40F DUP2 PUSH2 0x3E9 JUMP JUMPDEST SWAP3 SWAP2 POP POP JUMP JUMPDEST PUSH1 0x0 PUSH1 0x20 DUP3 DUP5 SUB SLT ISZERO PUSH2 0x42B JUMPI PUSH2 0x42A PUSH2 0x3D7 JUMP JUMPDEST JUMPDEST PUSH1 0x0 PUSH2 0x439 DUP5 DUP3 DUP6 ADD PUSH2 0x400 JUMP JUMPDEST SWAP2 POP POP SWAP3 SWAP2 POP POP JUMP JUMPDEST PUSH1 0x0 DUP2 MLOAD SWAP1 POP SWAP2 SWAP1 POP JUMP JUMPDEST PUSH1 0x0 DUP3 DUP3 MSTORE PUSH1 0x20 DUP3 ADD SWAP1 POP SWAP3 SWAP2 POP POP JUMP JUMPDEST PUSH1 0x0 JUMPDEST DUP4 DUP2 LT ISZERO PUSH2 0x47C JUMPI DUP1 DUP3 ADD MLOAD DUP2 DUP5 ADD MSTORE PUSH1 0x20 DUP2 ADD SWAP1 POP PUSH2 0x461 JUMP JUMPDEST PUSH1 0x0 DUP5 DUP5 ADD MSTORE POP POP POP POP JUMP JUMPDEST PUSH1 0x0 PUSH1 0x1F NOT PUSH1 0x1F DUP4 ADD AND SWAP1 POP SWAP2 SWAP1 POP JUMP JUMPDEST PUSH1 0x0 PUSH2 0x4A4 DUP3 PUSH2 0x442 JUMP JUMPDEST PUSH2 0x4AE DUP2 DUP6 PUSH2 0x44D JUMP JUMPDEST SWAP4 POP PUSH2 0x4BE DUP2 DUP6 PUSH1 0x20 DUP7 ADD PUSH2 0x45E JUMP JUMPDEST PUSH2 0x4C7 DUP2 PUSH2 0x488 JUMP JUMPDEST DUP5 ADD SWAP2 POP POP SWAP3 SWAP2 POP POP JUMP JUMPDEST PUSH1 0x0 PUSH1 0x20 DUP3 ADD SWAP1 POP DUP2 DUP2 SUB PUSH1 0x0 DUP4 ADD MSTORE PUSH2 0x4EC DUP2 DUP5 PUSH2 0x499 JUMP JUMPDEST SWAP1 POP SWAP3 SWAP2 POP POP JUMP JUMPDEST PUSH1 0x0 DUP2 PUSH1 0x0 SIGNEXTEND SWAP1 POP SWAP2 SWAP1 POP JUMP JUMPDEST PUSH2 0x50A DUP2 PUSH2 0x4F4 JUMP JUMPDEST DUP3 MSTORE POP POP JUMP JUMPDEST PUSH1 0x0 PUSH1 0x20 DUP3 ADD SWAP1 POP PUSH2 0x525 PUSH1 0x0 DUP4 ADD DUP5 PUSH2 0x501 JUMP JUMPDEST SWAP3 SWAP2 POP POP JUMP JUMPDEST PUSH2 0x534 DUP2 PUSH2 0x4F4 JUMP JUMPDEST DUP2 EQ PUSH2 0x53F JUMPI PUSH1 0x0 DUP1 REVERT JUMPDEST POP JUMP JUMPDEST PUSH1 0x0 DUP2 CALLDATALOAD SWAP1 POP PUSH2 0x551 DUP2 PUSH2 0x52B JUMP JUMPDEST SWAP3 SWAP2 POP POP JUMP JUMPDEST PUSH1 0x0 PUSH1 0x20 DUP3 DUP5 SUB SLT ISZERO PUSH2 0x56D JUMPI PUSH2 0x56C PUSH2 0x3D7 JUMP JUMPDEST JUMPDEST PUSH1 0x0 PUSH2 0x57B DUP5 DUP3 DUP6 ADD PUSH2 0x542 JUMP JUMPDEST SWAP2 POP POP SWAP3 SWAP2 POP POP JUMP JUMPDEST PUSH32 0x4E487B7100000000000000000000000000000000000000000000000000000000 PUSH1 0x0 MSTORE PUSH1 0x11 PUSH1 0x4 MSTORE PUSH1 0x24 PUSH1 0x0 REVERT JUMPDEST PUSH1 0x0 PUSH2 0x5BE DUP3 PUSH2 0x3A0 JUMP JUMPDEST SWAP2 POP PUSH2 0x5C9 DUP4 PUSH2 0x3A0 JUMP JUMPDEST SWAP3 POP DUP3 DUP3 ADD SWAP1 POP PUSH32 0xFFFFFFFFFFFFFFFFFFFFFFFFFFFFFFFFFFFFFFFFFFFFFFFF8000000000000000 DUP2 SLT PUSH8 0x7FFFFFFFFFFFFFFF DUP3 SGT OR ISZERO PUSH2 0x60D JUMPI PUSH2 0x60C PUSH2 0x584 JUMP JUMPDEST JUMPDEST SWAP3 SWAP2 POP POP JUMP JUMPDEST PUSH32 0x4E487B7100000000000000000000000000000000000000000000000000000000 PUSH1 0x0 MSTORE PUSH1 0x22 PUSH1 0x4 MSTORE PUSH1 0x24 PUSH1 0x0 REVERT JUMPDEST PUSH1 0x0 PUSH1 0x2 DUP3 DIV SWAP1 POP PUSH1 0x1 DUP3 AND DUP1 PUSH2 0x65A JUMPI PUSH1 0x7F DUP3 AND SWAP2 POP JUMPDEST PUSH1 0x20 DUP3 LT DUP2 SUB PUSH2 0x66D JUMPI PUSH2 0x66C PUSH2 0x613 JUMP JUMPDEST JUMPDEST POP SWAP2 SWAP1 POP JUMP JUMPDEST PUSH1 0x0 PUSH2 0x67E DUP3 PUSH2 0x3A0 JUMP JUMPDEST SWAP2 POP PUSH2 0x689 DUP4 PUSH2 0x3A0 JUMP JUMPDEST SWAP3 POP DUP3 DUP3 SUB SWAP1 POP PUSH8 0x7FFFFFFFFFFFFFFF DUP2 SGT PUSH32 0xFFFFFFFFFFFFFFFFFFFFFFFFFFFFFFFFFFFFFFFFFFFFFFFF8000000000000000 DUP3 SLT OR ISZERO PUSH2 0x6CD JUMPI PUSH2 0x6CC PUSH2 0x584 JUMP JUMPDEST JUMPDEST SWAP3 SWAP2 POP POP JUMP INVALID LOG2 PUSH5 0x6970667358 0x22 SLT KECCAK256 0xE 0x23 SHL DUP12 DUP14 PUSH9 0xC7653B0B1E0B291081 GASPRICE CODESIZE PUSH12 0x42D7F711610CDB4C3D9BCA8 SSTORE TIMESTAMP PUSH5 0x736F6C6343 STOP ADDMOD SLT STOP CALLER "
		},
		"gasEstimates": {
			"creation": {
				"codeDepositCost": "360200",
				"executionCost": "infinite",
				"totalCost": "infinite"
			},
			"external": {
				"deposit(int32)": "infinite",
				"getAccountRating()": "2505",
				"getIFSCCode()": "infinite",
				"getUPIID()": "infinite",
				"setAccountRating(int8)": "24733",
				"viewBalance()": "2484",
				"withdraw(int32)": "infinite"
			}
		},
		"methodIdentifiers": {
			"deposit(int32)": "6b2ff9bd",
			"getAccountRating()": "c210be01",
			"getIFSCCode()": "b2cb685d",
			"getUPIID()": "7a5dc6af",
			"setAccountRating(int8)": "e333d19e",
			"viewBalance()": "3ff1e05b",
			"withdraw(int32)": "e68f3a27"
		}
	},
	"abi": [
		{
			"inputs": [
				{
					"internalType": "int32",
					"name": "amount",
					"type": "int32"
				}
			],
			"name": "deposit",
			"outputs": [],
			"stateMutability": "nonpayable",
			"type": "function"
		},
		{
			"inputs": [],
			"name": "getAccountRating",
			"outputs": [
				{
					"internalType": "int8",
					"name": "",
					"type": "int8"
				}
			],
			"stateMutability": "view",
			"type": "function"
		},
		{
			"inputs": [],
			"name": "getIFSCCode",
			"outputs": [
				{
					"internalType": "string",
					"name": "",
					"type": "string"
				}
			],
			"stateMutability": "view",
			"type": "function"
		},
		{
			"inputs": [],
			"name": "getUPIID",
			"outputs": [
				{
					"internalType": "string",
					"name": "",
					"type": "string"
				}
			],
			"stateMutability": "view",
			"type": "function"
		},
		{
			"inputs": [
				{
					"internalType": "int8",
					"name": "rating",
					"type": "int8"
				}
			],
			"name": "setAccountRating",
			"outputs": [],
			"stateMutability": "nonpayable",
			"type": "function"
		},
		{
			"inputs": [],
			"name": "viewBalance",
			"outputs": [
				{
					"internalType": "int64",
					"name": "",
					"type": "int64"
				}
			],
			"stateMutability": "view",
			"type": "function"
		},
		{
			"inputs": [
				{
					"internalType": "int32",
					"name": "amount",
					"type": "int32"
				}
			],
			"name": "withdraw",
			"outputs": [
				{
					"internalType": "int64",
					"name": "",
					"type": "int64"
				}
			],
			"stateMutability": "nonpayable",
			"type": "function"
		}
	]
}